{
  "contracts/main.sol": {
    "Algo2ProxyReencryption": {
      "abi": [
        {
          "inputs": [],
          "stateMutability": "nonpayable",
          "type": "constructor"
        },
        {
          "inputs": [
            {
              "internalType": "address",
              "name": "client",
              "type": "address"
            },
            {
              "internalType": "uint256",
              "name": "file_id",
              "type": "uint256"
            }
          ],
          "name": "get_file_share_result",
          "outputs": [
            {
              "internalType": "bool",
              "name": "",
              "type": "bool"
            },
            {
              "internalType": "uint256[2]",
              "name": "re_enc_key",
              "type": "uint256[2]"
            }
          ],
          "stateMutability": "view",
          "type": "function"
        },
        {
          "inputs": [
            {
              "internalType": "address",
              "name": "user",
              "type": "address"
            }
          ],
          "name": "get_files_pending_ids_of_user",
          "outputs": [
            {
              "internalType": "uint256[]",
              "name": "",
              "type": "uint256[]"
            }
          ],
          "stateMutability": "view",
          "type": "function"
        },
        {
          "inputs": [],
          "name": "get_pending_share_requests",
          "outputs": [
            {
              "internalType": "address[]",
              "name": "",
              "type": "address[]"
            },
            {
              "internalType": "address[]",
              "name": "",
              "type": "address[]"
            },
            {
              "internalType": "uint256[]",
              "name": "",
              "type": "uint256[]"
            },
            {
              "internalType": "uint256[]",
              "name": "",
              "type": "uint256[]"
            }
          ],
          "stateMutability": "view",
          "type": "function"
        },
        {
          "inputs": [
            {
              "internalType": "address",
              "name": "user",
              "type": "address"
            },
            {
              "internalType": "uint256",
              "name": "request_id",
              "type": "uint256"
            }
          ],
          "name": "get_request_id_result",
          "outputs": [
            {
              "internalType": "uint256[19]",
              "name": "return_data",
              "type": "uint256[19]"
            }
          ],
          "stateMutability": "view",
          "type": "function"
        },
        {
          "inputs": [
            {
              "internalType": "address",
              "name": "user",
              "type": "address"
            }
          ],
          "name": "get_user_files_pending_upload",
          "outputs": [
            {
              "internalType": "uint256[]",
              "name": "",
              "type": "uint256[]"
            }
          ],
          "stateMutability": "view",
          "type": "function"
        },
        {
          "inputs": [],
          "name": "get_users_pending_uploads",
          "outputs": [
            {
              "internalType": "address[]",
              "name": "",
              "type": "address[]"
            }
          ],
          "stateMutability": "view",
          "type": "function"
        },
        {
          "inputs": [
            {
              "internalType": "address",
              "name": "client",
              "type": "address"
            },
            {
              "internalType": "uint256[]",
              "name": "client_prenc_pk",
              "type": "uint256[]"
            },
            {
              "internalType": "address",
              "name": "file_owner",
              "type": "address"
            },
            {
              "internalType": "uint256",
              "name": "file_id",
              "type": "uint256"
            }
          ],
          "name": "request_file_share",
          "outputs": [],
          "stateMutability": "nonpayable",
          "type": "function"
        },
        {
          "inputs": [
            {
              "internalType": "address",
              "name": "user",
              "type": "address"
            },
            {
              "internalType": "uint256",
              "name": "request_id",
              "type": "uint256"
            }
          ],
          "name": "request_file_upload_info",
          "outputs": [],
          "stateMutability": "nonpayable",
          "type": "function"
        },
        {
          "inputs": [
            {
              "internalType": "uint256",
              "name": "request_id",
              "type": "uint256"
            },
            {
              "internalType": "uint256",
              "name": "generated_file_id",
              "type": "uint256"
            },
            {
              "internalType": "address",
              "name": "user",
              "type": "address"
            },
            {
              "internalType": "uint256[]",
              "name": "pp_g",
              "type": "uint256[]"
            },
            {
              "internalType": "uint256[]",
              "name": "pp_g1",
              "type": "uint256[]"
            },
            {
              "internalType": "uint256[]",
              "name": "pp_h",
              "type": "uint256[]"
            },
            {
              "internalType": "uint256[]",
              "name": "pp_u_v_d",
              "type": "uint256[]"
            },
            {
              "internalType": "uint256[]",
              "name": "prenc_public_key_pk",
              "type": "uint256[]"
            },
            {
              "internalType": "uint256[]",
              "name": "prenc_secret_encrypted",
              "type": "uint256[]"
            }
          ],
          "name": "respond_with_file_id",
          "outputs": [],
          "stateMutability": "nonpayable",
          "type": "function"
        },
        {
          "inputs": [
            {
              "internalType": "address",
              "name": "client",
              "type": "address"
            },
            {
              "internalType": "uint256",
              "name": "file_id",
              "type": "uint256"
            },
            {
              "internalType": "uint256[2]",
              "name": "re_enc_key",
              "type": "uint256[2]"
            }
          ],
          "name": "respond_with_re_encryption_key",
          "outputs": [],
          "stateMutability": "nonpayable",
          "type": "function"
        },
        {
          "inputs": [
            {
              "internalType": "address",
              "name": "user",
              "type": "address"
            },
            {
              "internalType": "uint256",
              "name": "file_id",
              "type": "uint256"
            },
            {
              "internalType": "string",
              "name": "file_info",
              "type": "string"
            },
            {
              "internalType": "string",
              "name": "file_address",
              "type": "string"
            },
            {
              "internalType": "uint256[23]",
              "name": "cyphertext",
              "type": "uint256[23]"
            }
          ],
          "name": "upload_file",
          "outputs": [],
          "stateMutability": "nonpayable",
          "type": "function"
        }
      ],
      "evm": {
        "bytecode": {
          "linkReferences": {},
          "object": "6080604052348015600f57600080fd5b50613c068061001f6000396000f3fe608060405234801561001057600080fd5b50600436106100a85760003560e01c80636552db5d116100715780636552db5d1461014157806381cf3e5d146101545780639b358456146101675780639eda76141461017f578063c52b484614610192578063c700a9dc146101a557600080fd5b8062618acb146100ad57806318884b49146100d75780631974260a146100f757806334bcaf891461011757806358fccab11461012c575b600080fd5b6100c06100bb36600461340e565b6101b8565b6040516100ce929190613438565b60405180910390f35b6100ea6100e536600461340e565b610378565b6040516100ce9190613472565b61010a6101053660046134a4565b6105d3565b6040516100ce9190613502565b61011f6106a7565b6040516100ce9190613550565b61013f61013a36600461362b565b61070c565b005b61013f61014f36600461340e565b610e66565b61010a6101623660046134a4565b611051565b61016f6110bd565b6040516100ce9493929190613761565b61013f61018d3660046137b9565b611698565b61013f6101a036600461383c565b611fc2565b61013f6101b3366004613910565b612416565b60006101c26132fa565b6001600160a01b0384166000908152600f6020908152604080832086845290915290205460ff1615156001146101fb5760009150610371565b6001600160a01b038481166000908152600e60208181526040808420888552825292839020835160c08082018652825482526001808401548816838601526002840154909716828701528551808701875260038401548152600484015481860152606080840191825287516101408082018a52600587015482526006870154828901526007870154828b01526008870154828401526009870154608080840191909152600a88015460a080850191909152600b89015484880152600c89015460e080860191909152600d8a0154610100808701919091529b8a015461012080870191909152838a01959095528c519384018d52600f8a0154845260108a0154848c015260118a01549c84019c909c526012890154948301949094526013880154908201526014870154818401526015870154948101949094526016860154988401989098526017850154968301969096526018909301549581019590955292909201929092528051518452518101519083015291505b9250929050565b610380613318565b6001600160a01b038316600090815260076020908152604080832085845290915290205460ff1615156001146104235760405162461bcd60e51b815260206004820152603960248201527f52657175657374204944206f66207573657220646f6573206e6f7420706f696e60448201527f7420746f20616e792066696c652063726564656e7469616c730000000000000060648201526084015b60405180910390fd5b6001600160a01b03831660008181526005602090815260408083208684528252808320549383526004825280832084845290915290205481146104e15760405162461bcd60e51b815260206004820152604a60248201527f4c6f676963206572726f7220696e2074686520636f6e74726163742c2067656e60448201527f6572617465642066696c6520696420646f6573206e6f74206d6174636820696e6064820152692073747275637475726560b01b608482015260a40161041a565b8082526001600160a01b038416600090815260046020818152604080842085855280835281852060028101548489015260038101549288019290925292810154606087015260058101546080870152600681015460a0870152600781015460c0870152600881015460e08701526009810154610100870152600a810154610120870152600b810154610140870152600c810154610160870152600d810154610180870152600e8101546101a0870152600f8101546101c087015260108101546101e08701526011810154610200870152601c810154610220870152939092529052601d01546102408201525b92915050565b6001600160a01b038116600090815260016020526040812054606091816001600160401b0381111561060757610607613563565b604051908082528060200260200182016040528015610630578160200160208202803683370190505b50905060005b8281101561069f576001600160a01b0385166000908152600160205260409020805482908110610668576106686139e8565b90600052602060002090600202016001015482828151811061068c5761068c6139e8565b6020908102919091010152600101610636565b509392505050565b6060600160020180548060200260200160405190810160405280929190818152602001828054801561070257602002820191906000526020600020905b81546001600160a01b031681526001909101906020018083116106e4575b5050505050905090565b6001600160a01b03871660009081526002602090815260408083208c845290915290205460ff16151560011461079d5760405162461bcd60e51b815260206004820152603060248201527f556e6b6e6f776e20726571756573745f6964207761732070617373656420666f60448201526f39103a34329033b4bb32b7103ab9b2b960811b606482015260840161041a565b6000604051806102000160405280886000815181106107be576107be6139e8565b60200260200101518152602001886001815181106107de576107de6139e8565b60200260200101518152602001886002815181106107fe576107fe6139e8565b602002602001015181526020018860038151811061081e5761081e6139e8565b602002602001015181526020018760008151811061083e5761083e6139e8565b602002602001015181526020018760018151811061085e5761085e6139e8565b602002602001015181526020018660008151811061087e5761087e6139e8565b602002602001015181526020018660018151811061089e5761089e6139e8565b60200260200101518152602001866002815181106108be576108be6139e8565b60200260200101518152602001866003815181106108de576108de6139e8565b60200260200101518152602001856000815181106108fe576108fe6139e8565b602002602001015181526020018560018151811061091e5761091e6139e8565b602002602001015181526020018560028151811061093e5761093e6139e8565b602002602001015181526020018560038151811061095e5761095e6139e8565b602002602001015181526020018560048151811061097e5761097e6139e8565b602002602001015181526020018560058151811061099e5761099e6139e8565b602002602001015181525090506000604051806101400160405280856000815181106109cc576109cc6139e8565b60200260200101518152602001856001815181106109ec576109ec6139e8565b6020026020010151815260200185600281518110610a0c57610a0c6139e8565b6020026020010151815260200185600381518110610a2c57610a2c6139e8565b6020026020010151815260200185600481518110610a4c57610a4c6139e8565b6020026020010151815260200185600581518110610a6c57610a6c6139e8565b6020026020010151815260200185600681518110610a8c57610a8c6139e8565b6020026020010151815260200185600781518110610aac57610aac6139e8565b6020026020010151815260200185600881518110610acc57610acc6139e8565b6020026020010151815260200185600981518110610aec57610aec6139e8565b602002602001015181525090506000604051806040016040528085600081518110610b1957610b196139e8565b6020026020010151815260200185600181518110610b3957610b396139e8565b6020026020010151815250905060006040518060a001604052808d81526020018c6001600160a01b0316815260200185815260200184815260200183815250905080600460000160008d6001600160a01b03166001600160a01b0316815260200190815260200160002060008e81526020019081526020016000206000820151816000015560208201518160010160006101000a8154816001600160a01b0302191690836001600160a01b03160217905550604082015181600201600082015181600001556020820151816001015560408201518160020155606082015181600301556080820151816004015560a0820151816005015560c0820151816006015560e082015181600701556101008201518160080155610120820151816009015561014082015181600a015561016082015181600b015561018082015181600c01556101a082015181600d01556101c082015181600e01556101e082015181600f01555050606082015181601201600082015181600001556020820151816001015560408201518160020155606082015181600301556080820151816004015560a0820151816005015560c0820151816006015560e08201518160070155610100820151816008015561012082015181600901555050608082015181601c01600082015181600001556020820151816001015550509050508b600460010160008d6001600160a01b03166001600160a01b0316815260200190815260200160002060008f8152602001908152602001600020819055508c600460020160008d6001600160a01b03166001600160a01b0316815260200190815260200160002060008e8152602001908152602001600020819055506001600460030160008d6001600160a01b03166001600160a01b0316815260200190815260200160002060008f815260200190815260200160002060006101000a81548160ff0219169083151502179055506004800160008c6001600160a01b03166001600160a01b031681526020019081526020016000208d9080600181540180825580915050600190039060005260206000200160009091909190915055610e578d8c612955565b50505050505050505050505050565b6040805180820182526001600160a01b03841681526020808201849052600084815290819052919091205460ff1615610ee15760405162461bcd60e51b815260206004820152601760248201527f5265717565737420494420616c72656164792075736564000000000000000000604482015260640161041a565b6001600160a01b038316600090815260026020908152604080832085845290915290205460ff1615610f645760405162461bcd60e51b815260206004820152602660248201527f5265717565737420494420696e20757365206279207573657220616c726561646044820152651e481d5cd95960d21b606482015260840161041a565b6001600160a01b0383166000908152600160205260408120549003610fcf57600380546001810182556000919091527fc2575a0e9e593c00f959f8c92f12db2869c3395a3b0502d05e2516446f71f85b0180546001600160a01b0319166001600160a01b0385161790555b6001600160a01b039283166000818152600160208181526040808420805480850182559085528285208751600292830290910180546001600160a01b03191691909a161789559582015197830197909755928252928252848120938152928152838320805460ff19908116841790915590839052929091208054909216179055565b6001600160a01b0381166000908152600860209081526040918290208054835181840281018401909452808452606093928301828280156110b157602002820191906000526020600020905b81548152602001906001019080831161109d575b50505050509050919050565b600c546060908190819081906000816001600160401b038111156110e3576110e3613563565b60405190808252806020026020018201604052801561110c578160200160208202803683370190505b5090506000826001600160401b0381111561112957611129613563565b604051908082528060200260200182016040528015611152578160200160208202803683370190505b5090506000836001600160401b0381111561116f5761116f613563565b604051908082528060200260200182016040528015611198578160200160208202803683370190505b50905060006111a885600a613a14565b6001600160401b038111156111bf576111bf613563565b6040519080825280602002602001820160405280156111e8578160200160208202803683370190505b50905060005b8581101561168857600c80548290811061120a5761120a6139e8565b90600052602060002090600d020160020160009054906101000a90046001600160a01b0316858281518110611241576112416139e8565b6001600160a01b0390921660209283029190910190910152600c80548290811061126d5761126d6139e8565b60009182526020909120600d909102015484516001600160a01b039091169085908390811061129e5761129e6139e8565b6001600160a01b0390921660209283029190910190910152600c8054829081106112ca576112ca6139e8565b90600052602060002090600d0201600101548382815181106112ee576112ee6139e8565b6020908102919091010152600c80548290811061130d5761130d6139e8565b600091825260209091206003600d9092020101548261132d83600a613a14565b611338906000613a2b565b81518110611348576113486139e8565b6020908102919091010152600c805482908110611367576113676139e8565b600091825260209091206004600d9092020101548261138783600a613a14565b611392906001613a2b565b815181106113a2576113a26139e8565b6020908102919091010152600c8054829081106113c1576113c16139e8565b600091825260209091206005600d909202010154826113e183600a613a14565b6113ec906002613a2b565b815181106113fc576113fc6139e8565b6020908102919091010152600c80548290811061141b5761141b6139e8565b600091825260209091206006600d9092020101548261143b83600a613a14565b611446906003613a2b565b81518110611456576114566139e8565b6020908102919091010152600c805482908110611475576114756139e8565b600091825260209091206007600d9092020101548261149583600a613a14565b6114a0906004613a2b565b815181106114b0576114b06139e8565b6020908102919091010152600c8054829081106114cf576114cf6139e8565b600091825260209091206008600d909202010154826114ef83600a613a14565b6114fa906005613a2b565b8151811061150a5761150a6139e8565b6020908102919091010152600c805482908110611529576115296139e8565b600091825260209091206009600d9092020101548261154983600a613a14565b611554906006613a2b565b81518110611564576115646139e8565b6020908102919091010152600c805482908110611583576115836139e8565b90600052602060002090600d0201600301600701548282600a6115a69190613a14565b6115b1906007613a2b565b815181106115c1576115c16139e8565b6020908102919091010152600c8054829081106115e0576115e06139e8565b60009182526020909120600b600d9092020101548261160083600a613a14565b61160b906008613a2b565b8151811061161b5761161b6139e8565b6020908102919091010152600c80548290811061163a5761163a6139e8565b60009182526020909120600c600d9092020101548261165a83600a613a14565b611665906009613a2b565b81518110611675576116756139e8565b60209081029190910101526001016111ee565b5092989197509550909350915050565b6001600160a01b038381166000908152600d602090815260408083208684528252918290208251608080820185528254861682526001830154828501908152600284015490961682860152845161014081018652600384015481526004840154948101949094526005830154948401949094526006820154606080850191909152600783015494840194909452600882015460a0840152600982015460c0840152600a82015460e0840152600b820154610100840152600c90910154610120830152918201529051831480156117835750836001600160a01b031681604001516001600160a01b0316145b6118005760405162461bcd60e51b815260206004820152604260248201527f52652d656e6372797074696f6e206b657920726573706f6e7365206973206e6f60448201527f74206173736f63696174656420776974682061207368617265207265717565736064820152613a1760f11b608482015260a40161041a565b80516001600160a01b03166000908152600b6020908152604080832086845290915290205460ff16151560011461189f5760405162461bcd60e51b815260206004820152603e60248201527f46696c652072657175657374656420746f20626520736861726564206973206e60448201527f6f206c6f6e6765722075706c6f61646564202f20617661696c61626c652e0000606482015260840161041a565b60006009600001600083600001516001600160a01b03166001600160a01b031681526020019081526020016000206000858152602001908152602001600020604051806080016040529081600082016040518060a0016040529081600082015481526020016001820160009054906101000a90046001600160a01b03166001600160a01b03166001600160a01b03168152602001600282016040518061020001604052908160008201548152602001600182015481526020016002820154815260200160038201548152602001600482015481526020016005820154815260200160068201548152602001600782015481526020016008820154815260200160098201548152602001600a8201548152602001600b8201548152602001600c8201548152602001600d8201548152602001600e8201548152602001600f82015481525050815260200160128201604051806101400160405290816000820154815260200160018201548152602001600282015481526020016003820154815260200160048201548152602001600582015481526020016006820154815260200160078201548152602001600882015481526020016009820154815250508152602001601c820160405180604001604052908160008201548152602001600182015481525050815250508152602001601e82018054611a9c90613a3e565b80601f0160208091040260200160405190810160405280929190818152602001828054611ac890613a3e565b8015611b155780601f10611aea57610100808354040283529160200191611b15565b820191906000526020600020905b815481529060010190602001808311611af857829003601f168201915b50505050508152602001601f82018054611b2e90613a3e565b80601f0160208091040260200160405190810160405280929190818152602001828054611b5a90613a3e565b8015611ba75780601f10611b7c57610100808354040283529160200191611ba7565b820191906000526020600020905b815481529060010190602001808311611b8a57829003601f168201915b505050918352505060408051610300810190915260209182019183810190829081018260178282826020028201915b815481526020019060010190808311611bd6575050505050815250508152505090506000604051806040016040528085600060028110611c1857611c186139e8565b6020020151815260200185600160028110611c3557611c356139e8565b602090810291909101519091526040805160808082018352865160609081015151835287518101518501518386015287518101518401518385015287518101518101518184015283518085018552898201805184015182525160a001518187015284519283018552885185015151835288518501518601519583019590955287518401518401518285015287519093015183015192810192909252929350600092611ce1928592612c69565b9050801515600003611d6757611cf78787612d7a565b6040805162461bcd60e51b81526020600482015260248101919091527f52652d656e6372797074696f6e206b657920766572696669636174696f6e206660448201527f61696c65642c20697420697320636f6e7369646572656420696e76616c696421606482015260840161041a565b60006040518060c0016040528088815260200186600001516001600160a01b03168152602001896001600160a01b0316815260200184815260200185600001516060015181526020018660600151815250905080600e60000160008a6001600160a01b03166001600160a01b0316815260200190815260200160002060008981526020019081526020016000206000820151816000015560208201518160010160006101000a8154816001600160a01b0302191690836001600160a01b0316021790555060408201518160020160006101000a8154816001600160a01b0302191690836001600160a01b0316021790555060608201518160030160008201518160000155602082015181600101555050608082015181600501600082015181600001556020820151816001015560408201518160020155606082015181600301556080820151816004015560a0820151816005015560c0820151816006015560e0820151816007015561010082015181600801556101208201518160090155505060a082015181600f01600082015181600001556020820151816001015560408201518160020155606082015181600301556080820151816004015560a0820151816005015560c0820151816006015560e082015181600701556101008201518160080155610120820151816009015550509050506001600e60010160008a6001600160a01b03166001600160a01b03168152602001908152602001600020600089815260200190815260200160002060006101000a81548160ff021916908315150217905550611fb88888612d7a565b5050505050505050565b6001600160a01b0382166000908152600b6020908152604080832084845290915290205460ff1615156001146120715760405162461bcd60e51b815260206004820152604860248201527f46696c65204f776e6572204164647265737320616e642046696c65204944207060448201527f61697220646f6573206e6f74207265666572656e636520616e2075706c6f616460648201526732b2103334b6329760c11b608482015260a40161041a565b600060405180610140016040528085600081518110612092576120926139e8565b60200260200101518152602001856001815181106120b2576120b26139e8565b60200260200101518152602001856002815181106120d2576120d26139e8565b60200260200101518152602001856003815181106120f2576120f26139e8565b6020026020010151815260200185600481518110612112576121126139e8565b6020026020010151815260200185600581518110612132576121326139e8565b6020026020010151815260200185600681518110612152576121526139e8565b6020026020010151815260200185600781518110612172576121726139e8565b6020026020010151815260200185600881518110612192576121926139e8565b60200260200101518152602001856009815181106121b2576121b26139e8565b6020026020010151815250905060006040518060800160405280856001600160a01b03168152602001848152602001876001600160a01b03168152602001838152509050600c6000018190806001815401808255809150506001900390600052602060002090600d020160009091909190915060008201518160000160006101000a8154816001600160a01b0302191690836001600160a01b031602179055506020820151816001015560408201518160020160006101000a8154816001600160a01b0302191690836001600160a01b03160217905550606082015181600301600082015181600001556020820151816001015560408201518160020155606082015181600301556080820151816004015560a0820151816005015560c0820151816006015560e08201518160070155610100820151816008015561012082015181600901555050505080600c6001016000886001600160a01b03166001600160a01b03168152602001908152602001600020600085815260200190815260200160002060008201518160000160006101000a8154816001600160a01b0302191690836001600160a01b031602179055506020820151816001015560408201518160020160006101000a8154816001600160a01b0302191690836001600160a01b03160217905550606082015181600301600082015181600001556020820151816001015560408201518160020155606082015181600301556080820151816004015560a0820151816005015560c0820151816006015560e08201518160070155610100820151816008015561012082015181600901555050905050505050505050565b6001600160a01b03851660008181526006602090815260408083208884528252808320549383526007825280832084845290915290205460ff1615156001146124de5760405162461bcd60e51b815260206004820152604e60248201527f46696c652049442070617373656420646f6573206e6f74207265666572656e6360448201527f6520612076616c69642070656e64696e672066696c6520666f722075706c6f6160648201526d32103337b9103a3432903ab9b2b960911b608482015260a40161041a565b600060046000016000886001600160a01b03166001600160a01b0316815260200190815260200160002060008781526020019081526020016000206040518060a0016040529081600082015481526020016001820160009054906101000a90046001600160a01b03166001600160a01b03166001600160a01b03168152602001600282016040518061020001604052908160008201548152602001600182015481526020016002820154815260200160038201548152602001600482015481526020016005820154815260200160068201548152602001600782015481526020016008820154815260200160098201548152602001600a8201548152602001600b8201548152602001600c8201548152602001600d8201548152602001600e8201548152602001600f82015481525050815260200160128201604051806101400160405290816000820154815260200160018201548152602001600282015481526020016003820154815260200160048201548152602001600582015481526020016006820154815260200160078201548152602001600882015481526020016009820154815250508152602001601c820160405180604001604052908160008201548152602001600182015481525050815250509050600060405180602001604052808581525090506000604051806080016040528084815260200188815260200187815260200183815250905080600960000160008b6001600160a01b03166001600160a01b0316815260200190815260200160002060008a81526020019081526020016000206000820151816000016000820151816000015560208201518160010160006101000a8154816001600160a01b0302191690836001600160a01b03160217905550604082015181600201600082015181600001556020820151816001015560408201518160020155606082015181600301556080820151816004015560a0820151816005015560c0820151816006015560e082015181600701556101008201518160080155610120820151816009015561014082015181600a015561016082015181600b015561018082015181600c01556101a082015181600d01556101c082015181600e01556101e082015181600f01555050606082015181601201600082015181600001556020820151816001015560408201518160020155606082015181600301556080820151816004015560a0820151816005015560c0820151816006015560e08201518160070155610100820151816008015561012082015181600901555050608082015181601c01600082015181600001556020820151816001015550505050602082015181601e0190816128c19190613ac7565b506040820151601f8201906128d69082613ac7565b506060820151805160208301906128f09082906017613337565b505050506001600160a01b038a166000818152600a60209081526040808320805460018082018355918552838520018e9055938352600b82528083208d84529091529020805460ff191690911790555061294a898961300b565b505050505050505050565b6001600160a01b038116600090815260026020908152604080832085845290915290205460ff1615156001146129ff5760405162461bcd60e51b815260206004820152604360248201527f43616e206e6f7420736f6c76652072657175657374206173207265717565737460448201527f5f6964206f6620757365722077617320636f6e73696465726564206e6f7420756064820152621cd95960ea1b608482015260a40161041a565b6001600160a01b0381166000908152600160205260408120600354815491929091905b81811015612b0f5785848281548110612a3d57612a3d6139e8565b90600052602060002090600202016001015403612b075783612a60600184613b85565b81548110612a7057612a706139e8565b9060005260206000209060020201848281548110612a9057612a906139e8565b60009182526020909120825460029092020180546001600160a01b0319166001600160a01b039092169190911781556001918201549101558354849080612ad957612ad9613b98565b60008281526020812060026000199093019283020180546001600160a01b0319168155600101559055612b0f565b600101612a22565b506001600160a01b03841660009081526002602090815260408083208884529091529020805460ff19169055825415612b49575050505050565b6001600160a01b0384166000908152600160205260408120612b6a91613375565b60005b82811015612c6157846001600160a01b031660016002018281548110612b9557612b956139e8565b6000918252602090912001546001600160a01b031603612c59576003612bbc600185613b85565b81548110612bcc57612bcc6139e8565b600091825260209091200154600380546001600160a01b039092169183908110612bf857612bf86139e8565b600091825260209091200180546001600160a01b0319166001600160a01b03929092169190911790556003805480612c3257612c32613b98565b600082815260209020810160001990810180546001600160a01b0319169055019055612c61565b600101612b6d565b505050505050565b6040805161018081018252855181526020808701518183015285015181830152845160608083019190915285015160808201529084015160a0820152825160c0820152600090819060e081017f30644e72e131a029b85045b68181585d97816a916871ca8d3c208c16d87cfd478660016020020151612d08907f30644e72e131a029b85045b68181585d97816a916871ca8d3c208c16d87cfd47613b85565b612d129190613bae565b8152602085810151908201528451604082015260608086015190820152608001846002602002015181525090506000600c6020612d4f9190613a14565b9050612d59613399565b602081838560085afa612d6b57600080fd5b51600114979650505050505050565b600c805460005b81811015612f7c57846001600160a01b0316838281548110612da557612da56139e8565b600091825260209091206002600d9092020101546001600160a01b0316141580612df2575083838281548110612ddd57612ddd6139e8565b90600052602060002090600d02016001015414155b612f745782612e02600184613b85565b81548110612e1257612e126139e8565b90600052602060002090600d0201838281548110612e3257612e326139e8565b600091825260209091208254600d9092020180546001600160a01b039283166001600160a01b03199182161782556001808501549083015560028085015490830180549190941691161790915560038083015490820155600480830154908201556005808301549082015560068083015490820155600780830154908201556008808301549082015560098083015490820155600a8083015490820155600b8083015490820155600c918201549101558254839080612ef357612ef3613b98565b600082815260208120600d6000199093019283020180546001600160a01b0319908116825560018201839055600282018054909116905560038101829055600481018290556005810182905560068101829055600781018290556008810182905560098101829055600a8101829055600b8101829055600c01559055612f7c565b600101612d81565b5050506001600160a01b039091166000908152600d6020908152604080832093835292905290812080546001600160a01b0319908116825560018201839055600282018054909116905560038101829055600481018290556005810182905560068101829055600781018290556008810182905560098101829055600a8101829055600b8101829055600c0155565b6001600160a01b03821660008181526006602090815260408083208584528252808320549383526007825280832084845290915290205460ff1615156001146130f05760405162461bcd60e51b815260206004820152606560248201527f46696c652049442070617373656420666f722072656d6f76616c2066726f6d2060448201527f70656e64696e672066696c657320746f2075706c6f616420646f6573206e6f7460648201527f207265666572656e636520612076616c696420656e74727920666f7220746865608482015264103ab9b2b960d91b60a482015260c40161041a565b6001600160a01b038316600081815260046020818152604080842087855282528084208481556001810180546001600160a01b03191690556002810185905560038101859055928301849055600580840185905560068085018690556007808601879055600880870188905560098701889055600a8701889055600b8701889055600c8701889055600d8701889055600e8701889055600f870188905560108701889055601187018890556012870188905560138701889055601487018890556015870188905560168701889055601787018890556018870188905560198701889055601a8701889055601b8701889055601c8701889055601d90960187905587875291845282862088875284528286208690558686528352818520888652835281852085905585855282528084208685528252808420805460ff1916905593835252908120805490915b81811015612c61576001600160a01b0386166000908152600860205260409020805485919083908110613270576132706139e8565b9060005260206000200154036132f2578261328c600184613b85565b8154811061329c5761329c6139e8565b90600052602060002001548382815481106132b9576132b96139e8565b9060005260206000200181905550828054806132d7576132d7613b98565b60019003818190600052602060002001600090559055612c61565b60010161323b565b60405180604001604052806002906020820280368337509192915050565b6040518061026001604052806013906020820280368337509192915050565b8260178101928215613365579160200282015b8281111561336557825182559160200191906001019061334a565b506133719291506133b7565b5090565b508054600082556002029060005260206000209081019061339691906133cc565b50565b60405180602001604052806001906020820280368337509192915050565b5b8082111561337157600081556001016133b8565b5b808211156133715780546001600160a01b0319168155600060018201556002016133cd565b80356001600160a01b038116811461340957600080fd5b919050565b6000806040838503121561342157600080fd5b61342a836133f2565b946020939093013593505050565b821515815260608101602082018360005b6002811015613468578151835260209283019290910190600101613449565b5050509392505050565b6102608101818360005b601381101561349b57815183526020928301929091019060010161347c565b50505092915050565b6000602082840312156134b657600080fd5b6134bf826133f2565b9392505050565b600081518084526020840193506020830160005b828110156134f85781518652602095860195909101906001016134da565b5093949350505050565b6020815260006134bf60208301846134c6565b600081518084526020840193506020830160005b828110156134f85781516001600160a01b0316865260209586019590910190600101613529565b6020815260006134bf6020830184613515565b634e487b7160e01b600052604160045260246000fd5b604051601f8201601f191681016001600160401b03811182821017156135a1576135a1613563565b604052919050565b600082601f8301126135ba57600080fd5b81356001600160401b038111156135d3576135d3613563565b8060051b6135e360208201613579565b918252602081850181019290810190868411156135ff57600080fd5b6020860192505b83831015613621578235825260209283019290910190613606565b9695505050505050565b60008060008060008060008060006101208a8c03121561364a57600080fd5b8935985060208a0135975061366160408b016133f2565b965060608a01356001600160401b0381111561367c57600080fd5b6136888c828d016135a9565b96505060808a01356001600160401b038111156136a457600080fd5b6136b08c828d016135a9565b95505060a08a01356001600160401b038111156136cc57600080fd5b6136d88c828d016135a9565b94505060c08a01356001600160401b038111156136f457600080fd5b6137008c828d016135a9565b93505060e08a01356001600160401b0381111561371c57600080fd5b6137288c828d016135a9565b9250506101008a01356001600160401b0381111561374557600080fd5b6137518c828d016135a9565b9150509295985092959850929598565b6080815260006137746080830187613515565b82810360208401526137868187613515565b9050828103604084015261379a81866134c6565b905082810360608401526137ae81856134c6565b979650505050505050565b6000806000608084860312156137ce57600080fd5b6137d7846133f2565b9250602084013591506000605f850186136137f0578081fd5b806137fb6040613579565b9050809150608086018781111561381157600080fd5b604087015b8181101561382e578035845260209384019301613816565b505080925050509250925092565b6000806000806080858703121561385257600080fd5b61385b856133f2565b935060208501356001600160401b0381111561387657600080fd5b613882878288016135a9565b935050613891604086016133f2565b9396929550929360600135925050565b600082601f8301126138b257600080fd5b81356001600160401b038111156138cb576138cb613563565b6138de601f8201601f1916602001613579565b8181528460208386010111156138f357600080fd5b816020850160208301376000918101602001919091529392505050565b6000806000806000610360868803121561392957600080fd5b613932866133f2565b94506020860135935060408601356001600160401b0381111561395457600080fd5b613960888289016138a1565b93505060608601356001600160401b0381111561397c57600080fd5b613988888289016138a1565b92505086609f87011261399a57600080fd5b6080860160006102e06139ac81613579565b91508201818a8211156139be57600080fd5b5b818410156139d75783358152602093840193016139bf565b505080925050509295509295909350565b634e487b7160e01b600052603260045260246000fd5b634e487b7160e01b600052601160045260246000fd5b80820281158282048414176105cd576105cd6139fe565b808201808211156105cd576105cd6139fe565b600181811c90821680613a5257607f821691505b602082108103613a7257634e487b7160e01b600052602260045260246000fd5b50919050565b601f821115613ac257806000526020600020601f840160051c81016020851015613a9f5750805b601f840160051c820191505b81811015613abf5760008155600101613aab565b50505b505050565b81516001600160401b03811115613ae057613ae0613563565b613af481613aee8454613a3e565b84613a78565b6020601f821160018114613b285760008315613b105750848201515b600019600385901b1c1916600184901b178455613abf565b600084815260208120601f198516915b82811015613b585787850151825560209485019460019092019101613b38565b5084821015613b765786840151600019600387901b60f8161c191681555b50505050600190811b01905550565b818103818111156105cd576105cd6139fe565b634e487b7160e01b600052603160045260246000fd5b600082613bcb57634e487b7160e01b600052601260045260246000fd5b50069056fea2646970667358221220e684a3df6ddc5b0e0d7f2fd647a6f64796dee77eaffe7a1b2190b37f6990abbf64736f6c634300081c0033",
          "opcodes": "PUSH1 0x80 PUSH1 0x40 MSTORE CALLVALUE DUP1 ISZERO PUSH1 0xF JUMPI PUSH1 0x0 DUP1 REVERT JUMPDEST POP PUSH2 0x3C06 DUP1 PUSH2 0x1F PUSH1 0x0 CODECOPY PUSH1 0x0 RETURN INVALID PUSH1 0x80 PUSH1 0x40 MSTORE CALLVALUE DUP1 ISZERO PUSH2 0x10 JUMPI PUSH1 0x0 DUP1 REVERT JUMPDEST POP PUSH1 0x4 CALLDATASIZE LT PUSH2 0xA8 JUMPI PUSH1 0x0 CALLDATALOAD PUSH1 0xE0 SHR DUP1 PUSH4 0x6552DB5D GT PUSH2 0x71 JUMPI DUP1 PUSH4 0x6552DB5D EQ PUSH2 0x141 JUMPI DUP1 PUSH4 0x81CF3E5D EQ PUSH2 0x154 JUMPI DUP1 PUSH4 0x9B358456 EQ PUSH2 0x167 JUMPI DUP1 PUSH4 0x9EDA7614 EQ PUSH2 0x17F JUMPI DUP1 PUSH4 0xC52B4846 EQ PUSH2 0x192 JUMPI DUP1 PUSH4 0xC700A9DC EQ PUSH2 0x1A5 JUMPI PUSH1 0x0 DUP1 REVERT JUMPDEST DUP1 PUSH3 0x618ACB EQ PUSH2 0xAD JUMPI DUP1 PUSH4 0x18884B49 EQ PUSH2 0xD7 JUMPI DUP1 PUSH4 0x1974260A EQ PUSH2 0xF7 JUMPI DUP1 PUSH4 0x34BCAF89 EQ PUSH2 0x117 JUMPI DUP1 PUSH4 0x58FCCAB1 EQ PUSH2 0x12C JUMPI JUMPDEST PUSH1 0x0 DUP1 REVERT JUMPDEST PUSH2 0xC0 PUSH2 0xBB CALLDATASIZE PUSH1 0x4 PUSH2 0x340E JUMP JUMPDEST PUSH2 0x1B8 JUMP JUMPDEST PUSH1 0x40 MLOAD PUSH2 0xCE SWAP3 SWAP2 SWAP1 PUSH2 0x3438 JUMP JUMPDEST PUSH1 0x40 MLOAD DUP1 SWAP2 SUB SWAP1 RETURN JUMPDEST PUSH2 0xEA PUSH2 0xE5 CALLDATASIZE PUSH1 0x4 PUSH2 0x340E JUMP JUMPDEST PUSH2 0x378 JUMP JUMPDEST PUSH1 0x40 MLOAD PUSH2 0xCE SWAP2 SWAP1 PUSH2 0x3472 JUMP JUMPDEST PUSH2 0x10A PUSH2 0x105 CALLDATASIZE PUSH1 0x4 PUSH2 0x34A4 JUMP JUMPDEST PUSH2 0x5D3 JUMP JUMPDEST PUSH1 0x40 MLOAD PUSH2 0xCE SWAP2 SWAP1 PUSH2 0x3502 JUMP JUMPDEST PUSH2 0x11F PUSH2 0x6A7 JUMP JUMPDEST PUSH1 0x40 MLOAD PUSH2 0xCE SWAP2 SWAP1 PUSH2 0x3550 JUMP JUMPDEST PUSH2 0x13F PUSH2 0x13A CALLDATASIZE PUSH1 0x4 PUSH2 0x362B JUMP JUMPDEST PUSH2 0x70C JUMP JUMPDEST STOP JUMPDEST PUSH2 0x13F PUSH2 0x14F CALLDATASIZE PUSH1 0x4 PUSH2 0x340E JUMP JUMPDEST PUSH2 0xE66 JUMP JUMPDEST PUSH2 0x10A PUSH2 0x162 CALLDATASIZE PUSH1 0x4 PUSH2 0x34A4 JUMP JUMPDEST PUSH2 0x1051 JUMP JUMPDEST PUSH2 0x16F PUSH2 0x10BD JUMP JUMPDEST PUSH1 0x40 MLOAD PUSH2 0xCE SWAP5 SWAP4 SWAP3 SWAP2 SWAP1 PUSH2 0x3761 JUMP JUMPDEST PUSH2 0x13F PUSH2 0x18D CALLDATASIZE PUSH1 0x4 PUSH2 0x37B9 JUMP JUMPDEST PUSH2 0x1698 JUMP JUMPDEST PUSH2 0x13F PUSH2 0x1A0 CALLDATASIZE PUSH1 0x4 PUSH2 0x383C JUMP JUMPDEST PUSH2 0x1FC2 JUMP JUMPDEST PUSH2 0x13F PUSH2 0x1B3 CALLDATASIZE PUSH1 0x4 PUSH2 0x3910 JUMP JUMPDEST PUSH2 0x2416 JUMP JUMPDEST PUSH1 0x0 PUSH2 0x1C2 PUSH2 0x32FA JUMP JUMPDEST PUSH1 0x1 PUSH1 0x1 PUSH1 0xA0 SHL SUB DUP5 AND PUSH1 0x0 SWAP1 DUP2 MSTORE PUSH1 0xF PUSH1 0x20 SWAP1 DUP2 MSTORE PUSH1 0x40 DUP1 DUP4 KECCAK256 DUP7 DUP5 MSTORE SWAP1 SWAP2 MSTORE SWAP1 KECCAK256 SLOAD PUSH1 0xFF AND ISZERO ISZERO PUSH1 0x1 EQ PUSH2 0x1FB JUMPI PUSH1 0x0 SWAP2 POP PUSH2 0x371 JUMP JUMPDEST PUSH1 0x1 PUSH1 0x1 PUSH1 0xA0 SHL SUB DUP5 DUP2 AND PUSH1 0x0 SWAP1 DUP2 MSTORE PUSH1 0xE PUSH1 0x20 DUP2 DUP2 MSTORE PUSH1 0x40 DUP1 DUP5 KECCAK256 DUP9 DUP6 MSTORE DUP3 MSTORE SWAP3 DUP4 SWAP1 KECCAK256 DUP4 MLOAD PUSH1 0xC0 DUP1 DUP3 ADD DUP7 MSTORE DUP3 SLOAD DUP3 MSTORE PUSH1 0x1 DUP1 DUP5 ADD SLOAD DUP9 AND DUP4 DUP7 ADD MSTORE PUSH1 0x2 DUP5 ADD SLOAD SWAP1 SWAP8 AND DUP3 DUP8 ADD MSTORE DUP6 MLOAD DUP1 DUP8 ADD DUP8 MSTORE PUSH1 0x3 DUP5 ADD SLOAD DUP2 MSTORE PUSH1 0x4 DUP5 ADD SLOAD DUP2 DUP7 ADD MSTORE PUSH1 0x60 DUP1 DUP5 ADD SWAP2 DUP3 MSTORE DUP8 MLOAD PUSH2 0x140 DUP1 DUP3 ADD DUP11 MSTORE PUSH1 0x5 DUP8 ADD SLOAD DUP3 MSTORE PUSH1 0x6 DUP8 ADD SLOAD DUP3 DUP10 ADD MSTORE PUSH1 0x7 DUP8 ADD SLOAD DUP3 DUP12 ADD MSTORE PUSH1 0x8 DUP8 ADD SLOAD DUP3 DUP5 ADD MSTORE PUSH1 0x9 DUP8 ADD SLOAD PUSH1 0x80 DUP1 DUP5 ADD SWAP2 SWAP1 SWAP2 MSTORE PUSH1 0xA DUP9 ADD SLOAD PUSH1 0xA0 DUP1 DUP6 ADD SWAP2 SWAP1 SWAP2 MSTORE PUSH1 0xB DUP10 ADD SLOAD DUP5 DUP9 ADD MSTORE PUSH1 0xC DUP10 ADD SLOAD PUSH1 0xE0 DUP1 DUP7 ADD SWAP2 SWAP1 SWAP2 MSTORE PUSH1 0xD DUP11 ADD SLOAD PUSH2 0x100 DUP1 DUP8 ADD SWAP2 SWAP1 SWAP2 MSTORE SWAP12 DUP11 ADD SLOAD PUSH2 0x120 DUP1 DUP8 ADD SWAP2 SWAP1 SWAP2 MSTORE DUP4 DUP11 ADD SWAP6 SWAP1 SWAP6 MSTORE DUP13 MLOAD SWAP4 DUP5 ADD DUP14 MSTORE PUSH1 0xF DUP11 ADD SLOAD DUP5 MSTORE PUSH1 0x10 DUP11 ADD SLOAD DUP5 DUP13 ADD MSTORE PUSH1 0x11 DUP11 ADD SLOAD SWAP13 DUP5 ADD SWAP13 SWAP1 SWAP13 MSTORE PUSH1 0x12 DUP10 ADD SLOAD SWAP5 DUP4 ADD SWAP5 SWAP1 SWAP5 MSTORE PUSH1 0x13 DUP9 ADD SLOAD SWAP1 DUP3 ADD MSTORE PUSH1 0x14 DUP8 ADD SLOAD DUP2 DUP5 ADD MSTORE PUSH1 0x15 DUP8 ADD SLOAD SWAP5 DUP2 ADD SWAP5 SWAP1 SWAP5 MSTORE PUSH1 0x16 DUP7 ADD SLOAD SWAP9 DUP5 ADD SWAP9 SWAP1 SWAP9 MSTORE PUSH1 0x17 DUP6 ADD SLOAD SWAP7 DUP4 ADD SWAP7 SWAP1 SWAP7 MSTORE PUSH1 0x18 SWAP1 SWAP4 ADD SLOAD SWAP6 DUP2 ADD SWAP6 SWAP1 SWAP6 MSTORE SWAP3 SWAP1 SWAP3 ADD SWAP3 SWAP1 SWAP3 MSTORE DUP1 MLOAD MLOAD DUP5 MSTORE MLOAD DUP2 ADD MLOAD SWAP1 DUP4 ADD MSTORE SWAP2 POP JUMPDEST SWAP3 POP SWAP3 SWAP1 POP JUMP JUMPDEST PUSH2 0x380 PUSH2 0x3318 JUMP JUMPDEST PUSH1 0x1 PUSH1 0x1 PUSH1 0xA0 SHL SUB DUP4 AND PUSH1 0x0 SWAP1 DUP2 MSTORE PUSH1 0x7 PUSH1 0x20 SWAP1 DUP2 MSTORE PUSH1 0x40 DUP1 DUP4 KECCAK256 DUP6 DUP5 MSTORE SWAP1 SWAP2 MSTORE SWAP1 KECCAK256 SLOAD PUSH1 0xFF AND ISZERO ISZERO PUSH1 0x1 EQ PUSH2 0x423 JUMPI PUSH1 0x40 MLOAD PUSH3 0x461BCD PUSH1 0xE5 SHL DUP2 MSTORE PUSH1 0x20 PUSH1 0x4 DUP3 ADD MSTORE PUSH1 0x39 PUSH1 0x24 DUP3 ADD MSTORE PUSH32 0x52657175657374204944206F66207573657220646F6573206E6F7420706F696E PUSH1 0x44 DUP3 ADD MSTORE PUSH32 0x7420746F20616E792066696C652063726564656E7469616C7300000000000000 PUSH1 0x64 DUP3 ADD MSTORE PUSH1 0x84 ADD JUMPDEST PUSH1 0x40 MLOAD DUP1 SWAP2 SUB SWAP1 REVERT JUMPDEST PUSH1 0x1 PUSH1 0x1 PUSH1 0xA0 SHL SUB DUP4 AND PUSH1 0x0 DUP2 DUP2 MSTORE PUSH1 0x5 PUSH1 0x20 SWAP1 DUP2 MSTORE PUSH1 0x40 DUP1 DUP4 KECCAK256 DUP7 DUP5 MSTORE DUP3 MSTORE DUP1 DUP4 KECCAK256 SLOAD SWAP4 DUP4 MSTORE PUSH1 0x4 DUP3 MSTORE DUP1 DUP4 KECCAK256 DUP5 DUP5 MSTORE SWAP1 SWAP2 MSTORE SWAP1 KECCAK256 SLOAD DUP2 EQ PUSH2 0x4E1 JUMPI PUSH1 0x40 MLOAD PUSH3 0x461BCD PUSH1 0xE5 SHL DUP2 MSTORE PUSH1 0x20 PUSH1 0x4 DUP3 ADD MSTORE PUSH1 0x4A PUSH1 0x24 DUP3 ADD MSTORE PUSH32 0x4C6F676963206572726F7220696E2074686520636F6E74726163742C2067656E PUSH1 0x44 DUP3 ADD MSTORE PUSH32 0x6572617465642066696C6520696420646F6573206E6F74206D6174636820696E PUSH1 0x64 DUP3 ADD MSTORE PUSH10 0x20737472756374757265 PUSH1 0xB0 SHL PUSH1 0x84 DUP3 ADD MSTORE PUSH1 0xA4 ADD PUSH2 0x41A JUMP JUMPDEST DUP1 DUP3 MSTORE PUSH1 0x1 PUSH1 0x1 PUSH1 0xA0 SHL SUB DUP5 AND PUSH1 0x0 SWAP1 DUP2 MSTORE PUSH1 0x4 PUSH1 0x20 DUP2 DUP2 MSTORE PUSH1 0x40 DUP1 DUP5 KECCAK256 DUP6 DUP6 MSTORE DUP1 DUP4 MSTORE DUP2 DUP6 KECCAK256 PUSH1 0x2 DUP2 ADD SLOAD DUP5 DUP10 ADD MSTORE PUSH1 0x3 DUP2 ADD SLOAD SWAP3 DUP9 ADD SWAP3 SWAP1 SWAP3 MSTORE SWAP3 DUP2 ADD SLOAD PUSH1 0x60 DUP8 ADD MSTORE PUSH1 0x5 DUP2 ADD SLOAD PUSH1 0x80 DUP8 ADD MSTORE PUSH1 0x6 DUP2 ADD SLOAD PUSH1 0xA0 DUP8 ADD MSTORE PUSH1 0x7 DUP2 ADD SLOAD PUSH1 0xC0 DUP8 ADD MSTORE PUSH1 0x8 DUP2 ADD SLOAD PUSH1 0xE0 DUP8 ADD MSTORE PUSH1 0x9 DUP2 ADD SLOAD PUSH2 0x100 DUP8 ADD MSTORE PUSH1 0xA DUP2 ADD SLOAD PUSH2 0x120 DUP8 ADD MSTORE PUSH1 0xB DUP2 ADD SLOAD PUSH2 0x140 DUP8 ADD MSTORE PUSH1 0xC DUP2 ADD SLOAD PUSH2 0x160 DUP8 ADD MSTORE PUSH1 0xD DUP2 ADD SLOAD PUSH2 0x180 DUP8 ADD MSTORE PUSH1 0xE DUP2 ADD SLOAD PUSH2 0x1A0 DUP8 ADD MSTORE PUSH1 0xF DUP2 ADD SLOAD PUSH2 0x1C0 DUP8 ADD MSTORE PUSH1 0x10 DUP2 ADD SLOAD PUSH2 0x1E0 DUP8 ADD MSTORE PUSH1 0x11 DUP2 ADD SLOAD PUSH2 0x200 DUP8 ADD MSTORE PUSH1 0x1C DUP2 ADD SLOAD PUSH2 0x220 DUP8 ADD MSTORE SWAP4 SWAP1 SWAP3 MSTORE SWAP1 MSTORE PUSH1 0x1D ADD SLOAD PUSH2 0x240 DUP3 ADD MSTORE JUMPDEST SWAP3 SWAP2 POP POP JUMP JUMPDEST PUSH1 0x1 PUSH1 0x1 PUSH1 0xA0 SHL SUB DUP2 AND PUSH1 0x0 SWAP1 DUP2 MSTORE PUSH1 0x1 PUSH1 0x20 MSTORE PUSH1 0x40 DUP2 KECCAK256 SLOAD PUSH1 0x60 SWAP2 DUP2 PUSH1 0x1 PUSH1 0x1 PUSH1 0x40 SHL SUB DUP2 GT ISZERO PUSH2 0x607 JUMPI PUSH2 0x607 PUSH2 0x3563 JUMP JUMPDEST PUSH1 0x40 MLOAD SWAP1 DUP1 DUP3 MSTORE DUP1 PUSH1 0x20 MUL PUSH1 0x20 ADD DUP3 ADD PUSH1 0x40 MSTORE DUP1 ISZERO PUSH2 0x630 JUMPI DUP2 PUSH1 0x20 ADD PUSH1 0x20 DUP3 MUL DUP1 CALLDATASIZE DUP4 CALLDATACOPY ADD SWAP1 POP JUMPDEST POP SWAP1 POP PUSH1 0x0 JUMPDEST DUP3 DUP2 LT ISZERO PUSH2 0x69F JUMPI PUSH1 0x1 PUSH1 0x1 PUSH1 0xA0 SHL SUB DUP6 AND PUSH1 0x0 SWAP1 DUP2 MSTORE PUSH1 0x1 PUSH1 0x20 MSTORE PUSH1 0x40 SWAP1 KECCAK256 DUP1 SLOAD DUP3 SWAP1 DUP2 LT PUSH2 0x668 JUMPI PUSH2 0x668 PUSH2 0x39E8 JUMP JUMPDEST SWAP1 PUSH1 0x0 MSTORE PUSH1 0x20 PUSH1 0x0 KECCAK256 SWAP1 PUSH1 0x2 MUL ADD PUSH1 0x1 ADD SLOAD DUP3 DUP3 DUP2 MLOAD DUP2 LT PUSH2 0x68C JUMPI PUSH2 0x68C PUSH2 0x39E8 JUMP JUMPDEST PUSH1 0x20 SWAP1 DUP2 MUL SWAP2 SWAP1 SWAP2 ADD ADD MSTORE PUSH1 0x1 ADD PUSH2 0x636 JUMP JUMPDEST POP SWAP4 SWAP3 POP POP POP JUMP JUMPDEST PUSH1 0x60 PUSH1 0x1 PUSH1 0x2 ADD DUP1 SLOAD DUP1 PUSH1 0x20 MUL PUSH1 0x20 ADD PUSH1 0x40 MLOAD SWAP1 DUP2 ADD PUSH1 0x40 MSTORE DUP1 SWAP3 SWAP2 SWAP1 DUP2 DUP2 MSTORE PUSH1 0x20 ADD DUP3 DUP1 SLOAD DUP1 ISZERO PUSH2 0x702 JUMPI PUSH1 0x20 MUL DUP3 ADD SWAP2 SWAP1 PUSH1 0x0 MSTORE PUSH1 0x20 PUSH1 0x0 KECCAK256 SWAP1 JUMPDEST DUP2 SLOAD PUSH1 0x1 PUSH1 0x1 PUSH1 0xA0 SHL SUB AND DUP2 MSTORE PUSH1 0x1 SWAP1 SWAP2 ADD SWAP1 PUSH1 0x20 ADD DUP1 DUP4 GT PUSH2 0x6E4 JUMPI JUMPDEST POP POP POP POP POP SWAP1 POP SWAP1 JUMP JUMPDEST PUSH1 0x1 PUSH1 0x1 PUSH1 0xA0 SHL SUB DUP8 AND PUSH1 0x0 SWAP1 DUP2 MSTORE PUSH1 0x2 PUSH1 0x20 SWAP1 DUP2 MSTORE PUSH1 0x40 DUP1 DUP4 KECCAK256 DUP13 DUP5 MSTORE SWAP1 SWAP2 MSTORE SWAP1 KECCAK256 SLOAD PUSH1 0xFF AND ISZERO ISZERO PUSH1 0x1 EQ PUSH2 0x79D JUMPI PUSH1 0x40 MLOAD PUSH3 0x461BCD PUSH1 0xE5 SHL DUP2 MSTORE PUSH1 0x20 PUSH1 0x4 DUP3 ADD MSTORE PUSH1 0x30 PUSH1 0x24 DUP3 ADD MSTORE PUSH32 0x556E6B6E6F776E20726571756573745F6964207761732070617373656420666F PUSH1 0x44 DUP3 ADD MSTORE PUSH16 0x39103A34329033B4BB32B7103AB9B2B9 PUSH1 0x81 SHL PUSH1 0x64 DUP3 ADD MSTORE PUSH1 0x84 ADD PUSH2 0x41A JUMP JUMPDEST PUSH1 0x0 PUSH1 0x40 MLOAD DUP1 PUSH2 0x200 ADD PUSH1 0x40 MSTORE DUP1 DUP9 PUSH1 0x0 DUP2 MLOAD DUP2 LT PUSH2 0x7BE JUMPI PUSH2 0x7BE PUSH2 0x39E8 JUMP JUMPDEST PUSH1 0x20 MUL PUSH1 0x20 ADD ADD MLOAD DUP2 MSTORE PUSH1 0x20 ADD DUP9 PUSH1 0x1 DUP2 MLOAD DUP2 LT PUSH2 0x7DE JUMPI PUSH2 0x7DE PUSH2 0x39E8 JUMP JUMPDEST PUSH1 0x20 MUL PUSH1 0x20 ADD ADD MLOAD DUP2 MSTORE PUSH1 0x20 ADD DUP9 PUSH1 0x2 DUP2 MLOAD DUP2 LT PUSH2 0x7FE JUMPI PUSH2 0x7FE PUSH2 0x39E8 JUMP JUMPDEST PUSH1 0x20 MUL PUSH1 0x20 ADD ADD MLOAD DUP2 MSTORE PUSH1 0x20 ADD DUP9 PUSH1 0x3 DUP2 MLOAD DUP2 LT PUSH2 0x81E JUMPI PUSH2 0x81E PUSH2 0x39E8 JUMP JUMPDEST PUSH1 0x20 MUL PUSH1 0x20 ADD ADD MLOAD DUP2 MSTORE PUSH1 0x20 ADD DUP8 PUSH1 0x0 DUP2 MLOAD DUP2 LT PUSH2 0x83E JUMPI PUSH2 0x83E PUSH2 0x39E8 JUMP JUMPDEST PUSH1 0x20 MUL PUSH1 0x20 ADD ADD MLOAD DUP2 MSTORE PUSH1 0x20 ADD DUP8 PUSH1 0x1 DUP2 MLOAD DUP2 LT PUSH2 0x85E JUMPI PUSH2 0x85E PUSH2 0x39E8 JUMP JUMPDEST PUSH1 0x20 MUL PUSH1 0x20 ADD ADD MLOAD DUP2 MSTORE PUSH1 0x20 ADD DUP7 PUSH1 0x0 DUP2 MLOAD DUP2 LT PUSH2 0x87E JUMPI PUSH2 0x87E PUSH2 0x39E8 JUMP JUMPDEST PUSH1 0x20 MUL PUSH1 0x20 ADD ADD MLOAD DUP2 MSTORE PUSH1 0x20 ADD DUP7 PUSH1 0x1 DUP2 MLOAD DUP2 LT PUSH2 0x89E JUMPI PUSH2 0x89E PUSH2 0x39E8 JUMP JUMPDEST PUSH1 0x20 MUL PUSH1 0x20 ADD ADD MLOAD DUP2 MSTORE PUSH1 0x20 ADD DUP7 PUSH1 0x2 DUP2 MLOAD DUP2 LT PUSH2 0x8BE JUMPI PUSH2 0x8BE PUSH2 0x39E8 JUMP JUMPDEST PUSH1 0x20 MUL PUSH1 0x20 ADD ADD MLOAD DUP2 MSTORE PUSH1 0x20 ADD DUP7 PUSH1 0x3 DUP2 MLOAD DUP2 LT PUSH2 0x8DE JUMPI PUSH2 0x8DE PUSH2 0x39E8 JUMP JUMPDEST PUSH1 0x20 MUL PUSH1 0x20 ADD ADD MLOAD DUP2 MSTORE PUSH1 0x20 ADD DUP6 PUSH1 0x0 DUP2 MLOAD DUP2 LT PUSH2 0x8FE JUMPI PUSH2 0x8FE PUSH2 0x39E8 JUMP JUMPDEST PUSH1 0x20 MUL PUSH1 0x20 ADD ADD MLOAD DUP2 MSTORE PUSH1 0x20 ADD DUP6 PUSH1 0x1 DUP2 MLOAD DUP2 LT PUSH2 0x91E JUMPI PUSH2 0x91E PUSH2 0x39E8 JUMP JUMPDEST PUSH1 0x20 MUL PUSH1 0x20 ADD ADD MLOAD DUP2 MSTORE PUSH1 0x20 ADD DUP6 PUSH1 0x2 DUP2 MLOAD DUP2 LT PUSH2 0x93E JUMPI PUSH2 0x93E PUSH2 0x39E8 JUMP JUMPDEST PUSH1 0x20 MUL PUSH1 0x20 ADD ADD MLOAD DUP2 MSTORE PUSH1 0x20 ADD DUP6 PUSH1 0x3 DUP2 MLOAD DUP2 LT PUSH2 0x95E JUMPI PUSH2 0x95E PUSH2 0x39E8 JUMP JUMPDEST PUSH1 0x20 MUL PUSH1 0x20 ADD ADD MLOAD DUP2 MSTORE PUSH1 0x20 ADD DUP6 PUSH1 0x4 DUP2 MLOAD DUP2 LT PUSH2 0x97E JUMPI PUSH2 0x97E PUSH2 0x39E8 JUMP JUMPDEST PUSH1 0x20 MUL PUSH1 0x20 ADD ADD MLOAD DUP2 MSTORE PUSH1 0x20 ADD DUP6 PUSH1 0x5 DUP2 MLOAD DUP2 LT PUSH2 0x99E JUMPI PUSH2 0x99E PUSH2 0x39E8 JUMP JUMPDEST PUSH1 0x20 MUL PUSH1 0x20 ADD ADD MLOAD DUP2 MSTORE POP SWAP1 POP PUSH1 0x0 PUSH1 0x40 MLOAD DUP1 PUSH2 0x140 ADD PUSH1 0x40 MSTORE DUP1 DUP6 PUSH1 0x0 DUP2 MLOAD DUP2 LT PUSH2 0x9CC JUMPI PUSH2 0x9CC PUSH2 0x39E8 JUMP JUMPDEST PUSH1 0x20 MUL PUSH1 0x20 ADD ADD MLOAD DUP2 MSTORE PUSH1 0x20 ADD DUP6 PUSH1 0x1 DUP2 MLOAD DUP2 LT PUSH2 0x9EC JUMPI PUSH2 0x9EC PUSH2 0x39E8 JUMP JUMPDEST PUSH1 0x20 MUL PUSH1 0x20 ADD ADD MLOAD DUP2 MSTORE PUSH1 0x20 ADD DUP6 PUSH1 0x2 DUP2 MLOAD DUP2 LT PUSH2 0xA0C JUMPI PUSH2 0xA0C PUSH2 0x39E8 JUMP JUMPDEST PUSH1 0x20 MUL PUSH1 0x20 ADD ADD MLOAD DUP2 MSTORE PUSH1 0x20 ADD DUP6 PUSH1 0x3 DUP2 MLOAD DUP2 LT PUSH2 0xA2C JUMPI PUSH2 0xA2C PUSH2 0x39E8 JUMP JUMPDEST PUSH1 0x20 MUL PUSH1 0x20 ADD ADD MLOAD DUP2 MSTORE PUSH1 0x20 ADD DUP6 PUSH1 0x4 DUP2 MLOAD DUP2 LT PUSH2 0xA4C JUMPI PUSH2 0xA4C PUSH2 0x39E8 JUMP JUMPDEST PUSH1 0x20 MUL PUSH1 0x20 ADD ADD MLOAD DUP2 MSTORE PUSH1 0x20 ADD DUP6 PUSH1 0x5 DUP2 MLOAD DUP2 LT PUSH2 0xA6C JUMPI PUSH2 0xA6C PUSH2 0x39E8 JUMP JUMPDEST PUSH1 0x20 MUL PUSH1 0x20 ADD ADD MLOAD DUP2 MSTORE PUSH1 0x20 ADD DUP6 PUSH1 0x6 DUP2 MLOAD DUP2 LT PUSH2 0xA8C JUMPI PUSH2 0xA8C PUSH2 0x39E8 JUMP JUMPDEST PUSH1 0x20 MUL PUSH1 0x20 ADD ADD MLOAD DUP2 MSTORE PUSH1 0x20 ADD DUP6 PUSH1 0x7 DUP2 MLOAD DUP2 LT PUSH2 0xAAC JUMPI PUSH2 0xAAC PUSH2 0x39E8 JUMP JUMPDEST PUSH1 0x20 MUL PUSH1 0x20 ADD ADD MLOAD DUP2 MSTORE PUSH1 0x20 ADD DUP6 PUSH1 0x8 DUP2 MLOAD DUP2 LT PUSH2 0xACC JUMPI PUSH2 0xACC PUSH2 0x39E8 JUMP JUMPDEST PUSH1 0x20 MUL PUSH1 0x20 ADD ADD MLOAD DUP2 MSTORE PUSH1 0x20 ADD DUP6 PUSH1 0x9 DUP2 MLOAD DUP2 LT PUSH2 0xAEC JUMPI PUSH2 0xAEC PUSH2 0x39E8 JUMP JUMPDEST PUSH1 0x20 MUL PUSH1 0x20 ADD ADD MLOAD DUP2 MSTORE POP SWAP1 POP PUSH1 0x0 PUSH1 0x40 MLOAD DUP1 PUSH1 0x40 ADD PUSH1 0x40 MSTORE DUP1 DUP6 PUSH1 0x0 DUP2 MLOAD DUP2 LT PUSH2 0xB19 JUMPI PUSH2 0xB19 PUSH2 0x39E8 JUMP JUMPDEST PUSH1 0x20 MUL PUSH1 0x20 ADD ADD MLOAD DUP2 MSTORE PUSH1 0x20 ADD DUP6 PUSH1 0x1 DUP2 MLOAD DUP2 LT PUSH2 0xB39 JUMPI PUSH2 0xB39 PUSH2 0x39E8 JUMP JUMPDEST PUSH1 0x20 MUL PUSH1 0x20 ADD ADD MLOAD DUP2 MSTORE POP SWAP1 POP PUSH1 0x0 PUSH1 0x40 MLOAD DUP1 PUSH1 0xA0 ADD PUSH1 0x40 MSTORE DUP1 DUP14 DUP2 MSTORE PUSH1 0x20 ADD DUP13 PUSH1 0x1 PUSH1 0x1 PUSH1 0xA0 SHL SUB AND DUP2 MSTORE PUSH1 0x20 ADD DUP6 DUP2 MSTORE PUSH1 0x20 ADD DUP5 DUP2 MSTORE PUSH1 0x20 ADD DUP4 DUP2 MSTORE POP SWAP1 POP DUP1 PUSH1 0x4 PUSH1 0x0 ADD PUSH1 0x0 DUP14 PUSH1 0x1 PUSH1 0x1 PUSH1 0xA0 SHL SUB AND PUSH1 0x1 PUSH1 0x1 PUSH1 0xA0 SHL SUB AND DUP2 MSTORE PUSH1 0x20 ADD SWAP1 DUP2 MSTORE PUSH1 0x20 ADD PUSH1 0x0 KECCAK256 PUSH1 0x0 DUP15 DUP2 MSTORE PUSH1 0x20 ADD SWAP1 DUP2 MSTORE PUSH1 0x20 ADD PUSH1 0x0 KECCAK256 PUSH1 0x0 DUP3 ADD MLOAD DUP2 PUSH1 0x0 ADD SSTORE PUSH1 0x20 DUP3 ADD MLOAD DUP2 PUSH1 0x1 ADD PUSH1 0x0 PUSH2 0x100 EXP DUP2 SLOAD DUP2 PUSH1 0x1 PUSH1 0x1 PUSH1 0xA0 SHL SUB MUL NOT AND SWAP1 DUP4 PUSH1 0x1 PUSH1 0x1 PUSH1 0xA0 SHL SUB AND MUL OR SWAP1 SSTORE POP PUSH1 0x40 DUP3 ADD MLOAD DUP2 PUSH1 0x2 ADD PUSH1 0x0 DUP3 ADD MLOAD DUP2 PUSH1 0x0 ADD SSTORE PUSH1 0x20 DUP3 ADD MLOAD DUP2 PUSH1 0x1 ADD SSTORE PUSH1 0x40 DUP3 ADD MLOAD DUP2 PUSH1 0x2 ADD SSTORE PUSH1 0x60 DUP3 ADD MLOAD DUP2 PUSH1 0x3 ADD SSTORE PUSH1 0x80 DUP3 ADD MLOAD DUP2 PUSH1 0x4 ADD SSTORE PUSH1 0xA0 DUP3 ADD MLOAD DUP2 PUSH1 0x5 ADD SSTORE PUSH1 0xC0 DUP3 ADD MLOAD DUP2 PUSH1 0x6 ADD SSTORE PUSH1 0xE0 DUP3 ADD MLOAD DUP2 PUSH1 0x7 ADD SSTORE PUSH2 0x100 DUP3 ADD MLOAD DUP2 PUSH1 0x8 ADD SSTORE PUSH2 0x120 DUP3 ADD MLOAD DUP2 PUSH1 0x9 ADD SSTORE PUSH2 0x140 DUP3 ADD MLOAD DUP2 PUSH1 0xA ADD SSTORE PUSH2 0x160 DUP3 ADD MLOAD DUP2 PUSH1 0xB ADD SSTORE PUSH2 0x180 DUP3 ADD MLOAD DUP2 PUSH1 0xC ADD SSTORE PUSH2 0x1A0 DUP3 ADD MLOAD DUP2 PUSH1 0xD ADD SSTORE PUSH2 0x1C0 DUP3 ADD MLOAD DUP2 PUSH1 0xE ADD SSTORE PUSH2 0x1E0 DUP3 ADD MLOAD DUP2 PUSH1 0xF ADD SSTORE POP POP PUSH1 0x60 DUP3 ADD MLOAD DUP2 PUSH1 0x12 ADD PUSH1 0x0 DUP3 ADD MLOAD DUP2 PUSH1 0x0 ADD SSTORE PUSH1 0x20 DUP3 ADD MLOAD DUP2 PUSH1 0x1 ADD SSTORE PUSH1 0x40 DUP3 ADD MLOAD DUP2 PUSH1 0x2 ADD SSTORE PUSH1 0x60 DUP3 ADD MLOAD DUP2 PUSH1 0x3 ADD SSTORE PUSH1 0x80 DUP3 ADD MLOAD DUP2 PUSH1 0x4 ADD SSTORE PUSH1 0xA0 DUP3 ADD MLOAD DUP2 PUSH1 0x5 ADD SSTORE PUSH1 0xC0 DUP3 ADD MLOAD DUP2 PUSH1 0x6 ADD SSTORE PUSH1 0xE0 DUP3 ADD MLOAD DUP2 PUSH1 0x7 ADD SSTORE PUSH2 0x100 DUP3 ADD MLOAD DUP2 PUSH1 0x8 ADD SSTORE PUSH2 0x120 DUP3 ADD MLOAD DUP2 PUSH1 0x9 ADD SSTORE POP POP PUSH1 0x80 DUP3 ADD MLOAD DUP2 PUSH1 0x1C ADD PUSH1 0x0 DUP3 ADD MLOAD DUP2 PUSH1 0x0 ADD SSTORE PUSH1 0x20 DUP3 ADD MLOAD DUP2 PUSH1 0x1 ADD SSTORE POP POP SWAP1 POP POP DUP12 PUSH1 0x4 PUSH1 0x1 ADD PUSH1 0x0 DUP14 PUSH1 0x1 PUSH1 0x1 PUSH1 0xA0 SHL SUB AND PUSH1 0x1 PUSH1 0x1 PUSH1 0xA0 SHL SUB AND DUP2 MSTORE PUSH1 0x20 ADD SWAP1 DUP2 MSTORE PUSH1 0x20 ADD PUSH1 0x0 KECCAK256 PUSH1 0x0 DUP16 DUP2 MSTORE PUSH1 0x20 ADD SWAP1 DUP2 MSTORE PUSH1 0x20 ADD PUSH1 0x0 KECCAK256 DUP2 SWAP1 SSTORE POP DUP13 PUSH1 0x4 PUSH1 0x2 ADD PUSH1 0x0 DUP14 PUSH1 0x1 PUSH1 0x1 PUSH1 0xA0 SHL SUB AND PUSH1 0x1 PUSH1 0x1 PUSH1 0xA0 SHL SUB AND DUP2 MSTORE PUSH1 0x20 ADD SWAP1 DUP2 MSTORE PUSH1 0x20 ADD PUSH1 0x0 KECCAK256 PUSH1 0x0 DUP15 DUP2 MSTORE PUSH1 0x20 ADD SWAP1 DUP2 MSTORE PUSH1 0x20 ADD PUSH1 0x0 KECCAK256 DUP2 SWAP1 SSTORE POP PUSH1 0x1 PUSH1 0x4 PUSH1 0x3 ADD PUSH1 0x0 DUP14 PUSH1 0x1 PUSH1 0x1 PUSH1 0xA0 SHL SUB AND PUSH1 0x1 PUSH1 0x1 PUSH1 0xA0 SHL SUB AND DUP2 MSTORE PUSH1 0x20 ADD SWAP1 DUP2 MSTORE PUSH1 0x20 ADD PUSH1 0x0 KECCAK256 PUSH1 0x0 DUP16 DUP2 MSTORE PUSH1 0x20 ADD SWAP1 DUP2 MSTORE PUSH1 0x20 ADD PUSH1 0x0 KECCAK256 PUSH1 0x0 PUSH2 0x100 EXP DUP2 SLOAD DUP2 PUSH1 0xFF MUL NOT AND SWAP1 DUP4 ISZERO ISZERO MUL OR SWAP1 SSTORE POP PUSH1 0x4 DUP1 ADD PUSH1 0x0 DUP13 PUSH1 0x1 PUSH1 0x1 PUSH1 0xA0 SHL SUB AND PUSH1 0x1 PUSH1 0x1 PUSH1 0xA0 SHL SUB AND DUP2 MSTORE PUSH1 0x20 ADD SWAP1 DUP2 MSTORE PUSH1 0x20 ADD PUSH1 0x0 KECCAK256 DUP14 SWAP1 DUP1 PUSH1 0x1 DUP2 SLOAD ADD DUP1 DUP3 SSTORE DUP1 SWAP2 POP POP PUSH1 0x1 SWAP1 SUB SWAP1 PUSH1 0x0 MSTORE PUSH1 0x20 PUSH1 0x0 KECCAK256 ADD PUSH1 0x0 SWAP1 SWAP2 SWAP1 SWAP2 SWAP1 SWAP2 POP SSTORE PUSH2 0xE57 DUP14 DUP13 PUSH2 0x2955 JUMP JUMPDEST POP POP POP POP POP POP POP POP POP POP POP POP POP JUMP JUMPDEST PUSH1 0x40 DUP1 MLOAD DUP1 DUP3 ADD DUP3 MSTORE PUSH1 0x1 PUSH1 0x1 PUSH1 0xA0 SHL SUB DUP5 AND DUP2 MSTORE PUSH1 0x20 DUP1 DUP3 ADD DUP5 SWAP1 MSTORE PUSH1 0x0 DUP5 DUP2 MSTORE SWAP1 DUP2 SWAP1 MSTORE SWAP2 SWAP1 SWAP2 KECCAK256 SLOAD PUSH1 0xFF AND ISZERO PUSH2 0xEE1 JUMPI PUSH1 0x40 MLOAD PUSH3 0x461BCD PUSH1 0xE5 SHL DUP2 MSTORE PUSH1 0x20 PUSH1 0x4 DUP3 ADD MSTORE PUSH1 0x17 PUSH1 0x24 DUP3 ADD MSTORE PUSH32 0x5265717565737420494420616C72656164792075736564000000000000000000 PUSH1 0x44 DUP3 ADD MSTORE PUSH1 0x64 ADD PUSH2 0x41A JUMP JUMPDEST PUSH1 0x1 PUSH1 0x1 PUSH1 0xA0 SHL SUB DUP4 AND PUSH1 0x0 SWAP1 DUP2 MSTORE PUSH1 0x2 PUSH1 0x20 SWAP1 DUP2 MSTORE PUSH1 0x40 DUP1 DUP4 KECCAK256 DUP6 DUP5 MSTORE SWAP1 SWAP2 MSTORE SWAP1 KECCAK256 SLOAD PUSH1 0xFF AND ISZERO PUSH2 0xF64 JUMPI PUSH1 0x40 MLOAD PUSH3 0x461BCD PUSH1 0xE5 SHL DUP2 MSTORE PUSH1 0x20 PUSH1 0x4 DUP3 ADD MSTORE PUSH1 0x26 PUSH1 0x24 DUP3 ADD MSTORE PUSH32 0x5265717565737420494420696E20757365206279207573657220616C72656164 PUSH1 0x44 DUP3 ADD MSTORE PUSH6 0x1E481D5CD959 PUSH1 0xD2 SHL PUSH1 0x64 DUP3 ADD MSTORE PUSH1 0x84 ADD PUSH2 0x41A JUMP JUMPDEST PUSH1 0x1 PUSH1 0x1 PUSH1 0xA0 SHL SUB DUP4 AND PUSH1 0x0 SWAP1 DUP2 MSTORE PUSH1 0x1 PUSH1 0x20 MSTORE PUSH1 0x40 DUP2 KECCAK256 SLOAD SWAP1 SUB PUSH2 0xFCF JUMPI PUSH1 0x3 DUP1 SLOAD PUSH1 0x1 DUP2 ADD DUP3 SSTORE PUSH1 0x0 SWAP2 SWAP1 SWAP2 MSTORE PUSH32 0xC2575A0E9E593C00F959F8C92F12DB2869C3395A3B0502D05E2516446F71F85B ADD DUP1 SLOAD PUSH1 0x1 PUSH1 0x1 PUSH1 0xA0 SHL SUB NOT AND PUSH1 0x1 PUSH1 0x1 PUSH1 0xA0 SHL SUB DUP6 AND OR SWAP1 SSTORE JUMPDEST PUSH1 0x1 PUSH1 0x1 PUSH1 0xA0 SHL SUB SWAP3 DUP4 AND PUSH1 0x0 DUP2 DUP2 MSTORE PUSH1 0x1 PUSH1 0x20 DUP2 DUP2 MSTORE PUSH1 0x40 DUP1 DUP5 KECCAK256 DUP1 SLOAD DUP1 DUP6 ADD DUP3 SSTORE SWAP1 DUP6 MSTORE DUP3 DUP6 KECCAK256 DUP8 MLOAD PUSH1 0x2 SWAP3 DUP4 MUL SWAP1 SWAP2 ADD DUP1 SLOAD PUSH1 0x1 PUSH1 0x1 PUSH1 0xA0 SHL SUB NOT AND SWAP2 SWAP1 SWAP11 AND OR DUP10 SSTORE SWAP6 DUP3 ADD MLOAD SWAP8 DUP4 ADD SWAP8 SWAP1 SWAP8 SSTORE SWAP3 DUP3 MSTORE SWAP3 DUP3 MSTORE DUP5 DUP2 KECCAK256 SWAP4 DUP2 MSTORE SWAP3 DUP2 MSTORE DUP4 DUP4 KECCAK256 DUP1 SLOAD PUSH1 0xFF NOT SWAP1 DUP2 AND DUP5 OR SWAP1 SWAP2 SSTORE SWAP1 DUP4 SWAP1 MSTORE SWAP3 SWAP1 SWAP2 KECCAK256 DUP1 SLOAD SWAP1 SWAP3 AND OR SWAP1 SSTORE JUMP JUMPDEST PUSH1 0x1 PUSH1 0x1 PUSH1 0xA0 SHL SUB DUP2 AND PUSH1 0x0 SWAP1 DUP2 MSTORE PUSH1 0x8 PUSH1 0x20 SWAP1 DUP2 MSTORE PUSH1 0x40 SWAP2 DUP3 SWAP1 KECCAK256 DUP1 SLOAD DUP4 MLOAD DUP2 DUP5 MUL DUP2 ADD DUP5 ADD SWAP1 SWAP5 MSTORE DUP1 DUP5 MSTORE PUSH1 0x60 SWAP4 SWAP3 DUP4 ADD DUP3 DUP3 DUP1 ISZERO PUSH2 0x10B1 JUMPI PUSH1 0x20 MUL DUP3 ADD SWAP2 SWAP1 PUSH1 0x0 MSTORE PUSH1 0x20 PUSH1 0x0 KECCAK256 SWAP1 JUMPDEST DUP2 SLOAD DUP2 MSTORE PUSH1 0x20 ADD SWAP1 PUSH1 0x1 ADD SWAP1 DUP1 DUP4 GT PUSH2 0x109D JUMPI JUMPDEST POP POP POP POP POP SWAP1 POP SWAP2 SWAP1 POP JUMP JUMPDEST PUSH1 0xC SLOAD PUSH1 0x60 SWAP1 DUP2 SWAP1 DUP2 SWAP1 DUP2 SWAP1 PUSH1 0x0 DUP2 PUSH1 0x1 PUSH1 0x1 PUSH1 0x40 SHL SUB DUP2 GT ISZERO PUSH2 0x10E3 JUMPI PUSH2 0x10E3 PUSH2 0x3563 JUMP JUMPDEST PUSH1 0x40 MLOAD SWAP1 DUP1 DUP3 MSTORE DUP1 PUSH1 0x20 MUL PUSH1 0x20 ADD DUP3 ADD PUSH1 0x40 MSTORE DUP1 ISZERO PUSH2 0x110C JUMPI DUP2 PUSH1 0x20 ADD PUSH1 0x20 DUP3 MUL DUP1 CALLDATASIZE DUP4 CALLDATACOPY ADD SWAP1 POP JUMPDEST POP SWAP1 POP PUSH1 0x0 DUP3 PUSH1 0x1 PUSH1 0x1 PUSH1 0x40 SHL SUB DUP2 GT ISZERO PUSH2 0x1129 JUMPI PUSH2 0x1129 PUSH2 0x3563 JUMP JUMPDEST PUSH1 0x40 MLOAD SWAP1 DUP1 DUP3 MSTORE DUP1 PUSH1 0x20 MUL PUSH1 0x20 ADD DUP3 ADD PUSH1 0x40 MSTORE DUP1 ISZERO PUSH2 0x1152 JUMPI DUP2 PUSH1 0x20 ADD PUSH1 0x20 DUP3 MUL DUP1 CALLDATASIZE DUP4 CALLDATACOPY ADD SWAP1 POP JUMPDEST POP SWAP1 POP PUSH1 0x0 DUP4 PUSH1 0x1 PUSH1 0x1 PUSH1 0x40 SHL SUB DUP2 GT ISZERO PUSH2 0x116F JUMPI PUSH2 0x116F PUSH2 0x3563 JUMP JUMPDEST PUSH1 0x40 MLOAD SWAP1 DUP1 DUP3 MSTORE DUP1 PUSH1 0x20 MUL PUSH1 0x20 ADD DUP3 ADD PUSH1 0x40 MSTORE DUP1 ISZERO PUSH2 0x1198 JUMPI DUP2 PUSH1 0x20 ADD PUSH1 0x20 DUP3 MUL DUP1 CALLDATASIZE DUP4 CALLDATACOPY ADD SWAP1 POP JUMPDEST POP SWAP1 POP PUSH1 0x0 PUSH2 0x11A8 DUP6 PUSH1 0xA PUSH2 0x3A14 JUMP JUMPDEST PUSH1 0x1 PUSH1 0x1 PUSH1 0x40 SHL SUB DUP2 GT ISZERO PUSH2 0x11BF JUMPI PUSH2 0x11BF PUSH2 0x3563 JUMP JUMPDEST PUSH1 0x40 MLOAD SWAP1 DUP1 DUP3 MSTORE DUP1 PUSH1 0x20 MUL PUSH1 0x20 ADD DUP3 ADD PUSH1 0x40 MSTORE DUP1 ISZERO PUSH2 0x11E8 JUMPI DUP2 PUSH1 0x20 ADD PUSH1 0x20 DUP3 MUL DUP1 CALLDATASIZE DUP4 CALLDATACOPY ADD SWAP1 POP JUMPDEST POP SWAP1 POP PUSH1 0x0 JUMPDEST DUP6 DUP2 LT ISZERO PUSH2 0x1688 JUMPI PUSH1 0xC DUP1 SLOAD DUP3 SWAP1 DUP2 LT PUSH2 0x120A JUMPI PUSH2 0x120A PUSH2 0x39E8 JUMP JUMPDEST SWAP1 PUSH1 0x0 MSTORE PUSH1 0x20 PUSH1 0x0 KECCAK256 SWAP1 PUSH1 0xD MUL ADD PUSH1 0x2 ADD PUSH1 0x0 SWAP1 SLOAD SWAP1 PUSH2 0x100 EXP SWAP1 DIV PUSH1 0x1 PUSH1 0x1 PUSH1 0xA0 SHL SUB AND DUP6 DUP3 DUP2 MLOAD DUP2 LT PUSH2 0x1241 JUMPI PUSH2 0x1241 PUSH2 0x39E8 JUMP JUMPDEST PUSH1 0x1 PUSH1 0x1 PUSH1 0xA0 SHL SUB SWAP1 SWAP3 AND PUSH1 0x20 SWAP3 DUP4 MUL SWAP2 SWAP1 SWAP2 ADD SWAP1 SWAP2 ADD MSTORE PUSH1 0xC DUP1 SLOAD DUP3 SWAP1 DUP2 LT PUSH2 0x126D JUMPI PUSH2 0x126D PUSH2 0x39E8 JUMP JUMPDEST PUSH1 0x0 SWAP2 DUP3 MSTORE PUSH1 0x20 SWAP1 SWAP2 KECCAK256 PUSH1 0xD SWAP1 SWAP2 MUL ADD SLOAD DUP5 MLOAD PUSH1 0x1 PUSH1 0x1 PUSH1 0xA0 SHL SUB SWAP1 SWAP2 AND SWAP1 DUP6 SWAP1 DUP4 SWAP1 DUP2 LT PUSH2 0x129E JUMPI PUSH2 0x129E PUSH2 0x39E8 JUMP JUMPDEST PUSH1 0x1 PUSH1 0x1 PUSH1 0xA0 SHL SUB SWAP1 SWAP3 AND PUSH1 0x20 SWAP3 DUP4 MUL SWAP2 SWAP1 SWAP2 ADD SWAP1 SWAP2 ADD MSTORE PUSH1 0xC DUP1 SLOAD DUP3 SWAP1 DUP2 LT PUSH2 0x12CA JUMPI PUSH2 0x12CA PUSH2 0x39E8 JUMP JUMPDEST SWAP1 PUSH1 0x0 MSTORE PUSH1 0x20 PUSH1 0x0 KECCAK256 SWAP1 PUSH1 0xD MUL ADD PUSH1 0x1 ADD SLOAD DUP4 DUP3 DUP2 MLOAD DUP2 LT PUSH2 0x12EE JUMPI PUSH2 0x12EE PUSH2 0x39E8 JUMP JUMPDEST PUSH1 0x20 SWAP1 DUP2 MUL SWAP2 SWAP1 SWAP2 ADD ADD MSTORE PUSH1 0xC DUP1 SLOAD DUP3 SWAP1 DUP2 LT PUSH2 0x130D JUMPI PUSH2 0x130D PUSH2 0x39E8 JUMP JUMPDEST PUSH1 0x0 SWAP2 DUP3 MSTORE PUSH1 0x20 SWAP1 SWAP2 KECCAK256 PUSH1 0x3 PUSH1 0xD SWAP1 SWAP3 MUL ADD ADD SLOAD DUP3 PUSH2 0x132D DUP4 PUSH1 0xA PUSH2 0x3A14 JUMP JUMPDEST PUSH2 0x1338 SWAP1 PUSH1 0x0 PUSH2 0x3A2B JUMP JUMPDEST DUP2 MLOAD DUP2 LT PUSH2 0x1348 JUMPI PUSH2 0x1348 PUSH2 0x39E8 JUMP JUMPDEST PUSH1 0x20 SWAP1 DUP2 MUL SWAP2 SWAP1 SWAP2 ADD ADD MSTORE PUSH1 0xC DUP1 SLOAD DUP3 SWAP1 DUP2 LT PUSH2 0x1367 JUMPI PUSH2 0x1367 PUSH2 0x39E8 JUMP JUMPDEST PUSH1 0x0 SWAP2 DUP3 MSTORE PUSH1 0x20 SWAP1 SWAP2 KECCAK256 PUSH1 0x4 PUSH1 0xD SWAP1 SWAP3 MUL ADD ADD SLOAD DUP3 PUSH2 0x1387 DUP4 PUSH1 0xA PUSH2 0x3A14 JUMP JUMPDEST PUSH2 0x1392 SWAP1 PUSH1 0x1 PUSH2 0x3A2B JUMP JUMPDEST DUP2 MLOAD DUP2 LT PUSH2 0x13A2 JUMPI PUSH2 0x13A2 PUSH2 0x39E8 JUMP JUMPDEST PUSH1 0x20 SWAP1 DUP2 MUL SWAP2 SWAP1 SWAP2 ADD ADD MSTORE PUSH1 0xC DUP1 SLOAD DUP3 SWAP1 DUP2 LT PUSH2 0x13C1 JUMPI PUSH2 0x13C1 PUSH2 0x39E8 JUMP JUMPDEST PUSH1 0x0 SWAP2 DUP3 MSTORE PUSH1 0x20 SWAP1 SWAP2 KECCAK256 PUSH1 0x5 PUSH1 0xD SWAP1 SWAP3 MUL ADD ADD SLOAD DUP3 PUSH2 0x13E1 DUP4 PUSH1 0xA PUSH2 0x3A14 JUMP JUMPDEST PUSH2 0x13EC SWAP1 PUSH1 0x2 PUSH2 0x3A2B JUMP JUMPDEST DUP2 MLOAD DUP2 LT PUSH2 0x13FC JUMPI PUSH2 0x13FC PUSH2 0x39E8 JUMP JUMPDEST PUSH1 0x20 SWAP1 DUP2 MUL SWAP2 SWAP1 SWAP2 ADD ADD MSTORE PUSH1 0xC DUP1 SLOAD DUP3 SWAP1 DUP2 LT PUSH2 0x141B JUMPI PUSH2 0x141B PUSH2 0x39E8 JUMP JUMPDEST PUSH1 0x0 SWAP2 DUP3 MSTORE PUSH1 0x20 SWAP1 SWAP2 KECCAK256 PUSH1 0x6 PUSH1 0xD SWAP1 SWAP3 MUL ADD ADD SLOAD DUP3 PUSH2 0x143B DUP4 PUSH1 0xA PUSH2 0x3A14 JUMP JUMPDEST PUSH2 0x1446 SWAP1 PUSH1 0x3 PUSH2 0x3A2B JUMP JUMPDEST DUP2 MLOAD DUP2 LT PUSH2 0x1456 JUMPI PUSH2 0x1456 PUSH2 0x39E8 JUMP JUMPDEST PUSH1 0x20 SWAP1 DUP2 MUL SWAP2 SWAP1 SWAP2 ADD ADD MSTORE PUSH1 0xC DUP1 SLOAD DUP3 SWAP1 DUP2 LT PUSH2 0x1475 JUMPI PUSH2 0x1475 PUSH2 0x39E8 JUMP JUMPDEST PUSH1 0x0 SWAP2 DUP3 MSTORE PUSH1 0x20 SWAP1 SWAP2 KECCAK256 PUSH1 0x7 PUSH1 0xD SWAP1 SWAP3 MUL ADD ADD SLOAD DUP3 PUSH2 0x1495 DUP4 PUSH1 0xA PUSH2 0x3A14 JUMP JUMPDEST PUSH2 0x14A0 SWAP1 PUSH1 0x4 PUSH2 0x3A2B JUMP JUMPDEST DUP2 MLOAD DUP2 LT PUSH2 0x14B0 JUMPI PUSH2 0x14B0 PUSH2 0x39E8 JUMP JUMPDEST PUSH1 0x20 SWAP1 DUP2 MUL SWAP2 SWAP1 SWAP2 ADD ADD MSTORE PUSH1 0xC DUP1 SLOAD DUP3 SWAP1 DUP2 LT PUSH2 0x14CF JUMPI PUSH2 0x14CF PUSH2 0x39E8 JUMP JUMPDEST PUSH1 0x0 SWAP2 DUP3 MSTORE PUSH1 0x20 SWAP1 SWAP2 KECCAK256 PUSH1 0x8 PUSH1 0xD SWAP1 SWAP3 MUL ADD ADD SLOAD DUP3 PUSH2 0x14EF DUP4 PUSH1 0xA PUSH2 0x3A14 JUMP JUMPDEST PUSH2 0x14FA SWAP1 PUSH1 0x5 PUSH2 0x3A2B JUMP JUMPDEST DUP2 MLOAD DUP2 LT PUSH2 0x150A JUMPI PUSH2 0x150A PUSH2 0x39E8 JUMP JUMPDEST PUSH1 0x20 SWAP1 DUP2 MUL SWAP2 SWAP1 SWAP2 ADD ADD MSTORE PUSH1 0xC DUP1 SLOAD DUP3 SWAP1 DUP2 LT PUSH2 0x1529 JUMPI PUSH2 0x1529 PUSH2 0x39E8 JUMP JUMPDEST PUSH1 0x0 SWAP2 DUP3 MSTORE PUSH1 0x20 SWAP1 SWAP2 KECCAK256 PUSH1 0x9 PUSH1 0xD SWAP1 SWAP3 MUL ADD ADD SLOAD DUP3 PUSH2 0x1549 DUP4 PUSH1 0xA PUSH2 0x3A14 JUMP JUMPDEST PUSH2 0x1554 SWAP1 PUSH1 0x6 PUSH2 0x3A2B JUMP JUMPDEST DUP2 MLOAD DUP2 LT PUSH2 0x1564 JUMPI PUSH2 0x1564 PUSH2 0x39E8 JUMP JUMPDEST PUSH1 0x20 SWAP1 DUP2 MUL SWAP2 SWAP1 SWAP2 ADD ADD MSTORE PUSH1 0xC DUP1 SLOAD DUP3 SWAP1 DUP2 LT PUSH2 0x1583 JUMPI PUSH2 0x1583 PUSH2 0x39E8 JUMP JUMPDEST SWAP1 PUSH1 0x0 MSTORE PUSH1 0x20 PUSH1 0x0 KECCAK256 SWAP1 PUSH1 0xD MUL ADD PUSH1 0x3 ADD PUSH1 0x7 ADD SLOAD DUP3 DUP3 PUSH1 0xA PUSH2 0x15A6 SWAP2 SWAP1 PUSH2 0x3A14 JUMP JUMPDEST PUSH2 0x15B1 SWAP1 PUSH1 0x7 PUSH2 0x3A2B JUMP JUMPDEST DUP2 MLOAD DUP2 LT PUSH2 0x15C1 JUMPI PUSH2 0x15C1 PUSH2 0x39E8 JUMP JUMPDEST PUSH1 0x20 SWAP1 DUP2 MUL SWAP2 SWAP1 SWAP2 ADD ADD MSTORE PUSH1 0xC DUP1 SLOAD DUP3 SWAP1 DUP2 LT PUSH2 0x15E0 JUMPI PUSH2 0x15E0 PUSH2 0x39E8 JUMP JUMPDEST PUSH1 0x0 SWAP2 DUP3 MSTORE PUSH1 0x20 SWAP1 SWAP2 KECCAK256 PUSH1 0xB PUSH1 0xD SWAP1 SWAP3 MUL ADD ADD SLOAD DUP3 PUSH2 0x1600 DUP4 PUSH1 0xA PUSH2 0x3A14 JUMP JUMPDEST PUSH2 0x160B SWAP1 PUSH1 0x8 PUSH2 0x3A2B JUMP JUMPDEST DUP2 MLOAD DUP2 LT PUSH2 0x161B JUMPI PUSH2 0x161B PUSH2 0x39E8 JUMP JUMPDEST PUSH1 0x20 SWAP1 DUP2 MUL SWAP2 SWAP1 SWAP2 ADD ADD MSTORE PUSH1 0xC DUP1 SLOAD DUP3 SWAP1 DUP2 LT PUSH2 0x163A JUMPI PUSH2 0x163A PUSH2 0x39E8 JUMP JUMPDEST PUSH1 0x0 SWAP2 DUP3 MSTORE PUSH1 0x20 SWAP1 SWAP2 KECCAK256 PUSH1 0xC PUSH1 0xD SWAP1 SWAP3 MUL ADD ADD SLOAD DUP3 PUSH2 0x165A DUP4 PUSH1 0xA PUSH2 0x3A14 JUMP JUMPDEST PUSH2 0x1665 SWAP1 PUSH1 0x9 PUSH2 0x3A2B JUMP JUMPDEST DUP2 MLOAD DUP2 LT PUSH2 0x1675 JUMPI PUSH2 0x1675 PUSH2 0x39E8 JUMP JUMPDEST PUSH1 0x20 SWAP1 DUP2 MUL SWAP2 SWAP1 SWAP2 ADD ADD MSTORE PUSH1 0x1 ADD PUSH2 0x11EE JUMP JUMPDEST POP SWAP3 SWAP9 SWAP2 SWAP8 POP SWAP6 POP SWAP1 SWAP4 POP SWAP2 POP POP JUMP JUMPDEST PUSH1 0x1 PUSH1 0x1 PUSH1 0xA0 SHL SUB DUP4 DUP2 AND PUSH1 0x0 SWAP1 DUP2 MSTORE PUSH1 0xD PUSH1 0x20 SWAP1 DUP2 MSTORE PUSH1 0x40 DUP1 DUP4 KECCAK256 DUP7 DUP5 MSTORE DUP3 MSTORE SWAP2 DUP3 SWAP1 KECCAK256 DUP3 MLOAD PUSH1 0x80 DUP1 DUP3 ADD DUP6 MSTORE DUP3 SLOAD DUP7 AND DUP3 MSTORE PUSH1 0x1 DUP4 ADD SLOAD DUP3 DUP6 ADD SWAP1 DUP2 MSTORE PUSH1 0x2 DUP5 ADD SLOAD SWAP1 SWAP7 AND DUP3 DUP7 ADD MSTORE DUP5 MLOAD PUSH2 0x140 DUP2 ADD DUP7 MSTORE PUSH1 0x3 DUP5 ADD SLOAD DUP2 MSTORE PUSH1 0x4 DUP5 ADD SLOAD SWAP5 DUP2 ADD SWAP5 SWAP1 SWAP5 MSTORE PUSH1 0x5 DUP4 ADD SLOAD SWAP5 DUP5 ADD SWAP5 SWAP1 SWAP5 MSTORE PUSH1 0x6 DUP3 ADD SLOAD PUSH1 0x60 DUP1 DUP6 ADD SWAP2 SWAP1 SWAP2 MSTORE PUSH1 0x7 DUP4 ADD SLOAD SWAP5 DUP5 ADD SWAP5 SWAP1 SWAP5 MSTORE PUSH1 0x8 DUP3 ADD SLOAD PUSH1 0xA0 DUP5 ADD MSTORE PUSH1 0x9 DUP3 ADD SLOAD PUSH1 0xC0 DUP5 ADD MSTORE PUSH1 0xA DUP3 ADD SLOAD PUSH1 0xE0 DUP5 ADD MSTORE PUSH1 0xB DUP3 ADD SLOAD PUSH2 0x100 DUP5 ADD MSTORE PUSH1 0xC SWAP1 SWAP2 ADD SLOAD PUSH2 0x120 DUP4 ADD MSTORE SWAP2 DUP3 ADD MSTORE SWAP1 MLOAD DUP4 EQ DUP1 ISZERO PUSH2 0x1783 JUMPI POP DUP4 PUSH1 0x1 PUSH1 0x1 PUSH1 0xA0 SHL SUB AND DUP2 PUSH1 0x40 ADD MLOAD PUSH1 0x1 PUSH1 0x1 PUSH1 0xA0 SHL SUB AND EQ JUMPDEST PUSH2 0x1800 JUMPI PUSH1 0x40 MLOAD PUSH3 0x461BCD PUSH1 0xE5 SHL DUP2 MSTORE PUSH1 0x20 PUSH1 0x4 DUP3 ADD MSTORE PUSH1 0x42 PUSH1 0x24 DUP3 ADD MSTORE PUSH32 0x52652D656E6372797074696F6E206B657920726573706F6E7365206973206E6F PUSH1 0x44 DUP3 ADD MSTORE PUSH32 0x74206173736F6369617465642077697468206120736861726520726571756573 PUSH1 0x64 DUP3 ADD MSTORE PUSH2 0x3A17 PUSH1 0xF1 SHL PUSH1 0x84 DUP3 ADD MSTORE PUSH1 0xA4 ADD PUSH2 0x41A JUMP JUMPDEST DUP1 MLOAD PUSH1 0x1 PUSH1 0x1 PUSH1 0xA0 SHL SUB AND PUSH1 0x0 SWAP1 DUP2 MSTORE PUSH1 0xB PUSH1 0x20 SWAP1 DUP2 MSTORE PUSH1 0x40 DUP1 DUP4 KECCAK256 DUP7 DUP5 MSTORE SWAP1 SWAP2 MSTORE SWAP1 KECCAK256 SLOAD PUSH1 0xFF AND ISZERO ISZERO PUSH1 0x1 EQ PUSH2 0x189F JUMPI PUSH1 0x40 MLOAD PUSH3 0x461BCD PUSH1 0xE5 SHL DUP2 MSTORE PUSH1 0x20 PUSH1 0x4 DUP3 ADD MSTORE PUSH1 0x3E PUSH1 0x24 DUP3 ADD MSTORE PUSH32 0x46696C652072657175657374656420746F20626520736861726564206973206E PUSH1 0x44 DUP3 ADD MSTORE PUSH32 0x6F206C6F6E6765722075706C6F61646564202F20617661696C61626C652E0000 PUSH1 0x64 DUP3 ADD MSTORE PUSH1 0x84 ADD PUSH2 0x41A JUMP JUMPDEST PUSH1 0x0 PUSH1 0x9 PUSH1 0x0 ADD PUSH1 0x0 DUP4 PUSH1 0x0 ADD MLOAD PUSH1 0x1 PUSH1 0x1 PUSH1 0xA0 SHL SUB AND PUSH1 0x1 PUSH1 0x1 PUSH1 0xA0 SHL SUB AND DUP2 MSTORE PUSH1 0x20 ADD SWAP1 DUP2 MSTORE PUSH1 0x20 ADD PUSH1 0x0 KECCAK256 PUSH1 0x0 DUP6 DUP2 MSTORE PUSH1 0x20 ADD SWAP1 DUP2 MSTORE PUSH1 0x20 ADD PUSH1 0x0 KECCAK256 PUSH1 0x40 MLOAD DUP1 PUSH1 0x80 ADD PUSH1 0x40 MSTORE SWAP1 DUP2 PUSH1 0x0 DUP3 ADD PUSH1 0x40 MLOAD DUP1 PUSH1 0xA0 ADD PUSH1 0x40 MSTORE SWAP1 DUP2 PUSH1 0x0 DUP3 ADD SLOAD DUP2 MSTORE PUSH1 0x20 ADD PUSH1 0x1 DUP3 ADD PUSH1 0x0 SWAP1 SLOAD SWAP1 PUSH2 0x100 EXP SWAP1 DIV PUSH1 0x1 PUSH1 0x1 PUSH1 0xA0 SHL SUB AND PUSH1 0x1 PUSH1 0x1 PUSH1 0xA0 SHL SUB AND PUSH1 0x1 PUSH1 0x1 PUSH1 0xA0 SHL SUB AND DUP2 MSTORE PUSH1 0x20 ADD PUSH1 0x2 DUP3 ADD PUSH1 0x40 MLOAD DUP1 PUSH2 0x200 ADD PUSH1 0x40 MSTORE SWAP1 DUP2 PUSH1 0x0 DUP3 ADD SLOAD DUP2 MSTORE PUSH1 0x20 ADD PUSH1 0x1 DUP3 ADD SLOAD DUP2 MSTORE PUSH1 0x20 ADD PUSH1 0x2 DUP3 ADD SLOAD DUP2 MSTORE PUSH1 0x20 ADD PUSH1 0x3 DUP3 ADD SLOAD DUP2 MSTORE PUSH1 0x20 ADD PUSH1 0x4 DUP3 ADD SLOAD DUP2 MSTORE PUSH1 0x20 ADD PUSH1 0x5 DUP3 ADD SLOAD DUP2 MSTORE PUSH1 0x20 ADD PUSH1 0x6 DUP3 ADD SLOAD DUP2 MSTORE PUSH1 0x20 ADD PUSH1 0x7 DUP3 ADD SLOAD DUP2 MSTORE PUSH1 0x20 ADD PUSH1 0x8 DUP3 ADD SLOAD DUP2 MSTORE PUSH1 0x20 ADD PUSH1 0x9 DUP3 ADD SLOAD DUP2 MSTORE PUSH1 0x20 ADD PUSH1 0xA DUP3 ADD SLOAD DUP2 MSTORE PUSH1 0x20 ADD PUSH1 0xB DUP3 ADD SLOAD DUP2 MSTORE PUSH1 0x20 ADD PUSH1 0xC DUP3 ADD SLOAD DUP2 MSTORE PUSH1 0x20 ADD PUSH1 0xD DUP3 ADD SLOAD DUP2 MSTORE PUSH1 0x20 ADD PUSH1 0xE DUP3 ADD SLOAD DUP2 MSTORE PUSH1 0x20 ADD PUSH1 0xF DUP3 ADD SLOAD DUP2 MSTORE POP POP DUP2 MSTORE PUSH1 0x20 ADD PUSH1 0x12 DUP3 ADD PUSH1 0x40 MLOAD DUP1 PUSH2 0x140 ADD PUSH1 0x40 MSTORE SWAP1 DUP2 PUSH1 0x0 DUP3 ADD SLOAD DUP2 MSTORE PUSH1 0x20 ADD PUSH1 0x1 DUP3 ADD SLOAD DUP2 MSTORE PUSH1 0x20 ADD PUSH1 0x2 DUP3 ADD SLOAD DUP2 MSTORE PUSH1 0x20 ADD PUSH1 0x3 DUP3 ADD SLOAD DUP2 MSTORE PUSH1 0x20 ADD PUSH1 0x4 DUP3 ADD SLOAD DUP2 MSTORE PUSH1 0x20 ADD PUSH1 0x5 DUP3 ADD SLOAD DUP2 MSTORE PUSH1 0x20 ADD PUSH1 0x6 DUP3 ADD SLOAD DUP2 MSTORE PUSH1 0x20 ADD PUSH1 0x7 DUP3 ADD SLOAD DUP2 MSTORE PUSH1 0x20 ADD PUSH1 0x8 DUP3 ADD SLOAD DUP2 MSTORE PUSH1 0x20 ADD PUSH1 0x9 DUP3 ADD SLOAD DUP2 MSTORE POP POP DUP2 MSTORE PUSH1 0x20 ADD PUSH1 0x1C DUP3 ADD PUSH1 0x40 MLOAD DUP1 PUSH1 0x40 ADD PUSH1 0x40 MSTORE SWAP1 DUP2 PUSH1 0x0 DUP3 ADD SLOAD DUP2 MSTORE PUSH1 0x20 ADD PUSH1 0x1 DUP3 ADD SLOAD DUP2 MSTORE POP POP DUP2 MSTORE POP POP DUP2 MSTORE PUSH1 0x20 ADD PUSH1 0x1E DUP3 ADD DUP1 SLOAD PUSH2 0x1A9C SWAP1 PUSH2 0x3A3E JUMP JUMPDEST DUP1 PUSH1 0x1F ADD PUSH1 0x20 DUP1 SWAP2 DIV MUL PUSH1 0x20 ADD PUSH1 0x40 MLOAD SWAP1 DUP2 ADD PUSH1 0x40 MSTORE DUP1 SWAP3 SWAP2 SWAP1 DUP2 DUP2 MSTORE PUSH1 0x20 ADD DUP3 DUP1 SLOAD PUSH2 0x1AC8 SWAP1 PUSH2 0x3A3E JUMP JUMPDEST DUP1 ISZERO PUSH2 0x1B15 JUMPI DUP1 PUSH1 0x1F LT PUSH2 0x1AEA JUMPI PUSH2 0x100 DUP1 DUP4 SLOAD DIV MUL DUP4 MSTORE SWAP2 PUSH1 0x20 ADD SWAP2 PUSH2 0x1B15 JUMP JUMPDEST DUP3 ADD SWAP2 SWAP1 PUSH1 0x0 MSTORE PUSH1 0x20 PUSH1 0x0 KECCAK256 SWAP1 JUMPDEST DUP2 SLOAD DUP2 MSTORE SWAP1 PUSH1 0x1 ADD SWAP1 PUSH1 0x20 ADD DUP1 DUP4 GT PUSH2 0x1AF8 JUMPI DUP3 SWAP1 SUB PUSH1 0x1F AND DUP3 ADD SWAP2 JUMPDEST POP POP POP POP POP DUP2 MSTORE PUSH1 0x20 ADD PUSH1 0x1F DUP3 ADD DUP1 SLOAD PUSH2 0x1B2E SWAP1 PUSH2 0x3A3E JUMP JUMPDEST DUP1 PUSH1 0x1F ADD PUSH1 0x20 DUP1 SWAP2 DIV MUL PUSH1 0x20 ADD PUSH1 0x40 MLOAD SWAP1 DUP2 ADD PUSH1 0x40 MSTORE DUP1 SWAP3 SWAP2 SWAP1 DUP2 DUP2 MSTORE PUSH1 0x20 ADD DUP3 DUP1 SLOAD PUSH2 0x1B5A SWAP1 PUSH2 0x3A3E JUMP JUMPDEST DUP1 ISZERO PUSH2 0x1BA7 JUMPI DUP1 PUSH1 0x1F LT PUSH2 0x1B7C JUMPI PUSH2 0x100 DUP1 DUP4 SLOAD DIV MUL DUP4 MSTORE SWAP2 PUSH1 0x20 ADD SWAP2 PUSH2 0x1BA7 JUMP JUMPDEST DUP3 ADD SWAP2 SWAP1 PUSH1 0x0 MSTORE PUSH1 0x20 PUSH1 0x0 KECCAK256 SWAP1 JUMPDEST DUP2 SLOAD DUP2 MSTORE SWAP1 PUSH1 0x1 ADD SWAP1 PUSH1 0x20 ADD DUP1 DUP4 GT PUSH2 0x1B8A JUMPI DUP3 SWAP1 SUB PUSH1 0x1F AND DUP3 ADD SWAP2 JUMPDEST POP POP POP SWAP2 DUP4 MSTORE POP POP PUSH1 0x40 DUP1 MLOAD PUSH2 0x300 DUP2 ADD SWAP1 SWAP2 MSTORE PUSH1 0x20 SWAP2 DUP3 ADD SWAP2 DUP4 DUP2 ADD SWAP1 DUP3 SWAP1 DUP2 ADD DUP3 PUSH1 0x17 DUP3 DUP3 DUP3 PUSH1 0x20 MUL DUP3 ADD SWAP2 JUMPDEST DUP2 SLOAD DUP2 MSTORE PUSH1 0x20 ADD SWAP1 PUSH1 0x1 ADD SWAP1 DUP1 DUP4 GT PUSH2 0x1BD6 JUMPI POP POP POP POP POP DUP2 MSTORE POP POP DUP2 MSTORE POP POP SWAP1 POP PUSH1 0x0 PUSH1 0x40 MLOAD DUP1 PUSH1 0x40 ADD PUSH1 0x40 MSTORE DUP1 DUP6 PUSH1 0x0 PUSH1 0x2 DUP2 LT PUSH2 0x1C18 JUMPI PUSH2 0x1C18 PUSH2 0x39E8 JUMP JUMPDEST PUSH1 0x20 MUL ADD MLOAD DUP2 MSTORE PUSH1 0x20 ADD DUP6 PUSH1 0x1 PUSH1 0x2 DUP2 LT PUSH2 0x1C35 JUMPI PUSH2 0x1C35 PUSH2 0x39E8 JUMP JUMPDEST PUSH1 0x20 SWAP1 DUP2 MUL SWAP2 SWAP1 SWAP2 ADD MLOAD SWAP1 SWAP2 MSTORE PUSH1 0x40 DUP1 MLOAD PUSH1 0x80 DUP1 DUP3 ADD DUP4 MSTORE DUP7 MLOAD PUSH1 0x60 SWAP1 DUP2 ADD MLOAD MLOAD DUP4 MSTORE DUP8 MLOAD DUP2 ADD MLOAD DUP6 ADD MLOAD DUP4 DUP7 ADD MSTORE DUP8 MLOAD DUP2 ADD MLOAD DUP5 ADD MLOAD DUP4 DUP6 ADD MSTORE DUP8 MLOAD DUP2 ADD MLOAD DUP2 ADD MLOAD DUP2 DUP5 ADD MSTORE DUP4 MLOAD DUP1 DUP6 ADD DUP6 MSTORE DUP10 DUP3 ADD DUP1 MLOAD DUP5 ADD MLOAD DUP3 MSTORE MLOAD PUSH1 0xA0 ADD MLOAD DUP2 DUP8 ADD MSTORE DUP5 MLOAD SWAP3 DUP4 ADD DUP6 MSTORE DUP9 MLOAD DUP6 ADD MLOAD MLOAD DUP4 MSTORE DUP9 MLOAD DUP6 ADD MLOAD DUP7 ADD MLOAD SWAP6 DUP4 ADD SWAP6 SWAP1 SWAP6 MSTORE DUP8 MLOAD DUP5 ADD MLOAD DUP5 ADD MLOAD DUP3 DUP6 ADD MSTORE DUP8 MLOAD SWAP1 SWAP4 ADD MLOAD DUP4 ADD MLOAD SWAP3 DUP2 ADD SWAP3 SWAP1 SWAP3 MSTORE SWAP3 SWAP4 POP PUSH1 0x0 SWAP3 PUSH2 0x1CE1 SWAP3 DUP6 SWAP3 PUSH2 0x2C69 JUMP JUMPDEST SWAP1 POP DUP1 ISZERO ISZERO PUSH1 0x0 SUB PUSH2 0x1D67 JUMPI PUSH2 0x1CF7 DUP8 DUP8 PUSH2 0x2D7A JUMP JUMPDEST PUSH1 0x40 DUP1 MLOAD PUSH3 0x461BCD PUSH1 0xE5 SHL DUP2 MSTORE PUSH1 0x20 PUSH1 0x4 DUP3 ADD MSTORE PUSH1 0x24 DUP2 ADD SWAP2 SWAP1 SWAP2 MSTORE PUSH32 0x52652D656E6372797074696F6E206B657920766572696669636174696F6E2066 PUSH1 0x44 DUP3 ADD MSTORE PUSH32 0x61696C65642C20697420697320636F6E7369646572656420696E76616C696421 PUSH1 0x64 DUP3 ADD MSTORE PUSH1 0x84 ADD PUSH2 0x41A JUMP JUMPDEST PUSH1 0x0 PUSH1 0x40 MLOAD DUP1 PUSH1 0xC0 ADD PUSH1 0x40 MSTORE DUP1 DUP9 DUP2 MSTORE PUSH1 0x20 ADD DUP7 PUSH1 0x0 ADD MLOAD PUSH1 0x1 PUSH1 0x1 PUSH1 0xA0 SHL SUB AND DUP2 MSTORE PUSH1 0x20 ADD DUP10 PUSH1 0x1 PUSH1 0x1 PUSH1 0xA0 SHL SUB AND DUP2 MSTORE PUSH1 0x20 ADD DUP5 DUP2 MSTORE PUSH1 0x20 ADD DUP6 PUSH1 0x0 ADD MLOAD PUSH1 0x60 ADD MLOAD DUP2 MSTORE PUSH1 0x20 ADD DUP7 PUSH1 0x60 ADD MLOAD DUP2 MSTORE POP SWAP1 POP DUP1 PUSH1 0xE PUSH1 0x0 ADD PUSH1 0x0 DUP11 PUSH1 0x1 PUSH1 0x1 PUSH1 0xA0 SHL SUB AND PUSH1 0x1 PUSH1 0x1 PUSH1 0xA0 SHL SUB AND DUP2 MSTORE PUSH1 0x20 ADD SWAP1 DUP2 MSTORE PUSH1 0x20 ADD PUSH1 0x0 KECCAK256 PUSH1 0x0 DUP10 DUP2 MSTORE PUSH1 0x20 ADD SWAP1 DUP2 MSTORE PUSH1 0x20 ADD PUSH1 0x0 KECCAK256 PUSH1 0x0 DUP3 ADD MLOAD DUP2 PUSH1 0x0 ADD SSTORE PUSH1 0x20 DUP3 ADD MLOAD DUP2 PUSH1 0x1 ADD PUSH1 0x0 PUSH2 0x100 EXP DUP2 SLOAD DUP2 PUSH1 0x1 PUSH1 0x1 PUSH1 0xA0 SHL SUB MUL NOT AND SWAP1 DUP4 PUSH1 0x1 PUSH1 0x1 PUSH1 0xA0 SHL SUB AND MUL OR SWAP1 SSTORE POP PUSH1 0x40 DUP3 ADD MLOAD DUP2 PUSH1 0x2 ADD PUSH1 0x0 PUSH2 0x100 EXP DUP2 SLOAD DUP2 PUSH1 0x1 PUSH1 0x1 PUSH1 0xA0 SHL SUB MUL NOT AND SWAP1 DUP4 PUSH1 0x1 PUSH1 0x1 PUSH1 0xA0 SHL SUB AND MUL OR SWAP1 SSTORE POP PUSH1 0x60 DUP3 ADD MLOAD DUP2 PUSH1 0x3 ADD PUSH1 0x0 DUP3 ADD MLOAD DUP2 PUSH1 0x0 ADD SSTORE PUSH1 0x20 DUP3 ADD MLOAD DUP2 PUSH1 0x1 ADD SSTORE POP POP PUSH1 0x80 DUP3 ADD MLOAD DUP2 PUSH1 0x5 ADD PUSH1 0x0 DUP3 ADD MLOAD DUP2 PUSH1 0x0 ADD SSTORE PUSH1 0x20 DUP3 ADD MLOAD DUP2 PUSH1 0x1 ADD SSTORE PUSH1 0x40 DUP3 ADD MLOAD DUP2 PUSH1 0x2 ADD SSTORE PUSH1 0x60 DUP3 ADD MLOAD DUP2 PUSH1 0x3 ADD SSTORE PUSH1 0x80 DUP3 ADD MLOAD DUP2 PUSH1 0x4 ADD SSTORE PUSH1 0xA0 DUP3 ADD MLOAD DUP2 PUSH1 0x5 ADD SSTORE PUSH1 0xC0 DUP3 ADD MLOAD DUP2 PUSH1 0x6 ADD SSTORE PUSH1 0xE0 DUP3 ADD MLOAD DUP2 PUSH1 0x7 ADD SSTORE PUSH2 0x100 DUP3 ADD MLOAD DUP2 PUSH1 0x8 ADD SSTORE PUSH2 0x120 DUP3 ADD MLOAD DUP2 PUSH1 0x9 ADD SSTORE POP POP PUSH1 0xA0 DUP3 ADD MLOAD DUP2 PUSH1 0xF ADD PUSH1 0x0 DUP3 ADD MLOAD DUP2 PUSH1 0x0 ADD SSTORE PUSH1 0x20 DUP3 ADD MLOAD DUP2 PUSH1 0x1 ADD SSTORE PUSH1 0x40 DUP3 ADD MLOAD DUP2 PUSH1 0x2 ADD SSTORE PUSH1 0x60 DUP3 ADD MLOAD DUP2 PUSH1 0x3 ADD SSTORE PUSH1 0x80 DUP3 ADD MLOAD DUP2 PUSH1 0x4 ADD SSTORE PUSH1 0xA0 DUP3 ADD MLOAD DUP2 PUSH1 0x5 ADD SSTORE PUSH1 0xC0 DUP3 ADD MLOAD DUP2 PUSH1 0x6 ADD SSTORE PUSH1 0xE0 DUP3 ADD MLOAD DUP2 PUSH1 0x7 ADD SSTORE PUSH2 0x100 DUP3 ADD MLOAD DUP2 PUSH1 0x8 ADD SSTORE PUSH2 0x120 DUP3 ADD MLOAD DUP2 PUSH1 0x9 ADD SSTORE POP POP SWAP1 POP POP PUSH1 0x1 PUSH1 0xE PUSH1 0x1 ADD PUSH1 0x0 DUP11 PUSH1 0x1 PUSH1 0x1 PUSH1 0xA0 SHL SUB AND PUSH1 0x1 PUSH1 0x1 PUSH1 0xA0 SHL SUB AND DUP2 MSTORE PUSH1 0x20 ADD SWAP1 DUP2 MSTORE PUSH1 0x20 ADD PUSH1 0x0 KECCAK256 PUSH1 0x0 DUP10 DUP2 MSTORE PUSH1 0x20 ADD SWAP1 DUP2 MSTORE PUSH1 0x20 ADD PUSH1 0x0 KECCAK256 PUSH1 0x0 PUSH2 0x100 EXP DUP2 SLOAD DUP2 PUSH1 0xFF MUL NOT AND SWAP1 DUP4 ISZERO ISZERO MUL OR SWAP1 SSTORE POP PUSH2 0x1FB8 DUP9 DUP9 PUSH2 0x2D7A JUMP JUMPDEST POP POP POP POP POP POP POP POP JUMP JUMPDEST PUSH1 0x1 PUSH1 0x1 PUSH1 0xA0 SHL SUB DUP3 AND PUSH1 0x0 SWAP1 DUP2 MSTORE PUSH1 0xB PUSH1 0x20 SWAP1 DUP2 MSTORE PUSH1 0x40 DUP1 DUP4 KECCAK256 DUP5 DUP5 MSTORE SWAP1 SWAP2 MSTORE SWAP1 KECCAK256 SLOAD PUSH1 0xFF AND ISZERO ISZERO PUSH1 0x1 EQ PUSH2 0x2071 JUMPI PUSH1 0x40 MLOAD PUSH3 0x461BCD PUSH1 0xE5 SHL DUP2 MSTORE PUSH1 0x20 PUSH1 0x4 DUP3 ADD MSTORE PUSH1 0x48 PUSH1 0x24 DUP3 ADD MSTORE PUSH32 0x46696C65204F776E6572204164647265737320616E642046696C652049442070 PUSH1 0x44 DUP3 ADD MSTORE PUSH32 0x61697220646F6573206E6F74207265666572656E636520616E2075706C6F6164 PUSH1 0x64 DUP3 ADD MSTORE PUSH8 0x32B2103334B63297 PUSH1 0xC1 SHL PUSH1 0x84 DUP3 ADD MSTORE PUSH1 0xA4 ADD PUSH2 0x41A JUMP JUMPDEST PUSH1 0x0 PUSH1 0x40 MLOAD DUP1 PUSH2 0x140 ADD PUSH1 0x40 MSTORE DUP1 DUP6 PUSH1 0x0 DUP2 MLOAD DUP2 LT PUSH2 0x2092 JUMPI PUSH2 0x2092 PUSH2 0x39E8 JUMP JUMPDEST PUSH1 0x20 MUL PUSH1 0x20 ADD ADD MLOAD DUP2 MSTORE PUSH1 0x20 ADD DUP6 PUSH1 0x1 DUP2 MLOAD DUP2 LT PUSH2 0x20B2 JUMPI PUSH2 0x20B2 PUSH2 0x39E8 JUMP JUMPDEST PUSH1 0x20 MUL PUSH1 0x20 ADD ADD MLOAD DUP2 MSTORE PUSH1 0x20 ADD DUP6 PUSH1 0x2 DUP2 MLOAD DUP2 LT PUSH2 0x20D2 JUMPI PUSH2 0x20D2 PUSH2 0x39E8 JUMP JUMPDEST PUSH1 0x20 MUL PUSH1 0x20 ADD ADD MLOAD DUP2 MSTORE PUSH1 0x20 ADD DUP6 PUSH1 0x3 DUP2 MLOAD DUP2 LT PUSH2 0x20F2 JUMPI PUSH2 0x20F2 PUSH2 0x39E8 JUMP JUMPDEST PUSH1 0x20 MUL PUSH1 0x20 ADD ADD MLOAD DUP2 MSTORE PUSH1 0x20 ADD DUP6 PUSH1 0x4 DUP2 MLOAD DUP2 LT PUSH2 0x2112 JUMPI PUSH2 0x2112 PUSH2 0x39E8 JUMP JUMPDEST PUSH1 0x20 MUL PUSH1 0x20 ADD ADD MLOAD DUP2 MSTORE PUSH1 0x20 ADD DUP6 PUSH1 0x5 DUP2 MLOAD DUP2 LT PUSH2 0x2132 JUMPI PUSH2 0x2132 PUSH2 0x39E8 JUMP JUMPDEST PUSH1 0x20 MUL PUSH1 0x20 ADD ADD MLOAD DUP2 MSTORE PUSH1 0x20 ADD DUP6 PUSH1 0x6 DUP2 MLOAD DUP2 LT PUSH2 0x2152 JUMPI PUSH2 0x2152 PUSH2 0x39E8 JUMP JUMPDEST PUSH1 0x20 MUL PUSH1 0x20 ADD ADD MLOAD DUP2 MSTORE PUSH1 0x20 ADD DUP6 PUSH1 0x7 DUP2 MLOAD DUP2 LT PUSH2 0x2172 JUMPI PUSH2 0x2172 PUSH2 0x39E8 JUMP JUMPDEST PUSH1 0x20 MUL PUSH1 0x20 ADD ADD MLOAD DUP2 MSTORE PUSH1 0x20 ADD DUP6 PUSH1 0x8 DUP2 MLOAD DUP2 LT PUSH2 0x2192 JUMPI PUSH2 0x2192 PUSH2 0x39E8 JUMP JUMPDEST PUSH1 0x20 MUL PUSH1 0x20 ADD ADD MLOAD DUP2 MSTORE PUSH1 0x20 ADD DUP6 PUSH1 0x9 DUP2 MLOAD DUP2 LT PUSH2 0x21B2 JUMPI PUSH2 0x21B2 PUSH2 0x39E8 JUMP JUMPDEST PUSH1 0x20 MUL PUSH1 0x20 ADD ADD MLOAD DUP2 MSTORE POP SWAP1 POP PUSH1 0x0 PUSH1 0x40 MLOAD DUP1 PUSH1 0x80 ADD PUSH1 0x40 MSTORE DUP1 DUP6 PUSH1 0x1 PUSH1 0x1 PUSH1 0xA0 SHL SUB AND DUP2 MSTORE PUSH1 0x20 ADD DUP5 DUP2 MSTORE PUSH1 0x20 ADD DUP8 PUSH1 0x1 PUSH1 0x1 PUSH1 0xA0 SHL SUB AND DUP2 MSTORE PUSH1 0x20 ADD DUP4 DUP2 MSTORE POP SWAP1 POP PUSH1 0xC PUSH1 0x0 ADD DUP2 SWAP1 DUP1 PUSH1 0x1 DUP2 SLOAD ADD DUP1 DUP3 SSTORE DUP1 SWAP2 POP POP PUSH1 0x1 SWAP1 SUB SWAP1 PUSH1 0x0 MSTORE PUSH1 0x20 PUSH1 0x0 KECCAK256 SWAP1 PUSH1 0xD MUL ADD PUSH1 0x0 SWAP1 SWAP2 SWAP1 SWAP2 SWAP1 SWAP2 POP PUSH1 0x0 DUP3 ADD MLOAD DUP2 PUSH1 0x0 ADD PUSH1 0x0 PUSH2 0x100 EXP DUP2 SLOAD DUP2 PUSH1 0x1 PUSH1 0x1 PUSH1 0xA0 SHL SUB MUL NOT AND SWAP1 DUP4 PUSH1 0x1 PUSH1 0x1 PUSH1 0xA0 SHL SUB AND MUL OR SWAP1 SSTORE POP PUSH1 0x20 DUP3 ADD MLOAD DUP2 PUSH1 0x1 ADD SSTORE PUSH1 0x40 DUP3 ADD MLOAD DUP2 PUSH1 0x2 ADD PUSH1 0x0 PUSH2 0x100 EXP DUP2 SLOAD DUP2 PUSH1 0x1 PUSH1 0x1 PUSH1 0xA0 SHL SUB MUL NOT AND SWAP1 DUP4 PUSH1 0x1 PUSH1 0x1 PUSH1 0xA0 SHL SUB AND MUL OR SWAP1 SSTORE POP PUSH1 0x60 DUP3 ADD MLOAD DUP2 PUSH1 0x3 ADD PUSH1 0x0 DUP3 ADD MLOAD DUP2 PUSH1 0x0 ADD SSTORE PUSH1 0x20 DUP3 ADD MLOAD DUP2 PUSH1 0x1 ADD SSTORE PUSH1 0x40 DUP3 ADD MLOAD DUP2 PUSH1 0x2 ADD SSTORE PUSH1 0x60 DUP3 ADD MLOAD DUP2 PUSH1 0x3 ADD SSTORE PUSH1 0x80 DUP3 ADD MLOAD DUP2 PUSH1 0x4 ADD SSTORE PUSH1 0xA0 DUP3 ADD MLOAD DUP2 PUSH1 0x5 ADD SSTORE PUSH1 0xC0 DUP3 ADD MLOAD DUP2 PUSH1 0x6 ADD SSTORE PUSH1 0xE0 DUP3 ADD MLOAD DUP2 PUSH1 0x7 ADD SSTORE PUSH2 0x100 DUP3 ADD MLOAD DUP2 PUSH1 0x8 ADD SSTORE PUSH2 0x120 DUP3 ADD MLOAD DUP2 PUSH1 0x9 ADD SSTORE POP POP POP POP DUP1 PUSH1 0xC PUSH1 0x1 ADD PUSH1 0x0 DUP9 PUSH1 0x1 PUSH1 0x1 PUSH1 0xA0 SHL SUB AND PUSH1 0x1 PUSH1 0x1 PUSH1 0xA0 SHL SUB AND DUP2 MSTORE PUSH1 0x20 ADD SWAP1 DUP2 MSTORE PUSH1 0x20 ADD PUSH1 0x0 KECCAK256 PUSH1 0x0 DUP6 DUP2 MSTORE PUSH1 0x20 ADD SWAP1 DUP2 MSTORE PUSH1 0x20 ADD PUSH1 0x0 KECCAK256 PUSH1 0x0 DUP3 ADD MLOAD DUP2 PUSH1 0x0 ADD PUSH1 0x0 PUSH2 0x100 EXP DUP2 SLOAD DUP2 PUSH1 0x1 PUSH1 0x1 PUSH1 0xA0 SHL SUB MUL NOT AND SWAP1 DUP4 PUSH1 0x1 PUSH1 0x1 PUSH1 0xA0 SHL SUB AND MUL OR SWAP1 SSTORE POP PUSH1 0x20 DUP3 ADD MLOAD DUP2 PUSH1 0x1 ADD SSTORE PUSH1 0x40 DUP3 ADD MLOAD DUP2 PUSH1 0x2 ADD PUSH1 0x0 PUSH2 0x100 EXP DUP2 SLOAD DUP2 PUSH1 0x1 PUSH1 0x1 PUSH1 0xA0 SHL SUB MUL NOT AND SWAP1 DUP4 PUSH1 0x1 PUSH1 0x1 PUSH1 0xA0 SHL SUB AND MUL OR SWAP1 SSTORE POP PUSH1 0x60 DUP3 ADD MLOAD DUP2 PUSH1 0x3 ADD PUSH1 0x0 DUP3 ADD MLOAD DUP2 PUSH1 0x0 ADD SSTORE PUSH1 0x20 DUP3 ADD MLOAD DUP2 PUSH1 0x1 ADD SSTORE PUSH1 0x40 DUP3 ADD MLOAD DUP2 PUSH1 0x2 ADD SSTORE PUSH1 0x60 DUP3 ADD MLOAD DUP2 PUSH1 0x3 ADD SSTORE PUSH1 0x80 DUP3 ADD MLOAD DUP2 PUSH1 0x4 ADD SSTORE PUSH1 0xA0 DUP3 ADD MLOAD DUP2 PUSH1 0x5 ADD SSTORE PUSH1 0xC0 DUP3 ADD MLOAD DUP2 PUSH1 0x6 ADD SSTORE PUSH1 0xE0 DUP3 ADD MLOAD DUP2 PUSH1 0x7 ADD SSTORE PUSH2 0x100 DUP3 ADD MLOAD DUP2 PUSH1 0x8 ADD SSTORE PUSH2 0x120 DUP3 ADD MLOAD DUP2 PUSH1 0x9 ADD SSTORE POP POP SWAP1 POP POP POP POP POP POP POP POP JUMP JUMPDEST PUSH1 0x1 PUSH1 0x1 PUSH1 0xA0 SHL SUB DUP6 AND PUSH1 0x0 DUP2 DUP2 MSTORE PUSH1 0x6 PUSH1 0x20 SWAP1 DUP2 MSTORE PUSH1 0x40 DUP1 DUP4 KECCAK256 DUP9 DUP5 MSTORE DUP3 MSTORE DUP1 DUP4 KECCAK256 SLOAD SWAP4 DUP4 MSTORE PUSH1 0x7 DUP3 MSTORE DUP1 DUP4 KECCAK256 DUP5 DUP5 MSTORE SWAP1 SWAP2 MSTORE SWAP1 KECCAK256 SLOAD PUSH1 0xFF AND ISZERO ISZERO PUSH1 0x1 EQ PUSH2 0x24DE JUMPI PUSH1 0x40 MLOAD PUSH3 0x461BCD PUSH1 0xE5 SHL DUP2 MSTORE PUSH1 0x20 PUSH1 0x4 DUP3 ADD MSTORE PUSH1 0x4E PUSH1 0x24 DUP3 ADD MSTORE PUSH32 0x46696C652049442070617373656420646F6573206E6F74207265666572656E63 PUSH1 0x44 DUP3 ADD MSTORE PUSH32 0x6520612076616C69642070656E64696E672066696C6520666F722075706C6F61 PUSH1 0x64 DUP3 ADD MSTORE PUSH14 0x32103337B9103A3432903AB9B2B9 PUSH1 0x91 SHL PUSH1 0x84 DUP3 ADD MSTORE PUSH1 0xA4 ADD PUSH2 0x41A JUMP JUMPDEST PUSH1 0x0 PUSH1 0x4 PUSH1 0x0 ADD PUSH1 0x0 DUP9 PUSH1 0x1 PUSH1 0x1 PUSH1 0xA0 SHL SUB AND PUSH1 0x1 PUSH1 0x1 PUSH1 0xA0 SHL SUB AND DUP2 MSTORE PUSH1 0x20 ADD SWAP1 DUP2 MSTORE PUSH1 0x20 ADD PUSH1 0x0 KECCAK256 PUSH1 0x0 DUP8 DUP2 MSTORE PUSH1 0x20 ADD SWAP1 DUP2 MSTORE PUSH1 0x20 ADD PUSH1 0x0 KECCAK256 PUSH1 0x40 MLOAD DUP1 PUSH1 0xA0 ADD PUSH1 0x40 MSTORE SWAP1 DUP2 PUSH1 0x0 DUP3 ADD SLOAD DUP2 MSTORE PUSH1 0x20 ADD PUSH1 0x1 DUP3 ADD PUSH1 0x0 SWAP1 SLOAD SWAP1 PUSH2 0x100 EXP SWAP1 DIV PUSH1 0x1 PUSH1 0x1 PUSH1 0xA0 SHL SUB AND PUSH1 0x1 PUSH1 0x1 PUSH1 0xA0 SHL SUB AND PUSH1 0x1 PUSH1 0x1 PUSH1 0xA0 SHL SUB AND DUP2 MSTORE PUSH1 0x20 ADD PUSH1 0x2 DUP3 ADD PUSH1 0x40 MLOAD DUP1 PUSH2 0x200 ADD PUSH1 0x40 MSTORE SWAP1 DUP2 PUSH1 0x0 DUP3 ADD SLOAD DUP2 MSTORE PUSH1 0x20 ADD PUSH1 0x1 DUP3 ADD SLOAD DUP2 MSTORE PUSH1 0x20 ADD PUSH1 0x2 DUP3 ADD SLOAD DUP2 MSTORE PUSH1 0x20 ADD PUSH1 0x3 DUP3 ADD SLOAD DUP2 MSTORE PUSH1 0x20 ADD PUSH1 0x4 DUP3 ADD SLOAD DUP2 MSTORE PUSH1 0x20 ADD PUSH1 0x5 DUP3 ADD SLOAD DUP2 MSTORE PUSH1 0x20 ADD PUSH1 0x6 DUP3 ADD SLOAD DUP2 MSTORE PUSH1 0x20 ADD PUSH1 0x7 DUP3 ADD SLOAD DUP2 MSTORE PUSH1 0x20 ADD PUSH1 0x8 DUP3 ADD SLOAD DUP2 MSTORE PUSH1 0x20 ADD PUSH1 0x9 DUP3 ADD SLOAD DUP2 MSTORE PUSH1 0x20 ADD PUSH1 0xA DUP3 ADD SLOAD DUP2 MSTORE PUSH1 0x20 ADD PUSH1 0xB DUP3 ADD SLOAD DUP2 MSTORE PUSH1 0x20 ADD PUSH1 0xC DUP3 ADD SLOAD DUP2 MSTORE PUSH1 0x20 ADD PUSH1 0xD DUP3 ADD SLOAD DUP2 MSTORE PUSH1 0x20 ADD PUSH1 0xE DUP3 ADD SLOAD DUP2 MSTORE PUSH1 0x20 ADD PUSH1 0xF DUP3 ADD SLOAD DUP2 MSTORE POP POP DUP2 MSTORE PUSH1 0x20 ADD PUSH1 0x12 DUP3 ADD PUSH1 0x40 MLOAD DUP1 PUSH2 0x140 ADD PUSH1 0x40 MSTORE SWAP1 DUP2 PUSH1 0x0 DUP3 ADD SLOAD DUP2 MSTORE PUSH1 0x20 ADD PUSH1 0x1 DUP3 ADD SLOAD DUP2 MSTORE PUSH1 0x20 ADD PUSH1 0x2 DUP3 ADD SLOAD DUP2 MSTORE PUSH1 0x20 ADD PUSH1 0x3 DUP3 ADD SLOAD DUP2 MSTORE PUSH1 0x20 ADD PUSH1 0x4 DUP3 ADD SLOAD DUP2 MSTORE PUSH1 0x20 ADD PUSH1 0x5 DUP3 ADD SLOAD DUP2 MSTORE PUSH1 0x20 ADD PUSH1 0x6 DUP3 ADD SLOAD DUP2 MSTORE PUSH1 0x20 ADD PUSH1 0x7 DUP3 ADD SLOAD DUP2 MSTORE PUSH1 0x20 ADD PUSH1 0x8 DUP3 ADD SLOAD DUP2 MSTORE PUSH1 0x20 ADD PUSH1 0x9 DUP3 ADD SLOAD DUP2 MSTORE POP POP DUP2 MSTORE PUSH1 0x20 ADD PUSH1 0x1C DUP3 ADD PUSH1 0x40 MLOAD DUP1 PUSH1 0x40 ADD PUSH1 0x40 MSTORE SWAP1 DUP2 PUSH1 0x0 DUP3 ADD SLOAD DUP2 MSTORE PUSH1 0x20 ADD PUSH1 0x1 DUP3 ADD SLOAD DUP2 MSTORE POP POP DUP2 MSTORE POP POP SWAP1 POP PUSH1 0x0 PUSH1 0x40 MLOAD DUP1 PUSH1 0x20 ADD PUSH1 0x40 MSTORE DUP1 DUP6 DUP2 MSTORE POP SWAP1 POP PUSH1 0x0 PUSH1 0x40 MLOAD DUP1 PUSH1 0x80 ADD PUSH1 0x40 MSTORE DUP1 DUP5 DUP2 MSTORE PUSH1 0x20 ADD DUP9 DUP2 MSTORE PUSH1 0x20 ADD DUP8 DUP2 MSTORE PUSH1 0x20 ADD DUP4 DUP2 MSTORE POP SWAP1 POP DUP1 PUSH1 0x9 PUSH1 0x0 ADD PUSH1 0x0 DUP12 PUSH1 0x1 PUSH1 0x1 PUSH1 0xA0 SHL SUB AND PUSH1 0x1 PUSH1 0x1 PUSH1 0xA0 SHL SUB AND DUP2 MSTORE PUSH1 0x20 ADD SWAP1 DUP2 MSTORE PUSH1 0x20 ADD PUSH1 0x0 KECCAK256 PUSH1 0x0 DUP11 DUP2 MSTORE PUSH1 0x20 ADD SWAP1 DUP2 MSTORE PUSH1 0x20 ADD PUSH1 0x0 KECCAK256 PUSH1 0x0 DUP3 ADD MLOAD DUP2 PUSH1 0x0 ADD PUSH1 0x0 DUP3 ADD MLOAD DUP2 PUSH1 0x0 ADD SSTORE PUSH1 0x20 DUP3 ADD MLOAD DUP2 PUSH1 0x1 ADD PUSH1 0x0 PUSH2 0x100 EXP DUP2 SLOAD DUP2 PUSH1 0x1 PUSH1 0x1 PUSH1 0xA0 SHL SUB MUL NOT AND SWAP1 DUP4 PUSH1 0x1 PUSH1 0x1 PUSH1 0xA0 SHL SUB AND MUL OR SWAP1 SSTORE POP PUSH1 0x40 DUP3 ADD MLOAD DUP2 PUSH1 0x2 ADD PUSH1 0x0 DUP3 ADD MLOAD DUP2 PUSH1 0x0 ADD SSTORE PUSH1 0x20 DUP3 ADD MLOAD DUP2 PUSH1 0x1 ADD SSTORE PUSH1 0x40 DUP3 ADD MLOAD DUP2 PUSH1 0x2 ADD SSTORE PUSH1 0x60 DUP3 ADD MLOAD DUP2 PUSH1 0x3 ADD SSTORE PUSH1 0x80 DUP3 ADD MLOAD DUP2 PUSH1 0x4 ADD SSTORE PUSH1 0xA0 DUP3 ADD MLOAD DUP2 PUSH1 0x5 ADD SSTORE PUSH1 0xC0 DUP3 ADD MLOAD DUP2 PUSH1 0x6 ADD SSTORE PUSH1 0xE0 DUP3 ADD MLOAD DUP2 PUSH1 0x7 ADD SSTORE PUSH2 0x100 DUP3 ADD MLOAD DUP2 PUSH1 0x8 ADD SSTORE PUSH2 0x120 DUP3 ADD MLOAD DUP2 PUSH1 0x9 ADD SSTORE PUSH2 0x140 DUP3 ADD MLOAD DUP2 PUSH1 0xA ADD SSTORE PUSH2 0x160 DUP3 ADD MLOAD DUP2 PUSH1 0xB ADD SSTORE PUSH2 0x180 DUP3 ADD MLOAD DUP2 PUSH1 0xC ADD SSTORE PUSH2 0x1A0 DUP3 ADD MLOAD DUP2 PUSH1 0xD ADD SSTORE PUSH2 0x1C0 DUP3 ADD MLOAD DUP2 PUSH1 0xE ADD SSTORE PUSH2 0x1E0 DUP3 ADD MLOAD DUP2 PUSH1 0xF ADD SSTORE POP POP PUSH1 0x60 DUP3 ADD MLOAD DUP2 PUSH1 0x12 ADD PUSH1 0x0 DUP3 ADD MLOAD DUP2 PUSH1 0x0 ADD SSTORE PUSH1 0x20 DUP3 ADD MLOAD DUP2 PUSH1 0x1 ADD SSTORE PUSH1 0x40 DUP3 ADD MLOAD DUP2 PUSH1 0x2 ADD SSTORE PUSH1 0x60 DUP3 ADD MLOAD DUP2 PUSH1 0x3 ADD SSTORE PUSH1 0x80 DUP3 ADD MLOAD DUP2 PUSH1 0x4 ADD SSTORE PUSH1 0xA0 DUP3 ADD MLOAD DUP2 PUSH1 0x5 ADD SSTORE PUSH1 0xC0 DUP3 ADD MLOAD DUP2 PUSH1 0x6 ADD SSTORE PUSH1 0xE0 DUP3 ADD MLOAD DUP2 PUSH1 0x7 ADD SSTORE PUSH2 0x100 DUP3 ADD MLOAD DUP2 PUSH1 0x8 ADD SSTORE PUSH2 0x120 DUP3 ADD MLOAD DUP2 PUSH1 0x9 ADD SSTORE POP POP PUSH1 0x80 DUP3 ADD MLOAD DUP2 PUSH1 0x1C ADD PUSH1 0x0 DUP3 ADD MLOAD DUP2 PUSH1 0x0 ADD SSTORE PUSH1 0x20 DUP3 ADD MLOAD DUP2 PUSH1 0x1 ADD SSTORE POP POP POP POP PUSH1 0x20 DUP3 ADD MLOAD DUP2 PUSH1 0x1E ADD SWAP1 DUP2 PUSH2 0x28C1 SWAP2 SWAP1 PUSH2 0x3AC7 JUMP JUMPDEST POP PUSH1 0x40 DUP3 ADD MLOAD PUSH1 0x1F DUP3 ADD SWAP1 PUSH2 0x28D6 SWAP1 DUP3 PUSH2 0x3AC7 JUMP JUMPDEST POP PUSH1 0x60 DUP3 ADD MLOAD DUP1 MLOAD PUSH1 0x20 DUP4 ADD SWAP1 PUSH2 0x28F0 SWAP1 DUP3 SWAP1 PUSH1 0x17 PUSH2 0x3337 JUMP JUMPDEST POP POP POP POP PUSH1 0x1 PUSH1 0x1 PUSH1 0xA0 SHL SUB DUP11 AND PUSH1 0x0 DUP2 DUP2 MSTORE PUSH1 0xA PUSH1 0x20 SWAP1 DUP2 MSTORE PUSH1 0x40 DUP1 DUP4 KECCAK256 DUP1 SLOAD PUSH1 0x1 DUP1 DUP3 ADD DUP4 SSTORE SWAP2 DUP6 MSTORE DUP4 DUP6 KECCAK256 ADD DUP15 SWAP1 SSTORE SWAP4 DUP4 MSTORE PUSH1 0xB DUP3 MSTORE DUP1 DUP4 KECCAK256 DUP14 DUP5 MSTORE SWAP1 SWAP2 MSTORE SWAP1 KECCAK256 DUP1 SLOAD PUSH1 0xFF NOT AND SWAP1 SWAP2 OR SWAP1 SSTORE POP PUSH2 0x294A DUP10 DUP10 PUSH2 0x300B JUMP JUMPDEST POP POP POP POP POP POP POP POP POP JUMP JUMPDEST PUSH1 0x1 PUSH1 0x1 PUSH1 0xA0 SHL SUB DUP2 AND PUSH1 0x0 SWAP1 DUP2 MSTORE PUSH1 0x2 PUSH1 0x20 SWAP1 DUP2 MSTORE PUSH1 0x40 DUP1 DUP4 KECCAK256 DUP6 DUP5 MSTORE SWAP1 SWAP2 MSTORE SWAP1 KECCAK256 SLOAD PUSH1 0xFF AND ISZERO ISZERO PUSH1 0x1 EQ PUSH2 0x29FF JUMPI PUSH1 0x40 MLOAD PUSH3 0x461BCD PUSH1 0xE5 SHL DUP2 MSTORE PUSH1 0x20 PUSH1 0x4 DUP3 ADD MSTORE PUSH1 0x43 PUSH1 0x24 DUP3 ADD MSTORE PUSH32 0x43616E206E6F7420736F6C766520726571756573742061732072657175657374 PUSH1 0x44 DUP3 ADD MSTORE PUSH32 0x5F6964206F6620757365722077617320636F6E73696465726564206E6F742075 PUSH1 0x64 DUP3 ADD MSTORE PUSH3 0x1CD959 PUSH1 0xEA SHL PUSH1 0x84 DUP3 ADD MSTORE PUSH1 0xA4 ADD PUSH2 0x41A JUMP JUMPDEST PUSH1 0x1 PUSH1 0x1 PUSH1 0xA0 SHL SUB DUP2 AND PUSH1 0x0 SWAP1 DUP2 MSTORE PUSH1 0x1 PUSH1 0x20 MSTORE PUSH1 0x40 DUP2 KECCAK256 PUSH1 0x3 SLOAD DUP2 SLOAD SWAP2 SWAP3 SWAP1 SWAP2 SWAP1 JUMPDEST DUP2 DUP2 LT ISZERO PUSH2 0x2B0F JUMPI DUP6 DUP5 DUP3 DUP2 SLOAD DUP2 LT PUSH2 0x2A3D JUMPI PUSH2 0x2A3D PUSH2 0x39E8 JUMP JUMPDEST SWAP1 PUSH1 0x0 MSTORE PUSH1 0x20 PUSH1 0x0 KECCAK256 SWAP1 PUSH1 0x2 MUL ADD PUSH1 0x1 ADD SLOAD SUB PUSH2 0x2B07 JUMPI DUP4 PUSH2 0x2A60 PUSH1 0x1 DUP5 PUSH2 0x3B85 JUMP JUMPDEST DUP2 SLOAD DUP2 LT PUSH2 0x2A70 JUMPI PUSH2 0x2A70 PUSH2 0x39E8 JUMP JUMPDEST SWAP1 PUSH1 0x0 MSTORE PUSH1 0x20 PUSH1 0x0 KECCAK256 SWAP1 PUSH1 0x2 MUL ADD DUP5 DUP3 DUP2 SLOAD DUP2 LT PUSH2 0x2A90 JUMPI PUSH2 0x2A90 PUSH2 0x39E8 JUMP JUMPDEST PUSH1 0x0 SWAP2 DUP3 MSTORE PUSH1 0x20 SWAP1 SWAP2 KECCAK256 DUP3 SLOAD PUSH1 0x2 SWAP1 SWAP3 MUL ADD DUP1 SLOAD PUSH1 0x1 PUSH1 0x1 PUSH1 0xA0 SHL SUB NOT AND PUSH1 0x1 PUSH1 0x1 PUSH1 0xA0 SHL SUB SWAP1 SWAP3 AND SWAP2 SWAP1 SWAP2 OR DUP2 SSTORE PUSH1 0x1 SWAP2 DUP3 ADD SLOAD SWAP2 ADD SSTORE DUP4 SLOAD DUP5 SWAP1 DUP1 PUSH2 0x2AD9 JUMPI PUSH2 0x2AD9 PUSH2 0x3B98 JUMP JUMPDEST PUSH1 0x0 DUP3 DUP2 MSTORE PUSH1 0x20 DUP2 KECCAK256 PUSH1 0x2 PUSH1 0x0 NOT SWAP1 SWAP4 ADD SWAP3 DUP4 MUL ADD DUP1 SLOAD PUSH1 0x1 PUSH1 0x1 PUSH1 0xA0 SHL SUB NOT AND DUP2 SSTORE PUSH1 0x1 ADD SSTORE SWAP1 SSTORE PUSH2 0x2B0F JUMP JUMPDEST PUSH1 0x1 ADD PUSH2 0x2A22 JUMP JUMPDEST POP PUSH1 0x1 PUSH1 0x1 PUSH1 0xA0 SHL SUB DUP5 AND PUSH1 0x0 SWAP1 DUP2 MSTORE PUSH1 0x2 PUSH1 0x20 SWAP1 DUP2 MSTORE PUSH1 0x40 DUP1 DUP4 KECCAK256 DUP9 DUP5 MSTORE SWAP1 SWAP2 MSTORE SWAP1 KECCAK256 DUP1 SLOAD PUSH1 0xFF NOT AND SWAP1 SSTORE DUP3 SLOAD ISZERO PUSH2 0x2B49 JUMPI POP POP POP POP POP JUMP JUMPDEST PUSH1 0x1 PUSH1 0x1 PUSH1 0xA0 SHL SUB DUP5 AND PUSH1 0x0 SWAP1 DUP2 MSTORE PUSH1 0x1 PUSH1 0x20 MSTORE PUSH1 0x40 DUP2 KECCAK256 PUSH2 0x2B6A SWAP2 PUSH2 0x3375 JUMP JUMPDEST PUSH1 0x0 JUMPDEST DUP3 DUP2 LT ISZERO PUSH2 0x2C61 JUMPI DUP5 PUSH1 0x1 PUSH1 0x1 PUSH1 0xA0 SHL SUB AND PUSH1 0x1 PUSH1 0x2 ADD DUP3 DUP2 SLOAD DUP2 LT PUSH2 0x2B95 JUMPI PUSH2 0x2B95 PUSH2 0x39E8 JUMP JUMPDEST PUSH1 0x0 SWAP2 DUP3 MSTORE PUSH1 0x20 SWAP1 SWAP2 KECCAK256 ADD SLOAD PUSH1 0x1 PUSH1 0x1 PUSH1 0xA0 SHL SUB AND SUB PUSH2 0x2C59 JUMPI PUSH1 0x3 PUSH2 0x2BBC PUSH1 0x1 DUP6 PUSH2 0x3B85 JUMP JUMPDEST DUP2 SLOAD DUP2 LT PUSH2 0x2BCC JUMPI PUSH2 0x2BCC PUSH2 0x39E8 JUMP JUMPDEST PUSH1 0x0 SWAP2 DUP3 MSTORE PUSH1 0x20 SWAP1 SWAP2 KECCAK256 ADD SLOAD PUSH1 0x3 DUP1 SLOAD PUSH1 0x1 PUSH1 0x1 PUSH1 0xA0 SHL SUB SWAP1 SWAP3 AND SWAP2 DUP4 SWAP1 DUP2 LT PUSH2 0x2BF8 JUMPI PUSH2 0x2BF8 PUSH2 0x39E8 JUMP JUMPDEST PUSH1 0x0 SWAP2 DUP3 MSTORE PUSH1 0x20 SWAP1 SWAP2 KECCAK256 ADD DUP1 SLOAD PUSH1 0x1 PUSH1 0x1 PUSH1 0xA0 SHL SUB NOT AND PUSH1 0x1 PUSH1 0x1 PUSH1 0xA0 SHL SUB SWAP3 SWAP1 SWAP3 AND SWAP2 SWAP1 SWAP2 OR SWAP1 SSTORE PUSH1 0x3 DUP1 SLOAD DUP1 PUSH2 0x2C32 JUMPI PUSH2 0x2C32 PUSH2 0x3B98 JUMP JUMPDEST PUSH1 0x0 DUP3 DUP2 MSTORE PUSH1 0x20 SWAP1 KECCAK256 DUP2 ADD PUSH1 0x0 NOT SWAP1 DUP2 ADD DUP1 SLOAD PUSH1 0x1 PUSH1 0x1 PUSH1 0xA0 SHL SUB NOT AND SWAP1 SSTORE ADD SWAP1 SSTORE PUSH2 0x2C61 JUMP JUMPDEST PUSH1 0x1 ADD PUSH2 0x2B6D JUMP JUMPDEST POP POP POP POP POP POP JUMP JUMPDEST PUSH1 0x40 DUP1 MLOAD PUSH2 0x180 DUP2 ADD DUP3 MSTORE DUP6 MLOAD DUP2 MSTORE PUSH1 0x20 DUP1 DUP8 ADD MLOAD DUP2 DUP4 ADD MSTORE DUP6 ADD MLOAD DUP2 DUP4 ADD MSTORE DUP5 MLOAD PUSH1 0x60 DUP1 DUP4 ADD SWAP2 SWAP1 SWAP2 MSTORE DUP6 ADD MLOAD PUSH1 0x80 DUP3 ADD MSTORE SWAP1 DUP5 ADD MLOAD PUSH1 0xA0 DUP3 ADD MSTORE DUP3 MLOAD PUSH1 0xC0 DUP3 ADD MSTORE PUSH1 0x0 SWAP1 DUP2 SWAP1 PUSH1 0xE0 DUP2 ADD PUSH32 0x30644E72E131A029B85045B68181585D97816A916871CA8D3C208C16D87CFD47 DUP7 PUSH1 0x1 PUSH1 0x20 MUL ADD MLOAD PUSH2 0x2D08 SWAP1 PUSH32 0x30644E72E131A029B85045B68181585D97816A916871CA8D3C208C16D87CFD47 PUSH2 0x3B85 JUMP JUMPDEST PUSH2 0x2D12 SWAP2 SWAP1 PUSH2 0x3BAE JUMP JUMPDEST DUP2 MSTORE PUSH1 0x20 DUP6 DUP2 ADD MLOAD SWAP1 DUP3 ADD MSTORE DUP5 MLOAD PUSH1 0x40 DUP3 ADD MSTORE PUSH1 0x60 DUP1 DUP7 ADD MLOAD SWAP1 DUP3 ADD MSTORE PUSH1 0x80 ADD DUP5 PUSH1 0x2 PUSH1 0x20 MUL ADD MLOAD DUP2 MSTORE POP SWAP1 POP PUSH1 0x0 PUSH1 0xC PUSH1 0x20 PUSH2 0x2D4F SWAP2 SWAP1 PUSH2 0x3A14 JUMP JUMPDEST SWAP1 POP PUSH2 0x2D59 PUSH2 0x3399 JUMP JUMPDEST PUSH1 0x20 DUP2 DUP4 DUP6 PUSH1 0x8 GAS STATICCALL PUSH2 0x2D6B JUMPI PUSH1 0x0 DUP1 REVERT JUMPDEST MLOAD PUSH1 0x1 EQ SWAP8 SWAP7 POP POP POP POP POP POP POP JUMP JUMPDEST PUSH1 0xC DUP1 SLOAD PUSH1 0x0 JUMPDEST DUP2 DUP2 LT ISZERO PUSH2 0x2F7C JUMPI DUP5 PUSH1 0x1 PUSH1 0x1 PUSH1 0xA0 SHL SUB AND DUP4 DUP3 DUP2 SLOAD DUP2 LT PUSH2 0x2DA5 JUMPI PUSH2 0x2DA5 PUSH2 0x39E8 JUMP JUMPDEST PUSH1 0x0 SWAP2 DUP3 MSTORE PUSH1 0x20 SWAP1 SWAP2 KECCAK256 PUSH1 0x2 PUSH1 0xD SWAP1 SWAP3 MUL ADD ADD SLOAD PUSH1 0x1 PUSH1 0x1 PUSH1 0xA0 SHL SUB AND EQ ISZERO DUP1 PUSH2 0x2DF2 JUMPI POP DUP4 DUP4 DUP3 DUP2 SLOAD DUP2 LT PUSH2 0x2DDD JUMPI PUSH2 0x2DDD PUSH2 0x39E8 JUMP JUMPDEST SWAP1 PUSH1 0x0 MSTORE PUSH1 0x20 PUSH1 0x0 KECCAK256 SWAP1 PUSH1 0xD MUL ADD PUSH1 0x1 ADD SLOAD EQ ISZERO JUMPDEST PUSH2 0x2F74 JUMPI DUP3 PUSH2 0x2E02 PUSH1 0x1 DUP5 PUSH2 0x3B85 JUMP JUMPDEST DUP2 SLOAD DUP2 LT PUSH2 0x2E12 JUMPI PUSH2 0x2E12 PUSH2 0x39E8 JUMP JUMPDEST SWAP1 PUSH1 0x0 MSTORE PUSH1 0x20 PUSH1 0x0 KECCAK256 SWAP1 PUSH1 0xD MUL ADD DUP4 DUP3 DUP2 SLOAD DUP2 LT PUSH2 0x2E32 JUMPI PUSH2 0x2E32 PUSH2 0x39E8 JUMP JUMPDEST PUSH1 0x0 SWAP2 DUP3 MSTORE PUSH1 0x20 SWAP1 SWAP2 KECCAK256 DUP3 SLOAD PUSH1 0xD SWAP1 SWAP3 MUL ADD DUP1 SLOAD PUSH1 0x1 PUSH1 0x1 PUSH1 0xA0 SHL SUB SWAP3 DUP4 AND PUSH1 0x1 PUSH1 0x1 PUSH1 0xA0 SHL SUB NOT SWAP2 DUP3 AND OR DUP3 SSTORE PUSH1 0x1 DUP1 DUP6 ADD SLOAD SWAP1 DUP4 ADD SSTORE PUSH1 0x2 DUP1 DUP6 ADD SLOAD SWAP1 DUP4 ADD DUP1 SLOAD SWAP2 SWAP1 SWAP5 AND SWAP2 AND OR SWAP1 SWAP2 SSTORE PUSH1 0x3 DUP1 DUP4 ADD SLOAD SWAP1 DUP3 ADD SSTORE PUSH1 0x4 DUP1 DUP4 ADD SLOAD SWAP1 DUP3 ADD SSTORE PUSH1 0x5 DUP1 DUP4 ADD SLOAD SWAP1 DUP3 ADD SSTORE PUSH1 0x6 DUP1 DUP4 ADD SLOAD SWAP1 DUP3 ADD SSTORE PUSH1 0x7 DUP1 DUP4 ADD SLOAD SWAP1 DUP3 ADD SSTORE PUSH1 0x8 DUP1 DUP4 ADD SLOAD SWAP1 DUP3 ADD SSTORE PUSH1 0x9 DUP1 DUP4 ADD SLOAD SWAP1 DUP3 ADD SSTORE PUSH1 0xA DUP1 DUP4 ADD SLOAD SWAP1 DUP3 ADD SSTORE PUSH1 0xB DUP1 DUP4 ADD SLOAD SWAP1 DUP3 ADD SSTORE PUSH1 0xC SWAP2 DUP3 ADD SLOAD SWAP2 ADD SSTORE DUP3 SLOAD DUP4 SWAP1 DUP1 PUSH2 0x2EF3 JUMPI PUSH2 0x2EF3 PUSH2 0x3B98 JUMP JUMPDEST PUSH1 0x0 DUP3 DUP2 MSTORE PUSH1 0x20 DUP2 KECCAK256 PUSH1 0xD PUSH1 0x0 NOT SWAP1 SWAP4 ADD SWAP3 DUP4 MUL ADD DUP1 SLOAD PUSH1 0x1 PUSH1 0x1 PUSH1 0xA0 SHL SUB NOT SWAP1 DUP2 AND DUP3 SSTORE PUSH1 0x1 DUP3 ADD DUP4 SWAP1 SSTORE PUSH1 0x2 DUP3 ADD DUP1 SLOAD SWAP1 SWAP2 AND SWAP1 SSTORE PUSH1 0x3 DUP2 ADD DUP3 SWAP1 SSTORE PUSH1 0x4 DUP2 ADD DUP3 SWAP1 SSTORE PUSH1 0x5 DUP2 ADD DUP3 SWAP1 SSTORE PUSH1 0x6 DUP2 ADD DUP3 SWAP1 SSTORE PUSH1 0x7 DUP2 ADD DUP3 SWAP1 SSTORE PUSH1 0x8 DUP2 ADD DUP3 SWAP1 SSTORE PUSH1 0x9 DUP2 ADD DUP3 SWAP1 SSTORE PUSH1 0xA DUP2 ADD DUP3 SWAP1 SSTORE PUSH1 0xB DUP2 ADD DUP3 SWAP1 SSTORE PUSH1 0xC ADD SSTORE SWAP1 SSTORE PUSH2 0x2F7C JUMP JUMPDEST PUSH1 0x1 ADD PUSH2 0x2D81 JUMP JUMPDEST POP POP POP PUSH1 0x1 PUSH1 0x1 PUSH1 0xA0 SHL SUB SWAP1 SWAP2 AND PUSH1 0x0 SWAP1 DUP2 MSTORE PUSH1 0xD PUSH1 0x20 SWAP1 DUP2 MSTORE PUSH1 0x40 DUP1 DUP4 KECCAK256 SWAP4 DUP4 MSTORE SWAP3 SWAP1 MSTORE SWAP1 DUP2 KECCAK256 DUP1 SLOAD PUSH1 0x1 PUSH1 0x1 PUSH1 0xA0 SHL SUB NOT SWAP1 DUP2 AND DUP3 SSTORE PUSH1 0x1 DUP3 ADD DUP4 SWAP1 SSTORE PUSH1 0x2 DUP3 ADD DUP1 SLOAD SWAP1 SWAP2 AND SWAP1 SSTORE PUSH1 0x3 DUP2 ADD DUP3 SWAP1 SSTORE PUSH1 0x4 DUP2 ADD DUP3 SWAP1 SSTORE PUSH1 0x5 DUP2 ADD DUP3 SWAP1 SSTORE PUSH1 0x6 DUP2 ADD DUP3 SWAP1 SSTORE PUSH1 0x7 DUP2 ADD DUP3 SWAP1 SSTORE PUSH1 0x8 DUP2 ADD DUP3 SWAP1 SSTORE PUSH1 0x9 DUP2 ADD DUP3 SWAP1 SSTORE PUSH1 0xA DUP2 ADD DUP3 SWAP1 SSTORE PUSH1 0xB DUP2 ADD DUP3 SWAP1 SSTORE PUSH1 0xC ADD SSTORE JUMP JUMPDEST PUSH1 0x1 PUSH1 0x1 PUSH1 0xA0 SHL SUB DUP3 AND PUSH1 0x0 DUP2 DUP2 MSTORE PUSH1 0x6 PUSH1 0x20 SWAP1 DUP2 MSTORE PUSH1 0x40 DUP1 DUP4 KECCAK256 DUP6 DUP5 MSTORE DUP3 MSTORE DUP1 DUP4 KECCAK256 SLOAD SWAP4 DUP4 MSTORE PUSH1 0x7 DUP3 MSTORE DUP1 DUP4 KECCAK256 DUP5 DUP5 MSTORE SWAP1 SWAP2 MSTORE SWAP1 KECCAK256 SLOAD PUSH1 0xFF AND ISZERO ISZERO PUSH1 0x1 EQ PUSH2 0x30F0 JUMPI PUSH1 0x40 MLOAD PUSH3 0x461BCD PUSH1 0xE5 SHL DUP2 MSTORE PUSH1 0x20 PUSH1 0x4 DUP3 ADD MSTORE PUSH1 0x65 PUSH1 0x24 DUP3 ADD MSTORE PUSH32 0x46696C652049442070617373656420666F722072656D6F76616C2066726F6D20 PUSH1 0x44 DUP3 ADD MSTORE PUSH32 0x70656E64696E672066696C657320746F2075706C6F616420646F6573206E6F74 PUSH1 0x64 DUP3 ADD MSTORE PUSH32 0x207265666572656E636520612076616C696420656E74727920666F7220746865 PUSH1 0x84 DUP3 ADD MSTORE PUSH5 0x103AB9B2B9 PUSH1 0xD9 SHL PUSH1 0xA4 DUP3 ADD MSTORE PUSH1 0xC4 ADD PUSH2 0x41A JUMP JUMPDEST PUSH1 0x1 PUSH1 0x1 PUSH1 0xA0 SHL SUB DUP4 AND PUSH1 0x0 DUP2 DUP2 MSTORE PUSH1 0x4 PUSH1 0x20 DUP2 DUP2 MSTORE PUSH1 0x40 DUP1 DUP5 KECCAK256 DUP8 DUP6 MSTORE DUP3 MSTORE DUP1 DUP5 KECCAK256 DUP5 DUP2 SSTORE PUSH1 0x1 DUP2 ADD DUP1 SLOAD PUSH1 0x1 PUSH1 0x1 PUSH1 0xA0 SHL SUB NOT AND SWAP1 SSTORE PUSH1 0x2 DUP2 ADD DUP6 SWAP1 SSTORE PUSH1 0x3 DUP2 ADD DUP6 SWAP1 SSTORE SWAP3 DUP4 ADD DUP5 SWAP1 SSTORE PUSH1 0x5 DUP1 DUP5 ADD DUP6 SWAP1 SSTORE PUSH1 0x6 DUP1 DUP6 ADD DUP7 SWAP1 SSTORE PUSH1 0x7 DUP1 DUP7 ADD DUP8 SWAP1 SSTORE PUSH1 0x8 DUP1 DUP8 ADD DUP9 SWAP1 SSTORE PUSH1 0x9 DUP8 ADD DUP9 SWAP1 SSTORE PUSH1 0xA DUP8 ADD DUP9 SWAP1 SSTORE PUSH1 0xB DUP8 ADD DUP9 SWAP1 SSTORE PUSH1 0xC DUP8 ADD DUP9 SWAP1 SSTORE PUSH1 0xD DUP8 ADD DUP9 SWAP1 SSTORE PUSH1 0xE DUP8 ADD DUP9 SWAP1 SSTORE PUSH1 0xF DUP8 ADD DUP9 SWAP1 SSTORE PUSH1 0x10 DUP8 ADD DUP9 SWAP1 SSTORE PUSH1 0x11 DUP8 ADD DUP9 SWAP1 SSTORE PUSH1 0x12 DUP8 ADD DUP9 SWAP1 SSTORE PUSH1 0x13 DUP8 ADD DUP9 SWAP1 SSTORE PUSH1 0x14 DUP8 ADD DUP9 SWAP1 SSTORE PUSH1 0x15 DUP8 ADD DUP9 SWAP1 SSTORE PUSH1 0x16 DUP8 ADD DUP9 SWAP1 SSTORE PUSH1 0x17 DUP8 ADD DUP9 SWAP1 SSTORE PUSH1 0x18 DUP8 ADD DUP9 SWAP1 SSTORE PUSH1 0x19 DUP8 ADD DUP9 SWAP1 SSTORE PUSH1 0x1A DUP8 ADD DUP9 SWAP1 SSTORE PUSH1 0x1B DUP8 ADD DUP9 SWAP1 SSTORE PUSH1 0x1C DUP8 ADD DUP9 SWAP1 SSTORE PUSH1 0x1D SWAP1 SWAP7 ADD DUP8 SWAP1 SSTORE DUP8 DUP8 MSTORE SWAP2 DUP5 MSTORE DUP3 DUP7 KECCAK256 DUP9 DUP8 MSTORE DUP5 MSTORE DUP3 DUP7 KECCAK256 DUP7 SWAP1 SSTORE DUP7 DUP7 MSTORE DUP4 MSTORE DUP2 DUP6 KECCAK256 DUP9 DUP7 MSTORE DUP4 MSTORE DUP2 DUP6 KECCAK256 DUP6 SWAP1 SSTORE DUP6 DUP6 MSTORE DUP3 MSTORE DUP1 DUP5 KECCAK256 DUP7 DUP6 MSTORE DUP3 MSTORE DUP1 DUP5 KECCAK256 DUP1 SLOAD PUSH1 0xFF NOT AND SWAP1 SSTORE SWAP4 DUP4 MSTORE MSTORE SWAP1 DUP2 KECCAK256 DUP1 SLOAD SWAP1 SWAP2 JUMPDEST DUP2 DUP2 LT ISZERO PUSH2 0x2C61 JUMPI PUSH1 0x1 PUSH1 0x1 PUSH1 0xA0 SHL SUB DUP7 AND PUSH1 0x0 SWAP1 DUP2 MSTORE PUSH1 0x8 PUSH1 0x20 MSTORE PUSH1 0x40 SWAP1 KECCAK256 DUP1 SLOAD DUP6 SWAP2 SWAP1 DUP4 SWAP1 DUP2 LT PUSH2 0x3270 JUMPI PUSH2 0x3270 PUSH2 0x39E8 JUMP JUMPDEST SWAP1 PUSH1 0x0 MSTORE PUSH1 0x20 PUSH1 0x0 KECCAK256 ADD SLOAD SUB PUSH2 0x32F2 JUMPI DUP3 PUSH2 0x328C PUSH1 0x1 DUP5 PUSH2 0x3B85 JUMP JUMPDEST DUP2 SLOAD DUP2 LT PUSH2 0x329C JUMPI PUSH2 0x329C PUSH2 0x39E8 JUMP JUMPDEST SWAP1 PUSH1 0x0 MSTORE PUSH1 0x20 PUSH1 0x0 KECCAK256 ADD SLOAD DUP4 DUP3 DUP2 SLOAD DUP2 LT PUSH2 0x32B9 JUMPI PUSH2 0x32B9 PUSH2 0x39E8 JUMP JUMPDEST SWAP1 PUSH1 0x0 MSTORE PUSH1 0x20 PUSH1 0x0 KECCAK256 ADD DUP2 SWAP1 SSTORE POP DUP3 DUP1 SLOAD DUP1 PUSH2 0x32D7 JUMPI PUSH2 0x32D7 PUSH2 0x3B98 JUMP JUMPDEST PUSH1 0x1 SWAP1 SUB DUP2 DUP2 SWAP1 PUSH1 0x0 MSTORE PUSH1 0x20 PUSH1 0x0 KECCAK256 ADD PUSH1 0x0 SWAP1 SSTORE SWAP1 SSTORE PUSH2 0x2C61 JUMP JUMPDEST PUSH1 0x1 ADD PUSH2 0x323B JUMP JUMPDEST PUSH1 0x40 MLOAD DUP1 PUSH1 0x40 ADD PUSH1 0x40 MSTORE DUP1 PUSH1 0x2 SWAP1 PUSH1 0x20 DUP3 MUL DUP1 CALLDATASIZE DUP4 CALLDATACOPY POP SWAP2 SWAP3 SWAP2 POP POP JUMP JUMPDEST PUSH1 0x40 MLOAD DUP1 PUSH2 0x260 ADD PUSH1 0x40 MSTORE DUP1 PUSH1 0x13 SWAP1 PUSH1 0x20 DUP3 MUL DUP1 CALLDATASIZE DUP4 CALLDATACOPY POP SWAP2 SWAP3 SWAP2 POP POP JUMP JUMPDEST DUP3 PUSH1 0x17 DUP2 ADD SWAP3 DUP3 ISZERO PUSH2 0x3365 JUMPI SWAP2 PUSH1 0x20 MUL DUP3 ADD JUMPDEST DUP3 DUP2 GT ISZERO PUSH2 0x3365 JUMPI DUP3 MLOAD DUP3 SSTORE SWAP2 PUSH1 0x20 ADD SWAP2 SWAP1 PUSH1 0x1 ADD SWAP1 PUSH2 0x334A JUMP JUMPDEST POP PUSH2 0x3371 SWAP3 SWAP2 POP PUSH2 0x33B7 JUMP JUMPDEST POP SWAP1 JUMP JUMPDEST POP DUP1 SLOAD PUSH1 0x0 DUP3 SSTORE PUSH1 0x2 MUL SWAP1 PUSH1 0x0 MSTORE PUSH1 0x20 PUSH1 0x0 KECCAK256 SWAP1 DUP2 ADD SWAP1 PUSH2 0x3396 SWAP2 SWAP1 PUSH2 0x33CC JUMP JUMPDEST POP JUMP JUMPDEST PUSH1 0x40 MLOAD DUP1 PUSH1 0x20 ADD PUSH1 0x40 MSTORE DUP1 PUSH1 0x1 SWAP1 PUSH1 0x20 DUP3 MUL DUP1 CALLDATASIZE DUP4 CALLDATACOPY POP SWAP2 SWAP3 SWAP2 POP POP JUMP JUMPDEST JUMPDEST DUP1 DUP3 GT ISZERO PUSH2 0x3371 JUMPI PUSH1 0x0 DUP2 SSTORE PUSH1 0x1 ADD PUSH2 0x33B8 JUMP JUMPDEST JUMPDEST DUP1 DUP3 GT ISZERO PUSH2 0x3371 JUMPI DUP1 SLOAD PUSH1 0x1 PUSH1 0x1 PUSH1 0xA0 SHL SUB NOT AND DUP2 SSTORE PUSH1 0x0 PUSH1 0x1 DUP3 ADD SSTORE PUSH1 0x2 ADD PUSH2 0x33CD JUMP JUMPDEST DUP1 CALLDATALOAD PUSH1 0x1 PUSH1 0x1 PUSH1 0xA0 SHL SUB DUP2 AND DUP2 EQ PUSH2 0x3409 JUMPI PUSH1 0x0 DUP1 REVERT JUMPDEST SWAP2 SWAP1 POP JUMP JUMPDEST PUSH1 0x0 DUP1 PUSH1 0x40 DUP4 DUP6 SUB SLT ISZERO PUSH2 0x3421 JUMPI PUSH1 0x0 DUP1 REVERT JUMPDEST PUSH2 0x342A DUP4 PUSH2 0x33F2 JUMP JUMPDEST SWAP5 PUSH1 0x20 SWAP4 SWAP1 SWAP4 ADD CALLDATALOAD SWAP4 POP POP POP JUMP JUMPDEST DUP3 ISZERO ISZERO DUP2 MSTORE PUSH1 0x60 DUP2 ADD PUSH1 0x20 DUP3 ADD DUP4 PUSH1 0x0 JUMPDEST PUSH1 0x2 DUP2 LT ISZERO PUSH2 0x3468 JUMPI DUP2 MLOAD DUP4 MSTORE PUSH1 0x20 SWAP3 DUP4 ADD SWAP3 SWAP1 SWAP2 ADD SWAP1 PUSH1 0x1 ADD PUSH2 0x3449 JUMP JUMPDEST POP POP POP SWAP4 SWAP3 POP POP POP JUMP JUMPDEST PUSH2 0x260 DUP2 ADD DUP2 DUP4 PUSH1 0x0 JUMPDEST PUSH1 0x13 DUP2 LT ISZERO PUSH2 0x349B JUMPI DUP2 MLOAD DUP4 MSTORE PUSH1 0x20 SWAP3 DUP4 ADD SWAP3 SWAP1 SWAP2 ADD SWAP1 PUSH1 0x1 ADD PUSH2 0x347C JUMP JUMPDEST POP POP POP SWAP3 SWAP2 POP POP JUMP JUMPDEST PUSH1 0x0 PUSH1 0x20 DUP3 DUP5 SUB SLT ISZERO PUSH2 0x34B6 JUMPI PUSH1 0x0 DUP1 REVERT JUMPDEST PUSH2 0x34BF DUP3 PUSH2 0x33F2 JUMP JUMPDEST SWAP4 SWAP3 POP POP POP JUMP JUMPDEST PUSH1 0x0 DUP2 MLOAD DUP1 DUP5 MSTORE PUSH1 0x20 DUP5 ADD SWAP4 POP PUSH1 0x20 DUP4 ADD PUSH1 0x0 JUMPDEST DUP3 DUP2 LT ISZERO PUSH2 0x34F8 JUMPI DUP2 MLOAD DUP7 MSTORE PUSH1 0x20 SWAP6 DUP7 ADD SWAP6 SWAP1 SWAP2 ADD SWAP1 PUSH1 0x1 ADD PUSH2 0x34DA JUMP JUMPDEST POP SWAP4 SWAP5 SWAP4 POP POP POP POP JUMP JUMPDEST PUSH1 0x20 DUP2 MSTORE PUSH1 0x0 PUSH2 0x34BF PUSH1 0x20 DUP4 ADD DUP5 PUSH2 0x34C6 JUMP JUMPDEST PUSH1 0x0 DUP2 MLOAD DUP1 DUP5 MSTORE PUSH1 0x20 DUP5 ADD SWAP4 POP PUSH1 0x20 DUP4 ADD PUSH1 0x0 JUMPDEST DUP3 DUP2 LT ISZERO PUSH2 0x34F8 JUMPI DUP2 MLOAD PUSH1 0x1 PUSH1 0x1 PUSH1 0xA0 SHL SUB AND DUP7 MSTORE PUSH1 0x20 SWAP6 DUP7 ADD SWAP6 SWAP1 SWAP2 ADD SWAP1 PUSH1 0x1 ADD PUSH2 0x3529 JUMP JUMPDEST PUSH1 0x20 DUP2 MSTORE PUSH1 0x0 PUSH2 0x34BF PUSH1 0x20 DUP4 ADD DUP5 PUSH2 0x3515 JUMP JUMPDEST PUSH4 0x4E487B71 PUSH1 0xE0 SHL PUSH1 0x0 MSTORE PUSH1 0x41 PUSH1 0x4 MSTORE PUSH1 0x24 PUSH1 0x0 REVERT JUMPDEST PUSH1 0x40 MLOAD PUSH1 0x1F DUP3 ADD PUSH1 0x1F NOT AND DUP2 ADD PUSH1 0x1 PUSH1 0x1 PUSH1 0x40 SHL SUB DUP2 GT DUP3 DUP3 LT OR ISZERO PUSH2 0x35A1 JUMPI PUSH2 0x35A1 PUSH2 0x3563 JUMP JUMPDEST PUSH1 0x40 MSTORE SWAP2 SWAP1 POP JUMP JUMPDEST PUSH1 0x0 DUP3 PUSH1 0x1F DUP4 ADD SLT PUSH2 0x35BA JUMPI PUSH1 0x0 DUP1 REVERT JUMPDEST DUP2 CALLDATALOAD PUSH1 0x1 PUSH1 0x1 PUSH1 0x40 SHL SUB DUP2 GT ISZERO PUSH2 0x35D3 JUMPI PUSH2 0x35D3 PUSH2 0x3563 JUMP JUMPDEST DUP1 PUSH1 0x5 SHL PUSH2 0x35E3 PUSH1 0x20 DUP3 ADD PUSH2 0x3579 JUMP JUMPDEST SWAP2 DUP3 MSTORE PUSH1 0x20 DUP2 DUP6 ADD DUP2 ADD SWAP3 SWAP1 DUP2 ADD SWAP1 DUP7 DUP5 GT ISZERO PUSH2 0x35FF JUMPI PUSH1 0x0 DUP1 REVERT JUMPDEST PUSH1 0x20 DUP7 ADD SWAP3 POP JUMPDEST DUP4 DUP4 LT ISZERO PUSH2 0x3621 JUMPI DUP3 CALLDATALOAD DUP3 MSTORE PUSH1 0x20 SWAP3 DUP4 ADD SWAP3 SWAP1 SWAP2 ADD SWAP1 PUSH2 0x3606 JUMP JUMPDEST SWAP7 SWAP6 POP POP POP POP POP POP JUMP JUMPDEST PUSH1 0x0 DUP1 PUSH1 0x0 DUP1 PUSH1 0x0 DUP1 PUSH1 0x0 DUP1 PUSH1 0x0 PUSH2 0x120 DUP11 DUP13 SUB SLT ISZERO PUSH2 0x364A JUMPI PUSH1 0x0 DUP1 REVERT JUMPDEST DUP10 CALLDATALOAD SWAP9 POP PUSH1 0x20 DUP11 ADD CALLDATALOAD SWAP8 POP PUSH2 0x3661 PUSH1 0x40 DUP12 ADD PUSH2 0x33F2 JUMP JUMPDEST SWAP7 POP PUSH1 0x60 DUP11 ADD CALLDATALOAD PUSH1 0x1 PUSH1 0x1 PUSH1 0x40 SHL SUB DUP2 GT ISZERO PUSH2 0x367C JUMPI PUSH1 0x0 DUP1 REVERT JUMPDEST PUSH2 0x3688 DUP13 DUP3 DUP14 ADD PUSH2 0x35A9 JUMP JUMPDEST SWAP7 POP POP PUSH1 0x80 DUP11 ADD CALLDATALOAD PUSH1 0x1 PUSH1 0x1 PUSH1 0x40 SHL SUB DUP2 GT ISZERO PUSH2 0x36A4 JUMPI PUSH1 0x0 DUP1 REVERT JUMPDEST PUSH2 0x36B0 DUP13 DUP3 DUP14 ADD PUSH2 0x35A9 JUMP JUMPDEST SWAP6 POP POP PUSH1 0xA0 DUP11 ADD CALLDATALOAD PUSH1 0x1 PUSH1 0x1 PUSH1 0x40 SHL SUB DUP2 GT ISZERO PUSH2 0x36CC JUMPI PUSH1 0x0 DUP1 REVERT JUMPDEST PUSH2 0x36D8 DUP13 DUP3 DUP14 ADD PUSH2 0x35A9 JUMP JUMPDEST SWAP5 POP POP PUSH1 0xC0 DUP11 ADD CALLDATALOAD PUSH1 0x1 PUSH1 0x1 PUSH1 0x40 SHL SUB DUP2 GT ISZERO PUSH2 0x36F4 JUMPI PUSH1 0x0 DUP1 REVERT JUMPDEST PUSH2 0x3700 DUP13 DUP3 DUP14 ADD PUSH2 0x35A9 JUMP JUMPDEST SWAP4 POP POP PUSH1 0xE0 DUP11 ADD CALLDATALOAD PUSH1 0x1 PUSH1 0x1 PUSH1 0x40 SHL SUB DUP2 GT ISZERO PUSH2 0x371C JUMPI PUSH1 0x0 DUP1 REVERT JUMPDEST PUSH2 0x3728 DUP13 DUP3 DUP14 ADD PUSH2 0x35A9 JUMP JUMPDEST SWAP3 POP POP PUSH2 0x100 DUP11 ADD CALLDATALOAD PUSH1 0x1 PUSH1 0x1 PUSH1 0x40 SHL SUB DUP2 GT ISZERO PUSH2 0x3745 JUMPI PUSH1 0x0 DUP1 REVERT JUMPDEST PUSH2 0x3751 DUP13 DUP3 DUP14 ADD PUSH2 0x35A9 JUMP JUMPDEST SWAP2 POP POP SWAP3 SWAP6 SWAP9 POP SWAP3 SWAP6 SWAP9 POP SWAP3 SWAP6 SWAP9 JUMP JUMPDEST PUSH1 0x80 DUP2 MSTORE PUSH1 0x0 PUSH2 0x3774 PUSH1 0x80 DUP4 ADD DUP8 PUSH2 0x3515 JUMP JUMPDEST DUP3 DUP2 SUB PUSH1 0x20 DUP5 ADD MSTORE PUSH2 0x3786 DUP2 DUP8 PUSH2 0x3515 JUMP JUMPDEST SWAP1 POP DUP3 DUP2 SUB PUSH1 0x40 DUP5 ADD MSTORE PUSH2 0x379A DUP2 DUP7 PUSH2 0x34C6 JUMP JUMPDEST SWAP1 POP DUP3 DUP2 SUB PUSH1 0x60 DUP5 ADD MSTORE PUSH2 0x37AE DUP2 DUP6 PUSH2 0x34C6 JUMP JUMPDEST SWAP8 SWAP7 POP POP POP POP POP POP POP JUMP JUMPDEST PUSH1 0x0 DUP1 PUSH1 0x0 PUSH1 0x80 DUP5 DUP7 SUB SLT ISZERO PUSH2 0x37CE JUMPI PUSH1 0x0 DUP1 REVERT JUMPDEST PUSH2 0x37D7 DUP5 PUSH2 0x33F2 JUMP JUMPDEST SWAP3 POP PUSH1 0x20 DUP5 ADD CALLDATALOAD SWAP2 POP PUSH1 0x0 PUSH1 0x5F DUP6 ADD DUP7 SGT PUSH2 0x37F0 JUMPI DUP1 DUP2 REVERT JUMPDEST DUP1 PUSH2 0x37FB PUSH1 0x40 PUSH2 0x3579 JUMP JUMPDEST SWAP1 POP DUP1 SWAP2 POP PUSH1 0x80 DUP7 ADD DUP8 DUP2 GT ISZERO PUSH2 0x3811 JUMPI PUSH1 0x0 DUP1 REVERT JUMPDEST PUSH1 0x40 DUP8 ADD JUMPDEST DUP2 DUP2 LT ISZERO PUSH2 0x382E JUMPI DUP1 CALLDATALOAD DUP5 MSTORE PUSH1 0x20 SWAP4 DUP5 ADD SWAP4 ADD PUSH2 0x3816 JUMP JUMPDEST POP POP DUP1 SWAP3 POP POP POP SWAP3 POP SWAP3 POP SWAP3 JUMP JUMPDEST PUSH1 0x0 DUP1 PUSH1 0x0 DUP1 PUSH1 0x80 DUP6 DUP8 SUB SLT ISZERO PUSH2 0x3852 JUMPI PUSH1 0x0 DUP1 REVERT JUMPDEST PUSH2 0x385B DUP6 PUSH2 0x33F2 JUMP JUMPDEST SWAP4 POP PUSH1 0x20 DUP6 ADD CALLDATALOAD PUSH1 0x1 PUSH1 0x1 PUSH1 0x40 SHL SUB DUP2 GT ISZERO PUSH2 0x3876 JUMPI PUSH1 0x0 DUP1 REVERT JUMPDEST PUSH2 0x3882 DUP8 DUP3 DUP9 ADD PUSH2 0x35A9 JUMP JUMPDEST SWAP4 POP POP PUSH2 0x3891 PUSH1 0x40 DUP7 ADD PUSH2 0x33F2 JUMP JUMPDEST SWAP4 SWAP7 SWAP3 SWAP6 POP SWAP3 SWAP4 PUSH1 0x60 ADD CALLDATALOAD SWAP3 POP POP JUMP JUMPDEST PUSH1 0x0 DUP3 PUSH1 0x1F DUP4 ADD SLT PUSH2 0x38B2 JUMPI PUSH1 0x0 DUP1 REVERT JUMPDEST DUP2 CALLDATALOAD PUSH1 0x1 PUSH1 0x1 PUSH1 0x40 SHL SUB DUP2 GT ISZERO PUSH2 0x38CB JUMPI PUSH2 0x38CB PUSH2 0x3563 JUMP JUMPDEST PUSH2 0x38DE PUSH1 0x1F DUP3 ADD PUSH1 0x1F NOT AND PUSH1 0x20 ADD PUSH2 0x3579 JUMP JUMPDEST DUP2 DUP2 MSTORE DUP5 PUSH1 0x20 DUP4 DUP7 ADD ADD GT ISZERO PUSH2 0x38F3 JUMPI PUSH1 0x0 DUP1 REVERT JUMPDEST DUP2 PUSH1 0x20 DUP6 ADD PUSH1 0x20 DUP4 ADD CALLDATACOPY PUSH1 0x0 SWAP2 DUP2 ADD PUSH1 0x20 ADD SWAP2 SWAP1 SWAP2 MSTORE SWAP4 SWAP3 POP POP POP JUMP JUMPDEST PUSH1 0x0 DUP1 PUSH1 0x0 DUP1 PUSH1 0x0 PUSH2 0x360 DUP7 DUP9 SUB SLT ISZERO PUSH2 0x3929 JUMPI PUSH1 0x0 DUP1 REVERT JUMPDEST PUSH2 0x3932 DUP7 PUSH2 0x33F2 JUMP JUMPDEST SWAP5 POP PUSH1 0x20 DUP7 ADD CALLDATALOAD SWAP4 POP PUSH1 0x40 DUP7 ADD CALLDATALOAD PUSH1 0x1 PUSH1 0x1 PUSH1 0x40 SHL SUB DUP2 GT ISZERO PUSH2 0x3954 JUMPI PUSH1 0x0 DUP1 REVERT JUMPDEST PUSH2 0x3960 DUP9 DUP3 DUP10 ADD PUSH2 0x38A1 JUMP JUMPDEST SWAP4 POP POP PUSH1 0x60 DUP7 ADD CALLDATALOAD PUSH1 0x1 PUSH1 0x1 PUSH1 0x40 SHL SUB DUP2 GT ISZERO PUSH2 0x397C JUMPI PUSH1 0x0 DUP1 REVERT JUMPDEST PUSH2 0x3988 DUP9 DUP3 DUP10 ADD PUSH2 0x38A1 JUMP JUMPDEST SWAP3 POP POP DUP7 PUSH1 0x9F DUP8 ADD SLT PUSH2 0x399A JUMPI PUSH1 0x0 DUP1 REVERT JUMPDEST PUSH1 0x80 DUP7 ADD PUSH1 0x0 PUSH2 0x2E0 PUSH2 0x39AC DUP2 PUSH2 0x3579 JUMP JUMPDEST SWAP2 POP DUP3 ADD DUP2 DUP11 DUP3 GT ISZERO PUSH2 0x39BE JUMPI PUSH1 0x0 DUP1 REVERT JUMPDEST JUMPDEST DUP2 DUP5 LT ISZERO PUSH2 0x39D7 JUMPI DUP4 CALLDATALOAD DUP2 MSTORE PUSH1 0x20 SWAP4 DUP5 ADD SWAP4 ADD PUSH2 0x39BF JUMP JUMPDEST POP POP DUP1 SWAP3 POP POP POP SWAP3 SWAP6 POP SWAP3 SWAP6 SWAP1 SWAP4 POP JUMP JUMPDEST PUSH4 0x4E487B71 PUSH1 0xE0 SHL PUSH1 0x0 MSTORE PUSH1 0x32 PUSH1 0x4 MSTORE PUSH1 0x24 PUSH1 0x0 REVERT JUMPDEST PUSH4 0x4E487B71 PUSH1 0xE0 SHL PUSH1 0x0 MSTORE PUSH1 0x11 PUSH1 0x4 MSTORE PUSH1 0x24 PUSH1 0x0 REVERT JUMPDEST DUP1 DUP3 MUL DUP2 ISZERO DUP3 DUP3 DIV DUP5 EQ OR PUSH2 0x5CD JUMPI PUSH2 0x5CD PUSH2 0x39FE JUMP JUMPDEST DUP1 DUP3 ADD DUP1 DUP3 GT ISZERO PUSH2 0x5CD JUMPI PUSH2 0x5CD PUSH2 0x39FE JUMP JUMPDEST PUSH1 0x1 DUP2 DUP2 SHR SWAP1 DUP3 AND DUP1 PUSH2 0x3A52 JUMPI PUSH1 0x7F DUP3 AND SWAP2 POP JUMPDEST PUSH1 0x20 DUP3 LT DUP2 SUB PUSH2 0x3A72 JUMPI PUSH4 0x4E487B71 PUSH1 0xE0 SHL PUSH1 0x0 MSTORE PUSH1 0x22 PUSH1 0x4 MSTORE PUSH1 0x24 PUSH1 0x0 REVERT JUMPDEST POP SWAP2 SWAP1 POP JUMP JUMPDEST PUSH1 0x1F DUP3 GT ISZERO PUSH2 0x3AC2 JUMPI DUP1 PUSH1 0x0 MSTORE PUSH1 0x20 PUSH1 0x0 KECCAK256 PUSH1 0x1F DUP5 ADD PUSH1 0x5 SHR DUP2 ADD PUSH1 0x20 DUP6 LT ISZERO PUSH2 0x3A9F JUMPI POP DUP1 JUMPDEST PUSH1 0x1F DUP5 ADD PUSH1 0x5 SHR DUP3 ADD SWAP2 POP JUMPDEST DUP2 DUP2 LT ISZERO PUSH2 0x3ABF JUMPI PUSH1 0x0 DUP2 SSTORE PUSH1 0x1 ADD PUSH2 0x3AAB JUMP JUMPDEST POP POP JUMPDEST POP POP POP JUMP JUMPDEST DUP2 MLOAD PUSH1 0x1 PUSH1 0x1 PUSH1 0x40 SHL SUB DUP2 GT ISZERO PUSH2 0x3AE0 JUMPI PUSH2 0x3AE0 PUSH2 0x3563 JUMP JUMPDEST PUSH2 0x3AF4 DUP2 PUSH2 0x3AEE DUP5 SLOAD PUSH2 0x3A3E JUMP JUMPDEST DUP5 PUSH2 0x3A78 JUMP JUMPDEST PUSH1 0x20 PUSH1 0x1F DUP3 GT PUSH1 0x1 DUP2 EQ PUSH2 0x3B28 JUMPI PUSH1 0x0 DUP4 ISZERO PUSH2 0x3B10 JUMPI POP DUP5 DUP3 ADD MLOAD JUMPDEST PUSH1 0x0 NOT PUSH1 0x3 DUP6 SWAP1 SHL SHR NOT AND PUSH1 0x1 DUP5 SWAP1 SHL OR DUP5 SSTORE PUSH2 0x3ABF JUMP JUMPDEST PUSH1 0x0 DUP5 DUP2 MSTORE PUSH1 0x20 DUP2 KECCAK256 PUSH1 0x1F NOT DUP6 AND SWAP2 JUMPDEST DUP3 DUP2 LT ISZERO PUSH2 0x3B58 JUMPI DUP8 DUP6 ADD MLOAD DUP3 SSTORE PUSH1 0x20 SWAP5 DUP6 ADD SWAP5 PUSH1 0x1 SWAP1 SWAP3 ADD SWAP2 ADD PUSH2 0x3B38 JUMP JUMPDEST POP DUP5 DUP3 LT ISZERO PUSH2 0x3B76 JUMPI DUP7 DUP5 ADD MLOAD PUSH1 0x0 NOT PUSH1 0x3 DUP8 SWAP1 SHL PUSH1 0xF8 AND SHR NOT AND DUP2 SSTORE JUMPDEST POP POP POP POP PUSH1 0x1 SWAP1 DUP2 SHL ADD SWAP1 SSTORE POP JUMP JUMPDEST DUP2 DUP2 SUB DUP2 DUP2 GT ISZERO PUSH2 0x5CD JUMPI PUSH2 0x5CD PUSH2 0x39FE JUMP JUMPDEST PUSH4 0x4E487B71 PUSH1 0xE0 SHL PUSH1 0x0 MSTORE PUSH1 0x31 PUSH1 0x4 MSTORE PUSH1 0x24 PUSH1 0x0 REVERT JUMPDEST PUSH1 0x0 DUP3 PUSH2 0x3BCB JUMPI PUSH4 0x4E487B71 PUSH1 0xE0 SHL PUSH1 0x0 MSTORE PUSH1 0x12 PUSH1 0x4 MSTORE PUSH1 0x24 PUSH1 0x0 REVERT JUMPDEST POP MOD SWAP1 JUMP INVALID LOG2 PUSH5 0x6970667358 0x22 SLT KECCAK256 0xE6 DUP5 LOG3 0xDF PUSH14 0xDC5B0E0D7F2FD647A6F64796DEE7 PUSH31 0xAFFE7A1B2190B37F6990ABBF64736F6C634300081C00330000000000000000 "
        },
        "methodIdentifiers": {
          "get_file_share_result(address,uint256)": "00618acb",
          "get_files_pending_ids_of_user(address)": "1974260a",
          "get_pending_share_requests()": "9b358456",
          "get_request_id_result(address,uint256)": "18884b49",
          "get_user_files_pending_upload(address)": "81cf3e5d",
          "get_users_pending_uploads()": "34bcaf89",
          "request_file_share(address,uint256[],address,uint256)": "c52b4846",
          "request_file_upload_info(address,uint256)": "6552db5d",
          "respond_with_file_id(uint256,uint256,address,uint256[],uint256[],uint256[],uint256[],uint256[],uint256[])": "58fccab1",
          "respond_with_re_encryption_key(address,uint256,uint256[2])": "9eda7614",
          "upload_file(address,uint256,string,string,uint256[23])": "c700a9dc"
        }
      }
    }
  }
}