{
  "contracts/main.sol": {
    "Algo3SimpleEncryption": {
      "abi": [
        {
          "inputs": [],
          "stateMutability": "nonpayable",
          "type": "constructor"
        },
        {
          "inputs": [
            {
              "internalType": "address",
              "name": "user",
              "type": "address"
            }
          ],
          "name": "check_if_registered",
          "outputs": [
            {
              "internalType": "bool",
              "name": "",
              "type": "bool"
            }
          ],
          "stateMutability": "view",
          "type": "function"
        },
        {
          "inputs": [
            {
              "internalType": "address",
              "name": "user",
              "type": "address"
            }
          ],
          "name": "get_file_owner_dpcn_address",
          "outputs": [
            {
              "internalType": "uint256",
              "name": "",
              "type": "uint256"
            }
          ],
          "stateMutability": "view",
          "type": "function"
        },
        {
          "inputs": [
            {
              "internalType": "address",
              "name": "client",
              "type": "address"
            },
            {
              "internalType": "uint256",
              "name": "file_id",
              "type": "uint256"
            }
          ],
          "name": "get_file_share_result",
          "outputs": [
            {
              "internalType": "bool",
              "name": "",
              "type": "bool"
            },
            {
              "internalType": "uint256",
              "name": "client_accessible_sym_key",
              "type": "uint256"
            }
          ],
          "stateMutability": "view",
          "type": "function"
        },
        {
          "inputs": [],
          "name": "get_pending_share_requests",
          "outputs": [
            {
              "internalType": "address[]",
              "name": "",
              "type": "address[]"
            },
            {
              "internalType": "uint256[]",
              "name": "",
              "type": "uint256[]"
            }
          ],
          "stateMutability": "view",
          "type": "function"
        },
        {
          "inputs": [],
          "name": "get_users_pending_registration",
          "outputs": [
            {
              "internalType": "address[]",
              "name": "",
              "type": "address[]"
            }
          ],
          "stateMutability": "view",
          "type": "function"
        },
        {
          "inputs": [
            {
              "internalType": "address",
              "name": "client",
              "type": "address"
            },
            {
              "internalType": "uint256",
              "name": "file_id",
              "type": "uint256"
            }
          ],
          "name": "request_file_share",
          "outputs": [],
          "stateMutability": "nonpayable",
          "type": "function"
        },
        {
          "inputs": [
            {
              "internalType": "address",
              "name": "user",
              "type": "address"
            }
          ],
          "name": "request_registration",
          "outputs": [],
          "stateMutability": "nonpayable",
          "type": "function"
        },
        {
          "inputs": [
            {
              "internalType": "address",
              "name": "client",
              "type": "address"
            },
            {
              "internalType": "uint256",
              "name": "file_id",
              "type": "uint256"
            },
            {
              "internalType": "uint256",
              "name": "client_accessible_sym_key",
              "type": "uint256"
            }
          ],
          "name": "respond_with_client_encrypted_sym_key",
          "outputs": [],
          "stateMutability": "nonpayable",
          "type": "function"
        },
        {
          "inputs": [
            {
              "internalType": "address",
              "name": "user",
              "type": "address"
            },
            {
              "internalType": "uint256",
              "name": "dpcn_pk",
              "type": "uint256"
            }
          ],
          "name": "respond_with_registration",
          "outputs": [],
          "stateMutability": "nonpayable",
          "type": "function"
        },
        {
          "inputs": [
            {
              "internalType": "address",
              "name": "owner",
              "type": "address"
            },
            {
              "internalType": "uint256",
              "name": "file_id",
              "type": "uint256"
            },
            {
              "internalType": "string",
              "name": "file_info",
              "type": "string"
            },
            {
              "internalType": "string",
              "name": "file_address",
              "type": "string"
            },
            {
              "internalType": "uint256",
              "name": "owner_accessible_sym_key",
              "type": "uint256"
            },
            {
              "internalType": "uint256",
              "name": "dpcn_accessible_sym_key",
              "type": "uint256"
            }
          ],
          "name": "upload_file",
          "outputs": [],
          "stateMutability": "nonpayable",
          "type": "function"
        }
      ],
      "evm": {
        "bytecode": {
          "linkReferences": {},
          "object": "6080604052348015600f57600080fd5b506112548061001f6000396000f3fe608060405234801561001057600080fd5b506004361061009d5760003560e01c80638cb0877f116100665780638cb0877f1461014857806395e2c2a81461015b5780639b3584561461017c578063bd6795c914610192578063c1f8ada1146101a757600080fd5b8062618acb146100a2578063062f8820146100d157806324e29479146100e6578063273a88e7146101225780637952e50114610135575b600080fd5b6100b56100b0366004610e18565b6101ba565b6040805192151583526020830191909152015b60405180910390f35b6100e46100df366004610e42565b610253565b005b6101126100f4366004610e75565b6001600160a01b031660009081526003602052604090205460ff1690565b60405190151581526020016100c8565b6100e4610130366004610e18565b6104f7565b6100e4610143366004610e75565b6106ae565b6100e4610156366004610e18565b61081b565b61016e610169366004610e75565b610a85565b6040519081526020016100c8565b610184610b09565b6040516100c8929190610edc565b61019a610c5d565b6040516100c89190610f36565b6100e46101b5366004610fee565b610cc2565b6001600160a01b0382166000908152600b60209081526040808320848452909152812054819060ff1615156001146101f5576000915061024c565b50506001600160a01b038083166000908152600a6020908152604080832085845282529182902082516060810184528154815260018083015490951681840152835192830184526002909101548252909101819052515b9250929050565b6001600160a01b038316600090815260096020908152604080832085845290915290205460ff1615156001146102e45760405162461bcd60e51b815260206004820152602b60248201527f436c69656e7420646964206e6f7420726571756573742073686172696e67206f60448201526a33103a3432903334b6329760a91b60648201526084015b60405180910390fd5b604080516020808201835283825282516060810184528581526001600160a01b038781168284018181528387018681526000838152600a87528881208b82528752888120865181559251600180850180546001600160a01b0319169290971691909117909555905151600290920191909155818152600b85528681208982528552868120805460ff19908116851790915591815260098552868120898252909452949092208054909416909355600754919291146104925760078054600091906103b090600190611083565b815481106103c0576103c06110aa565b60009182526020808320604080518082018252600290940290910180546001600160a01b039081168552600190910154848401528a16845260088252808420898552909152909120546007805492935083929091908110610423576104236110aa565b6000918252602080832084516002939093020180546001600160a01b0319166001600160a01b03938416178155938101516001909401939093558881168252600880845260408084208a8552855280842054865190931684529084528083209484015183529390925291909120555b60078054806104a3576104a36110c0565b6000828152602080822060026000199094019384020180546001600160a01b0319168155600101829055919092556001600160a01b0396909616815260088652604080822095825294909552505050812055565b6001600160a01b03821660009081526020819052604090205460ff1615156001146105705760405162461bcd60e51b8152602060048201526024808201527f5468652075736572206973206e6f742070656e64696e672072656769737472616044820152633a34b7b760e11b60648201526084016102db565b6001600160a01b03821660009081526003602090815260408083208054600160ff199182168117909255600484528285208690559284905292208054909116905580541461065c5760018054600091906105cb908290611083565b815481106105db576105db6110aa565b60009182526020808320909101546001600160a01b038681168452600290925260409092205460018054929093169350839291811061061c5761061c6110aa565b600091825260208083209190910180546001600160a01b0319166001600160a01b0394851617905585831682526002905260408082205493909216815220555b600180548061066d5761066d6110c0565b60008281526020808220830160001990810180546001600160a01b03191690559092019092556001600160a01b039390931681526002909252506040812055565b6001600160a01b03811660009081526020819052604090205460ff16156107235760405162461bcd60e51b8152602060048201526024808201527f5573657220697320616c72656164792070656e64696e672072656769737472616044820152633a34b7b760e11b60648201526084016102db565b6001600160a01b03811660009081526003602052604090205460ff161561078c5760405162461bcd60e51b815260206004820152601a60248201527f5573657220697320616c7265616479207265676973746572656400000000000060448201526064016102db565b6001600160a01b0381166000818152602081905260408120805460ff1916600190811790915580548082018255918190527fb10e2d527612073b26eecdfd717e6a320cf44b4afac2b0732d9fcbe2b7fa0cf690910180546001600160a01b03191690921790915580546107ff9190611083565b6001600160a01b03909116600090815260026020526040902055565b60008181526006602052604090205460ff1615156001146108935760405162461bcd60e51b815260206004820152602c60248201527f46696c6520494420646f6573206e6f74207265666572656e636520616e20757060448201526b3637b0b232b2103334b6329760a11b60648201526084016102db565b6001600160a01b038216600090815260096020908152604080832084845290915290205460ff16156109195760405162461bcd60e51b815260206004820152602960248201527f46696c652077617320616c726561647920726571756573746564206279207468604482015268329031b634b2b73a1760b91b60648201526084016102db565b6001600160a01b0382166000908152600b6020908152604080832084845290915290205460ff161561099c5760405162461bcd60e51b815260206004820152602660248201527f46696c652077617320616c72656164792073686172656420746f2074686520636044820152653634b2b73a1760d11b60648201526084016102db565b604080518082019091526001600160a01b038381168252602082018381526007805460018082018355600083905285517fa66cc928b5edb82af9bd49922954155ab7b0942694bea4ce44661d9a8736c688600290930292830180546001600160a01b031916919096161790945591517fa66cc928b5edb82af9bd49922954155ab7b0942694bea4ce44661d9a8736c6899092019190915554610a3e9190611083565b6001600160a01b039093166000818152600860209081526040808320868452825280832096909655918152600982528481209381529290525020805460ff19166001179055565b6001600160a01b03811660009081526003602052604081205460ff16610aed5760405162461bcd60e51b815260206004820152601a60248201527f5468652075736572206973206e6f74207265676973746572656400000000000060448201526064016102db565b506001600160a01b031660009081526004602052604090205490565b600754606090819060008167ffffffffffffffff811115610b2c57610b2c610f49565b604051908082528060200260200182016040528015610b55578160200160208202803683370190505b50905060008267ffffffffffffffff811115610b7357610b73610f49565b604051908082528060200260200182016040528015610b9c578160200160208202803683370190505b50905060005b83811015610c52576007805482908110610bbe57610bbe6110aa565b600091825260209091206002909102015483516001600160a01b0390911690849083908110610bef57610bef6110aa565b6001600160a01b03909216602092830291909101909101526007805482908110610c1b57610c1b6110aa565b906000526020600020906002020160010154828281518110610c3f57610c3f6110aa565b6020908102919091010152600101610ba2565b509094909350915050565b60606000600101805480602002602001604051908101604052809291908181526020018280548015610cb857602002820191906000526020600020905b81546001600160a01b03168152600190910190602001808311610c9a575b5050505050905090565b60008581526006602052604090205460ff1615610d185760405162461bcd60e51b8152602060048201526014602482015273119a5b1948125108185b1c9958591e481d5cd95960621b60448201526064016102db565b604080516020808201835284825282518082018452848152835160c0810185528981526001600160a01b038b81168285019081528287018b8152606084018b90526080840187905260a0840185905260008d81526005909652969094208251815593516001850180546001600160a01b03191691909216179055935192939092909182916002820190610dab908261115f565b5060608201516003820190610dc0908261115f565b50608082015151600482015560a09091015151600590910155505050600094855250506006602052505060409020805460ff1916600117905550565b80356001600160a01b0381168114610e1357600080fd5b919050565b60008060408385031215610e2b57600080fd5b610e3483610dfc565b946020939093013593505050565b600080600060608486031215610e5757600080fd5b610e6084610dfc565b95602085013595506040909401359392505050565b600060208284031215610e8757600080fd5b610e9082610dfc565b9392505050565b600081518084526020840193506020830160005b82811015610ed25781516001600160a01b0316865260209586019590910190600101610eab565b5093949350505050565b604081526000610eef6040830185610e97565b828103602084015280845180835260208301915060208601925060005b81811015610f2a578351835260209384019390920191600101610f0c565b50909695505050505050565b602081526000610e906020830184610e97565b634e487b7160e01b600052604160045260246000fd5b600082601f830112610f7057600080fd5b813567ffffffffffffffff811115610f8a57610f8a610f49565b604051601f8201601f19908116603f0116810167ffffffffffffffff81118282101715610fb957610fb9610f49565b604052818152838201602001851015610fd157600080fd5b816020850160208301376000918101602001919091529392505050565b60008060008060008060c0878903121561100757600080fd5b61101087610dfc565b955060208701359450604087013567ffffffffffffffff81111561103357600080fd5b61103f89828a01610f5f565b945050606087013567ffffffffffffffff81111561105c57600080fd5b61106889828a01610f5f565b9699959850939660808101359560a090910135945092505050565b818103818111156110a457634e487b7160e01b600052601160045260246000fd5b92915050565b634e487b7160e01b600052603260045260246000fd5b634e487b7160e01b600052603160045260246000fd5b600181811c908216806110ea57607f821691505b60208210810361110a57634e487b7160e01b600052602260045260246000fd5b50919050565b601f82111561115a57806000526020600020601f840160051c810160208510156111375750805b601f840160051c820191505b818110156111575760008155600101611143565b50505b505050565b815167ffffffffffffffff81111561117957611179610f49565b61118d8161118784546110d6565b84611110565b6020601f8211600181146111c157600083156111a95750848201515b600019600385901b1c1916600184901b178455611157565b600084815260208120601f198516915b828110156111f157878501518255602094850194600190920191016111d1565b508482101561120f5786840151600019600387901b60f8161c191681555b50505050600190811b0190555056fea2646970667358221220368aa42a484478a5d4d1df39bfed42008f82408c7b88c1c1eb438b81c07a8bdd64736f6c634300081c0033",
          "opcodes": "PUSH1 0x80 PUSH1 0x40 MSTORE CALLVALUE DUP1 ISZERO PUSH1 0xF JUMPI PUSH1 0x0 DUP1 REVERT JUMPDEST POP PUSH2 0x1254 DUP1 PUSH2 0x1F PUSH1 0x0 CODECOPY PUSH1 0x0 RETURN INVALID PUSH1 0x80 PUSH1 0x40 MSTORE CALLVALUE DUP1 ISZERO PUSH2 0x10 JUMPI PUSH1 0x0 DUP1 REVERT JUMPDEST POP PUSH1 0x4 CALLDATASIZE LT PUSH2 0x9D JUMPI PUSH1 0x0 CALLDATALOAD PUSH1 0xE0 SHR DUP1 PUSH4 0x8CB0877F GT PUSH2 0x66 JUMPI DUP1 PUSH4 0x8CB0877F EQ PUSH2 0x148 JUMPI DUP1 PUSH4 0x95E2C2A8 EQ PUSH2 0x15B JUMPI DUP1 PUSH4 0x9B358456 EQ PUSH2 0x17C JUMPI DUP1 PUSH4 0xBD6795C9 EQ PUSH2 0x192 JUMPI DUP1 PUSH4 0xC1F8ADA1 EQ PUSH2 0x1A7 JUMPI PUSH1 0x0 DUP1 REVERT JUMPDEST DUP1 PUSH3 0x618ACB EQ PUSH2 0xA2 JUMPI DUP1 PUSH4 0x62F8820 EQ PUSH2 0xD1 JUMPI DUP1 PUSH4 0x24E29479 EQ PUSH2 0xE6 JUMPI DUP1 PUSH4 0x273A88E7 EQ PUSH2 0x122 JUMPI DUP1 PUSH4 0x7952E501 EQ PUSH2 0x135 JUMPI JUMPDEST PUSH1 0x0 DUP1 REVERT JUMPDEST PUSH2 0xB5 PUSH2 0xB0 CALLDATASIZE PUSH1 0x4 PUSH2 0xE18 JUMP JUMPDEST PUSH2 0x1BA JUMP JUMPDEST PUSH1 0x40 DUP1 MLOAD SWAP3 ISZERO ISZERO DUP4 MSTORE PUSH1 0x20 DUP4 ADD SWAP2 SWAP1 SWAP2 MSTORE ADD JUMPDEST PUSH1 0x40 MLOAD DUP1 SWAP2 SUB SWAP1 RETURN JUMPDEST PUSH2 0xE4 PUSH2 0xDF CALLDATASIZE PUSH1 0x4 PUSH2 0xE42 JUMP JUMPDEST PUSH2 0x253 JUMP JUMPDEST STOP JUMPDEST PUSH2 0x112 PUSH2 0xF4 CALLDATASIZE PUSH1 0x4 PUSH2 0xE75 JUMP JUMPDEST PUSH1 0x1 PUSH1 0x1 PUSH1 0xA0 SHL SUB AND PUSH1 0x0 SWAP1 DUP2 MSTORE PUSH1 0x3 PUSH1 0x20 MSTORE PUSH1 0x40 SWAP1 KECCAK256 SLOAD PUSH1 0xFF AND SWAP1 JUMP JUMPDEST PUSH1 0x40 MLOAD SWAP1 ISZERO ISZERO DUP2 MSTORE PUSH1 0x20 ADD PUSH2 0xC8 JUMP JUMPDEST PUSH2 0xE4 PUSH2 0x130 CALLDATASIZE PUSH1 0x4 PUSH2 0xE18 JUMP JUMPDEST PUSH2 0x4F7 JUMP JUMPDEST PUSH2 0xE4 PUSH2 0x143 CALLDATASIZE PUSH1 0x4 PUSH2 0xE75 JUMP JUMPDEST PUSH2 0x6AE JUMP JUMPDEST PUSH2 0xE4 PUSH2 0x156 CALLDATASIZE PUSH1 0x4 PUSH2 0xE18 JUMP JUMPDEST PUSH2 0x81B JUMP JUMPDEST PUSH2 0x16E PUSH2 0x169 CALLDATASIZE PUSH1 0x4 PUSH2 0xE75 JUMP JUMPDEST PUSH2 0xA85 JUMP JUMPDEST PUSH1 0x40 MLOAD SWAP1 DUP2 MSTORE PUSH1 0x20 ADD PUSH2 0xC8 JUMP JUMPDEST PUSH2 0x184 PUSH2 0xB09 JUMP JUMPDEST PUSH1 0x40 MLOAD PUSH2 0xC8 SWAP3 SWAP2 SWAP1 PUSH2 0xEDC JUMP JUMPDEST PUSH2 0x19A PUSH2 0xC5D JUMP JUMPDEST PUSH1 0x40 MLOAD PUSH2 0xC8 SWAP2 SWAP1 PUSH2 0xF36 JUMP JUMPDEST PUSH2 0xE4 PUSH2 0x1B5 CALLDATASIZE PUSH1 0x4 PUSH2 0xFEE JUMP JUMPDEST PUSH2 0xCC2 JUMP JUMPDEST PUSH1 0x1 PUSH1 0x1 PUSH1 0xA0 SHL SUB DUP3 AND PUSH1 0x0 SWAP1 DUP2 MSTORE PUSH1 0xB PUSH1 0x20 SWAP1 DUP2 MSTORE PUSH1 0x40 DUP1 DUP4 KECCAK256 DUP5 DUP5 MSTORE SWAP1 SWAP2 MSTORE DUP2 KECCAK256 SLOAD DUP2 SWAP1 PUSH1 0xFF AND ISZERO ISZERO PUSH1 0x1 EQ PUSH2 0x1F5 JUMPI PUSH1 0x0 SWAP2 POP PUSH2 0x24C JUMP JUMPDEST POP POP PUSH1 0x1 PUSH1 0x1 PUSH1 0xA0 SHL SUB DUP1 DUP4 AND PUSH1 0x0 SWAP1 DUP2 MSTORE PUSH1 0xA PUSH1 0x20 SWAP1 DUP2 MSTORE PUSH1 0x40 DUP1 DUP4 KECCAK256 DUP6 DUP5 MSTORE DUP3 MSTORE SWAP2 DUP3 SWAP1 KECCAK256 DUP3 MLOAD PUSH1 0x60 DUP2 ADD DUP5 MSTORE DUP2 SLOAD DUP2 MSTORE PUSH1 0x1 DUP1 DUP4 ADD SLOAD SWAP1 SWAP6 AND DUP2 DUP5 ADD MSTORE DUP4 MLOAD SWAP3 DUP4 ADD DUP5 MSTORE PUSH1 0x2 SWAP1 SWAP2 ADD SLOAD DUP3 MSTORE SWAP1 SWAP2 ADD DUP2 SWAP1 MSTORE MLOAD JUMPDEST SWAP3 POP SWAP3 SWAP1 POP JUMP JUMPDEST PUSH1 0x1 PUSH1 0x1 PUSH1 0xA0 SHL SUB DUP4 AND PUSH1 0x0 SWAP1 DUP2 MSTORE PUSH1 0x9 PUSH1 0x20 SWAP1 DUP2 MSTORE PUSH1 0x40 DUP1 DUP4 KECCAK256 DUP6 DUP5 MSTORE SWAP1 SWAP2 MSTORE SWAP1 KECCAK256 SLOAD PUSH1 0xFF AND ISZERO ISZERO PUSH1 0x1 EQ PUSH2 0x2E4 JUMPI PUSH1 0x40 MLOAD PUSH3 0x461BCD PUSH1 0xE5 SHL DUP2 MSTORE PUSH1 0x20 PUSH1 0x4 DUP3 ADD MSTORE PUSH1 0x2B PUSH1 0x24 DUP3 ADD MSTORE PUSH32 0x436C69656E7420646964206E6F7420726571756573742073686172696E67206F PUSH1 0x44 DUP3 ADD MSTORE PUSH11 0x33103A3432903334B63297 PUSH1 0xA9 SHL PUSH1 0x64 DUP3 ADD MSTORE PUSH1 0x84 ADD JUMPDEST PUSH1 0x40 MLOAD DUP1 SWAP2 SUB SWAP1 REVERT JUMPDEST PUSH1 0x40 DUP1 MLOAD PUSH1 0x20 DUP1 DUP3 ADD DUP4 MSTORE DUP4 DUP3 MSTORE DUP3 MLOAD PUSH1 0x60 DUP2 ADD DUP5 MSTORE DUP6 DUP2 MSTORE PUSH1 0x1 PUSH1 0x1 PUSH1 0xA0 SHL SUB DUP8 DUP2 AND DUP3 DUP5 ADD DUP2 DUP2 MSTORE DUP4 DUP8 ADD DUP7 DUP2 MSTORE PUSH1 0x0 DUP4 DUP2 MSTORE PUSH1 0xA DUP8 MSTORE DUP9 DUP2 KECCAK256 DUP12 DUP3 MSTORE DUP8 MSTORE DUP9 DUP2 KECCAK256 DUP7 MLOAD DUP2 SSTORE SWAP3 MLOAD PUSH1 0x1 DUP1 DUP6 ADD DUP1 SLOAD PUSH1 0x1 PUSH1 0x1 PUSH1 0xA0 SHL SUB NOT AND SWAP3 SWAP1 SWAP8 AND SWAP2 SWAP1 SWAP2 OR SWAP1 SWAP6 SSTORE SWAP1 MLOAD MLOAD PUSH1 0x2 SWAP1 SWAP3 ADD SWAP2 SWAP1 SWAP2 SSTORE DUP2 DUP2 MSTORE PUSH1 0xB DUP6 MSTORE DUP7 DUP2 KECCAK256 DUP10 DUP3 MSTORE DUP6 MSTORE DUP7 DUP2 KECCAK256 DUP1 SLOAD PUSH1 0xFF NOT SWAP1 DUP2 AND DUP6 OR SWAP1 SWAP2 SSTORE SWAP2 DUP2 MSTORE PUSH1 0x9 DUP6 MSTORE DUP7 DUP2 KECCAK256 DUP10 DUP3 MSTORE SWAP1 SWAP5 MSTORE SWAP5 SWAP1 SWAP3 KECCAK256 DUP1 SLOAD SWAP1 SWAP5 AND SWAP1 SWAP4 SSTORE PUSH1 0x7 SLOAD SWAP2 SWAP3 SWAP2 EQ PUSH2 0x492 JUMPI PUSH1 0x7 DUP1 SLOAD PUSH1 0x0 SWAP2 SWAP1 PUSH2 0x3B0 SWAP1 PUSH1 0x1 SWAP1 PUSH2 0x1083 JUMP JUMPDEST DUP2 SLOAD DUP2 LT PUSH2 0x3C0 JUMPI PUSH2 0x3C0 PUSH2 0x10AA JUMP JUMPDEST PUSH1 0x0 SWAP2 DUP3 MSTORE PUSH1 0x20 DUP1 DUP4 KECCAK256 PUSH1 0x40 DUP1 MLOAD DUP1 DUP3 ADD DUP3 MSTORE PUSH1 0x2 SWAP1 SWAP5 MUL SWAP1 SWAP2 ADD DUP1 SLOAD PUSH1 0x1 PUSH1 0x1 PUSH1 0xA0 SHL SUB SWAP1 DUP2 AND DUP6 MSTORE PUSH1 0x1 SWAP1 SWAP2 ADD SLOAD DUP5 DUP5 ADD MSTORE DUP11 AND DUP5 MSTORE PUSH1 0x8 DUP3 MSTORE DUP1 DUP5 KECCAK256 DUP10 DUP6 MSTORE SWAP1 SWAP2 MSTORE SWAP1 SWAP2 KECCAK256 SLOAD PUSH1 0x7 DUP1 SLOAD SWAP3 SWAP4 POP DUP4 SWAP3 SWAP1 SWAP2 SWAP1 DUP2 LT PUSH2 0x423 JUMPI PUSH2 0x423 PUSH2 0x10AA JUMP JUMPDEST PUSH1 0x0 SWAP2 DUP3 MSTORE PUSH1 0x20 DUP1 DUP4 KECCAK256 DUP5 MLOAD PUSH1 0x2 SWAP4 SWAP1 SWAP4 MUL ADD DUP1 SLOAD PUSH1 0x1 PUSH1 0x1 PUSH1 0xA0 SHL SUB NOT AND PUSH1 0x1 PUSH1 0x1 PUSH1 0xA0 SHL SUB SWAP4 DUP5 AND OR DUP2 SSTORE SWAP4 DUP2 ADD MLOAD PUSH1 0x1 SWAP1 SWAP5 ADD SWAP4 SWAP1 SWAP4 SSTORE DUP9 DUP2 AND DUP3 MSTORE PUSH1 0x8 DUP1 DUP5 MSTORE PUSH1 0x40 DUP1 DUP5 KECCAK256 DUP11 DUP6 MSTORE DUP6 MSTORE DUP1 DUP5 KECCAK256 SLOAD DUP7 MLOAD SWAP1 SWAP4 AND DUP5 MSTORE SWAP1 DUP5 MSTORE DUP1 DUP4 KECCAK256 SWAP5 DUP5 ADD MLOAD DUP4 MSTORE SWAP4 SWAP1 SWAP3 MSTORE SWAP2 SWAP1 SWAP2 KECCAK256 SSTORE JUMPDEST PUSH1 0x7 DUP1 SLOAD DUP1 PUSH2 0x4A3 JUMPI PUSH2 0x4A3 PUSH2 0x10C0 JUMP JUMPDEST PUSH1 0x0 DUP3 DUP2 MSTORE PUSH1 0x20 DUP1 DUP3 KECCAK256 PUSH1 0x2 PUSH1 0x0 NOT SWAP1 SWAP5 ADD SWAP4 DUP5 MUL ADD DUP1 SLOAD PUSH1 0x1 PUSH1 0x1 PUSH1 0xA0 SHL SUB NOT AND DUP2 SSTORE PUSH1 0x1 ADD DUP3 SWAP1 SSTORE SWAP2 SWAP1 SWAP3 SSTORE PUSH1 0x1 PUSH1 0x1 PUSH1 0xA0 SHL SUB SWAP7 SWAP1 SWAP7 AND DUP2 MSTORE PUSH1 0x8 DUP7 MSTORE PUSH1 0x40 DUP1 DUP3 KECCAK256 SWAP6 DUP3 MSTORE SWAP5 SWAP1 SWAP6 MSTORE POP POP POP DUP2 KECCAK256 SSTORE JUMP JUMPDEST PUSH1 0x1 PUSH1 0x1 PUSH1 0xA0 SHL SUB DUP3 AND PUSH1 0x0 SWAP1 DUP2 MSTORE PUSH1 0x20 DUP2 SWAP1 MSTORE PUSH1 0x40 SWAP1 KECCAK256 SLOAD PUSH1 0xFF AND ISZERO ISZERO PUSH1 0x1 EQ PUSH2 0x570 JUMPI PUSH1 0x40 MLOAD PUSH3 0x461BCD PUSH1 0xE5 SHL DUP2 MSTORE PUSH1 0x20 PUSH1 0x4 DUP3 ADD MSTORE PUSH1 0x24 DUP1 DUP3 ADD MSTORE PUSH32 0x5468652075736572206973206E6F742070656E64696E67207265676973747261 PUSH1 0x44 DUP3 ADD MSTORE PUSH4 0x3A34B7B7 PUSH1 0xE1 SHL PUSH1 0x64 DUP3 ADD MSTORE PUSH1 0x84 ADD PUSH2 0x2DB JUMP JUMPDEST PUSH1 0x1 PUSH1 0x1 PUSH1 0xA0 SHL SUB DUP3 AND PUSH1 0x0 SWAP1 DUP2 MSTORE PUSH1 0x3 PUSH1 0x20 SWAP1 DUP2 MSTORE PUSH1 0x40 DUP1 DUP4 KECCAK256 DUP1 SLOAD PUSH1 0x1 PUSH1 0xFF NOT SWAP2 DUP3 AND DUP2 OR SWAP1 SWAP3 SSTORE PUSH1 0x4 DUP5 MSTORE DUP3 DUP6 KECCAK256 DUP7 SWAP1 SSTORE SWAP3 DUP5 SWAP1 MSTORE SWAP3 KECCAK256 DUP1 SLOAD SWAP1 SWAP2 AND SWAP1 SSTORE DUP1 SLOAD EQ PUSH2 0x65C JUMPI PUSH1 0x1 DUP1 SLOAD PUSH1 0x0 SWAP2 SWAP1 PUSH2 0x5CB SWAP1 DUP3 SWAP1 PUSH2 0x1083 JUMP JUMPDEST DUP2 SLOAD DUP2 LT PUSH2 0x5DB JUMPI PUSH2 0x5DB PUSH2 0x10AA JUMP JUMPDEST PUSH1 0x0 SWAP2 DUP3 MSTORE PUSH1 0x20 DUP1 DUP4 KECCAK256 SWAP1 SWAP2 ADD SLOAD PUSH1 0x1 PUSH1 0x1 PUSH1 0xA0 SHL SUB DUP7 DUP2 AND DUP5 MSTORE PUSH1 0x2 SWAP1 SWAP3 MSTORE PUSH1 0x40 SWAP1 SWAP3 KECCAK256 SLOAD PUSH1 0x1 DUP1 SLOAD SWAP3 SWAP1 SWAP4 AND SWAP4 POP DUP4 SWAP3 SWAP2 DUP2 LT PUSH2 0x61C JUMPI PUSH2 0x61C PUSH2 0x10AA JUMP JUMPDEST PUSH1 0x0 SWAP2 DUP3 MSTORE PUSH1 0x20 DUP1 DUP4 KECCAK256 SWAP2 SWAP1 SWAP2 ADD DUP1 SLOAD PUSH1 0x1 PUSH1 0x1 PUSH1 0xA0 SHL SUB NOT AND PUSH1 0x1 PUSH1 0x1 PUSH1 0xA0 SHL SUB SWAP5 DUP6 AND OR SWAP1 SSTORE DUP6 DUP4 AND DUP3 MSTORE PUSH1 0x2 SWAP1 MSTORE PUSH1 0x40 DUP1 DUP3 KECCAK256 SLOAD SWAP4 SWAP1 SWAP3 AND DUP2 MSTORE KECCAK256 SSTORE JUMPDEST PUSH1 0x1 DUP1 SLOAD DUP1 PUSH2 0x66D JUMPI PUSH2 0x66D PUSH2 0x10C0 JUMP JUMPDEST PUSH1 0x0 DUP3 DUP2 MSTORE PUSH1 0x20 DUP1 DUP3 KECCAK256 DUP4 ADD PUSH1 0x0 NOT SWAP1 DUP2 ADD DUP1 SLOAD PUSH1 0x1 PUSH1 0x1 PUSH1 0xA0 SHL SUB NOT AND SWAP1 SSTORE SWAP1 SWAP3 ADD SWAP1 SWAP3 SSTORE PUSH1 0x1 PUSH1 0x1 PUSH1 0xA0 SHL SUB SWAP4 SWAP1 SWAP4 AND DUP2 MSTORE PUSH1 0x2 SWAP1 SWAP3 MSTORE POP PUSH1 0x40 DUP2 KECCAK256 SSTORE JUMP JUMPDEST PUSH1 0x1 PUSH1 0x1 PUSH1 0xA0 SHL SUB DUP2 AND PUSH1 0x0 SWAP1 DUP2 MSTORE PUSH1 0x20 DUP2 SWAP1 MSTORE PUSH1 0x40 SWAP1 KECCAK256 SLOAD PUSH1 0xFF AND ISZERO PUSH2 0x723 JUMPI PUSH1 0x40 MLOAD PUSH3 0x461BCD PUSH1 0xE5 SHL DUP2 MSTORE PUSH1 0x20 PUSH1 0x4 DUP3 ADD MSTORE PUSH1 0x24 DUP1 DUP3 ADD MSTORE PUSH32 0x5573657220697320616C72656164792070656E64696E67207265676973747261 PUSH1 0x44 DUP3 ADD MSTORE PUSH4 0x3A34B7B7 PUSH1 0xE1 SHL PUSH1 0x64 DUP3 ADD MSTORE PUSH1 0x84 ADD PUSH2 0x2DB JUMP JUMPDEST PUSH1 0x1 PUSH1 0x1 PUSH1 0xA0 SHL SUB DUP2 AND PUSH1 0x0 SWAP1 DUP2 MSTORE PUSH1 0x3 PUSH1 0x20 MSTORE PUSH1 0x40 SWAP1 KECCAK256 SLOAD PUSH1 0xFF AND ISZERO PUSH2 0x78C JUMPI PUSH1 0x40 MLOAD PUSH3 0x461BCD PUSH1 0xE5 SHL DUP2 MSTORE PUSH1 0x20 PUSH1 0x4 DUP3 ADD MSTORE PUSH1 0x1A PUSH1 0x24 DUP3 ADD MSTORE PUSH32 0x5573657220697320616C72656164792072656769737465726564000000000000 PUSH1 0x44 DUP3 ADD MSTORE PUSH1 0x64 ADD PUSH2 0x2DB JUMP JUMPDEST PUSH1 0x1 PUSH1 0x1 PUSH1 0xA0 SHL SUB DUP2 AND PUSH1 0x0 DUP2 DUP2 MSTORE PUSH1 0x20 DUP2 SWAP1 MSTORE PUSH1 0x40 DUP2 KECCAK256 DUP1 SLOAD PUSH1 0xFF NOT AND PUSH1 0x1 SWAP1 DUP2 OR SWAP1 SWAP2 SSTORE DUP1 SLOAD DUP1 DUP3 ADD DUP3 SSTORE SWAP2 DUP2 SWAP1 MSTORE PUSH32 0xB10E2D527612073B26EECDFD717E6A320CF44B4AFAC2B0732D9FCBE2B7FA0CF6 SWAP1 SWAP2 ADD DUP1 SLOAD PUSH1 0x1 PUSH1 0x1 PUSH1 0xA0 SHL SUB NOT AND SWAP1 SWAP3 OR SWAP1 SWAP2 SSTORE DUP1 SLOAD PUSH2 0x7FF SWAP2 SWAP1 PUSH2 0x1083 JUMP JUMPDEST PUSH1 0x1 PUSH1 0x1 PUSH1 0xA0 SHL SUB SWAP1 SWAP2 AND PUSH1 0x0 SWAP1 DUP2 MSTORE PUSH1 0x2 PUSH1 0x20 MSTORE PUSH1 0x40 SWAP1 KECCAK256 SSTORE JUMP JUMPDEST PUSH1 0x0 DUP2 DUP2 MSTORE PUSH1 0x6 PUSH1 0x20 MSTORE PUSH1 0x40 SWAP1 KECCAK256 SLOAD PUSH1 0xFF AND ISZERO ISZERO PUSH1 0x1 EQ PUSH2 0x893 JUMPI PUSH1 0x40 MLOAD PUSH3 0x461BCD PUSH1 0xE5 SHL DUP2 MSTORE PUSH1 0x20 PUSH1 0x4 DUP3 ADD MSTORE PUSH1 0x2C PUSH1 0x24 DUP3 ADD MSTORE PUSH32 0x46696C6520494420646F6573206E6F74207265666572656E636520616E207570 PUSH1 0x44 DUP3 ADD MSTORE PUSH12 0x3637B0B232B2103334B63297 PUSH1 0xA1 SHL PUSH1 0x64 DUP3 ADD MSTORE PUSH1 0x84 ADD PUSH2 0x2DB JUMP JUMPDEST PUSH1 0x1 PUSH1 0x1 PUSH1 0xA0 SHL SUB DUP3 AND PUSH1 0x0 SWAP1 DUP2 MSTORE PUSH1 0x9 PUSH1 0x20 SWAP1 DUP2 MSTORE PUSH1 0x40 DUP1 DUP4 KECCAK256 DUP5 DUP5 MSTORE SWAP1 SWAP2 MSTORE SWAP1 KECCAK256 SLOAD PUSH1 0xFF AND ISZERO PUSH2 0x919 JUMPI PUSH1 0x40 MLOAD PUSH3 0x461BCD PUSH1 0xE5 SHL DUP2 MSTORE PUSH1 0x20 PUSH1 0x4 DUP3 ADD MSTORE PUSH1 0x29 PUSH1 0x24 DUP3 ADD MSTORE PUSH32 0x46696C652077617320616C726561647920726571756573746564206279207468 PUSH1 0x44 DUP3 ADD MSTORE PUSH9 0x329031B634B2B73A17 PUSH1 0xB9 SHL PUSH1 0x64 DUP3 ADD MSTORE PUSH1 0x84 ADD PUSH2 0x2DB JUMP JUMPDEST PUSH1 0x1 PUSH1 0x1 PUSH1 0xA0 SHL SUB DUP3 AND PUSH1 0x0 SWAP1 DUP2 MSTORE PUSH1 0xB PUSH1 0x20 SWAP1 DUP2 MSTORE PUSH1 0x40 DUP1 DUP4 KECCAK256 DUP5 DUP5 MSTORE SWAP1 SWAP2 MSTORE SWAP1 KECCAK256 SLOAD PUSH1 0xFF AND ISZERO PUSH2 0x99C JUMPI PUSH1 0x40 MLOAD PUSH3 0x461BCD PUSH1 0xE5 SHL DUP2 MSTORE PUSH1 0x20 PUSH1 0x4 DUP3 ADD MSTORE PUSH1 0x26 PUSH1 0x24 DUP3 ADD MSTORE PUSH32 0x46696C652077617320616C72656164792073686172656420746F207468652063 PUSH1 0x44 DUP3 ADD MSTORE PUSH6 0x3634B2B73A17 PUSH1 0xD1 SHL PUSH1 0x64 DUP3 ADD MSTORE PUSH1 0x84 ADD PUSH2 0x2DB JUMP JUMPDEST PUSH1 0x40 DUP1 MLOAD DUP1 DUP3 ADD SWAP1 SWAP2 MSTORE PUSH1 0x1 PUSH1 0x1 PUSH1 0xA0 SHL SUB DUP4 DUP2 AND DUP3 MSTORE PUSH1 0x20 DUP3 ADD DUP4 DUP2 MSTORE PUSH1 0x7 DUP1 SLOAD PUSH1 0x1 DUP1 DUP3 ADD DUP4 SSTORE PUSH1 0x0 DUP4 SWAP1 MSTORE DUP6 MLOAD PUSH32 0xA66CC928B5EDB82AF9BD49922954155AB7B0942694BEA4CE44661D9A8736C688 PUSH1 0x2 SWAP1 SWAP4 MUL SWAP3 DUP4 ADD DUP1 SLOAD PUSH1 0x1 PUSH1 0x1 PUSH1 0xA0 SHL SUB NOT AND SWAP2 SWAP1 SWAP7 AND OR SWAP1 SWAP5 SSTORE SWAP2 MLOAD PUSH32 0xA66CC928B5EDB82AF9BD49922954155AB7B0942694BEA4CE44661D9A8736C689 SWAP1 SWAP3 ADD SWAP2 SWAP1 SWAP2 SSTORE SLOAD PUSH2 0xA3E SWAP2 SWAP1 PUSH2 0x1083 JUMP JUMPDEST PUSH1 0x1 PUSH1 0x1 PUSH1 0xA0 SHL SUB SWAP1 SWAP4 AND PUSH1 0x0 DUP2 DUP2 MSTORE PUSH1 0x8 PUSH1 0x20 SWAP1 DUP2 MSTORE PUSH1 0x40 DUP1 DUP4 KECCAK256 DUP7 DUP5 MSTORE DUP3 MSTORE DUP1 DUP4 KECCAK256 SWAP7 SWAP1 SWAP7 SSTORE SWAP2 DUP2 MSTORE PUSH1 0x9 DUP3 MSTORE DUP5 DUP2 KECCAK256 SWAP4 DUP2 MSTORE SWAP3 SWAP1 MSTORE POP KECCAK256 DUP1 SLOAD PUSH1 0xFF NOT AND PUSH1 0x1 OR SWAP1 SSTORE JUMP JUMPDEST PUSH1 0x1 PUSH1 0x1 PUSH1 0xA0 SHL SUB DUP2 AND PUSH1 0x0 SWAP1 DUP2 MSTORE PUSH1 0x3 PUSH1 0x20 MSTORE PUSH1 0x40 DUP2 KECCAK256 SLOAD PUSH1 0xFF AND PUSH2 0xAED JUMPI PUSH1 0x40 MLOAD PUSH3 0x461BCD PUSH1 0xE5 SHL DUP2 MSTORE PUSH1 0x20 PUSH1 0x4 DUP3 ADD MSTORE PUSH1 0x1A PUSH1 0x24 DUP3 ADD MSTORE PUSH32 0x5468652075736572206973206E6F742072656769737465726564000000000000 PUSH1 0x44 DUP3 ADD MSTORE PUSH1 0x64 ADD PUSH2 0x2DB JUMP JUMPDEST POP PUSH1 0x1 PUSH1 0x1 PUSH1 0xA0 SHL SUB AND PUSH1 0x0 SWAP1 DUP2 MSTORE PUSH1 0x4 PUSH1 0x20 MSTORE PUSH1 0x40 SWAP1 KECCAK256 SLOAD SWAP1 JUMP JUMPDEST PUSH1 0x7 SLOAD PUSH1 0x60 SWAP1 DUP2 SWAP1 PUSH1 0x0 DUP2 PUSH8 0xFFFFFFFFFFFFFFFF DUP2 GT ISZERO PUSH2 0xB2C JUMPI PUSH2 0xB2C PUSH2 0xF49 JUMP JUMPDEST PUSH1 0x40 MLOAD SWAP1 DUP1 DUP3 MSTORE DUP1 PUSH1 0x20 MUL PUSH1 0x20 ADD DUP3 ADD PUSH1 0x40 MSTORE DUP1 ISZERO PUSH2 0xB55 JUMPI DUP2 PUSH1 0x20 ADD PUSH1 0x20 DUP3 MUL DUP1 CALLDATASIZE DUP4 CALLDATACOPY ADD SWAP1 POP JUMPDEST POP SWAP1 POP PUSH1 0x0 DUP3 PUSH8 0xFFFFFFFFFFFFFFFF DUP2 GT ISZERO PUSH2 0xB73 JUMPI PUSH2 0xB73 PUSH2 0xF49 JUMP JUMPDEST PUSH1 0x40 MLOAD SWAP1 DUP1 DUP3 MSTORE DUP1 PUSH1 0x20 MUL PUSH1 0x20 ADD DUP3 ADD PUSH1 0x40 MSTORE DUP1 ISZERO PUSH2 0xB9C JUMPI DUP2 PUSH1 0x20 ADD PUSH1 0x20 DUP3 MUL DUP1 CALLDATASIZE DUP4 CALLDATACOPY ADD SWAP1 POP JUMPDEST POP SWAP1 POP PUSH1 0x0 JUMPDEST DUP4 DUP2 LT ISZERO PUSH2 0xC52 JUMPI PUSH1 0x7 DUP1 SLOAD DUP3 SWAP1 DUP2 LT PUSH2 0xBBE JUMPI PUSH2 0xBBE PUSH2 0x10AA JUMP JUMPDEST PUSH1 0x0 SWAP2 DUP3 MSTORE PUSH1 0x20 SWAP1 SWAP2 KECCAK256 PUSH1 0x2 SWAP1 SWAP2 MUL ADD SLOAD DUP4 MLOAD PUSH1 0x1 PUSH1 0x1 PUSH1 0xA0 SHL SUB SWAP1 SWAP2 AND SWAP1 DUP5 SWAP1 DUP4 SWAP1 DUP2 LT PUSH2 0xBEF JUMPI PUSH2 0xBEF PUSH2 0x10AA JUMP JUMPDEST PUSH1 0x1 PUSH1 0x1 PUSH1 0xA0 SHL SUB SWAP1 SWAP3 AND PUSH1 0x20 SWAP3 DUP4 MUL SWAP2 SWAP1 SWAP2 ADD SWAP1 SWAP2 ADD MSTORE PUSH1 0x7 DUP1 SLOAD DUP3 SWAP1 DUP2 LT PUSH2 0xC1B JUMPI PUSH2 0xC1B PUSH2 0x10AA JUMP JUMPDEST SWAP1 PUSH1 0x0 MSTORE PUSH1 0x20 PUSH1 0x0 KECCAK256 SWAP1 PUSH1 0x2 MUL ADD PUSH1 0x1 ADD SLOAD DUP3 DUP3 DUP2 MLOAD DUP2 LT PUSH2 0xC3F JUMPI PUSH2 0xC3F PUSH2 0x10AA JUMP JUMPDEST PUSH1 0x20 SWAP1 DUP2 MUL SWAP2 SWAP1 SWAP2 ADD ADD MSTORE PUSH1 0x1 ADD PUSH2 0xBA2 JUMP JUMPDEST POP SWAP1 SWAP5 SWAP1 SWAP4 POP SWAP2 POP POP JUMP JUMPDEST PUSH1 0x60 PUSH1 0x0 PUSH1 0x1 ADD DUP1 SLOAD DUP1 PUSH1 0x20 MUL PUSH1 0x20 ADD PUSH1 0x40 MLOAD SWAP1 DUP2 ADD PUSH1 0x40 MSTORE DUP1 SWAP3 SWAP2 SWAP1 DUP2 DUP2 MSTORE PUSH1 0x20 ADD DUP3 DUP1 SLOAD DUP1 ISZERO PUSH2 0xCB8 JUMPI PUSH1 0x20 MUL DUP3 ADD SWAP2 SWAP1 PUSH1 0x0 MSTORE PUSH1 0x20 PUSH1 0x0 KECCAK256 SWAP1 JUMPDEST DUP2 SLOAD PUSH1 0x1 PUSH1 0x1 PUSH1 0xA0 SHL SUB AND DUP2 MSTORE PUSH1 0x1 SWAP1 SWAP2 ADD SWAP1 PUSH1 0x20 ADD DUP1 DUP4 GT PUSH2 0xC9A JUMPI JUMPDEST POP POP POP POP POP SWAP1 POP SWAP1 JUMP JUMPDEST PUSH1 0x0 DUP6 DUP2 MSTORE PUSH1 0x6 PUSH1 0x20 MSTORE PUSH1 0x40 SWAP1 KECCAK256 SLOAD PUSH1 0xFF AND ISZERO PUSH2 0xD18 JUMPI PUSH1 0x40 MLOAD PUSH3 0x461BCD PUSH1 0xE5 SHL DUP2 MSTORE PUSH1 0x20 PUSH1 0x4 DUP3 ADD MSTORE PUSH1 0x14 PUSH1 0x24 DUP3 ADD MSTORE PUSH20 0x119A5B1948125108185B1C9958591E481D5CD959 PUSH1 0x62 SHL PUSH1 0x44 DUP3 ADD MSTORE PUSH1 0x64 ADD PUSH2 0x2DB JUMP JUMPDEST PUSH1 0x40 DUP1 MLOAD PUSH1 0x20 DUP1 DUP3 ADD DUP4 MSTORE DUP5 DUP3 MSTORE DUP3 MLOAD DUP1 DUP3 ADD DUP5 MSTORE DUP5 DUP2 MSTORE DUP4 MLOAD PUSH1 0xC0 DUP2 ADD DUP6 MSTORE DUP10 DUP2 MSTORE PUSH1 0x1 PUSH1 0x1 PUSH1 0xA0 SHL SUB DUP12 DUP2 AND DUP3 DUP6 ADD SWAP1 DUP2 MSTORE DUP3 DUP8 ADD DUP12 DUP2 MSTORE PUSH1 0x60 DUP5 ADD DUP12 SWAP1 MSTORE PUSH1 0x80 DUP5 ADD DUP8 SWAP1 MSTORE PUSH1 0xA0 DUP5 ADD DUP6 SWAP1 MSTORE PUSH1 0x0 DUP14 DUP2 MSTORE PUSH1 0x5 SWAP1 SWAP7 MSTORE SWAP7 SWAP1 SWAP5 KECCAK256 DUP3 MLOAD DUP2 SSTORE SWAP4 MLOAD PUSH1 0x1 DUP6 ADD DUP1 SLOAD PUSH1 0x1 PUSH1 0x1 PUSH1 0xA0 SHL SUB NOT AND SWAP2 SWAP1 SWAP3 AND OR SWAP1 SSTORE SWAP4 MLOAD SWAP3 SWAP4 SWAP1 SWAP3 SWAP1 SWAP2 DUP3 SWAP2 PUSH1 0x2 DUP3 ADD SWAP1 PUSH2 0xDAB SWAP1 DUP3 PUSH2 0x115F JUMP JUMPDEST POP PUSH1 0x60 DUP3 ADD MLOAD PUSH1 0x3 DUP3 ADD SWAP1 PUSH2 0xDC0 SWAP1 DUP3 PUSH2 0x115F JUMP JUMPDEST POP PUSH1 0x80 DUP3 ADD MLOAD MLOAD PUSH1 0x4 DUP3 ADD SSTORE PUSH1 0xA0 SWAP1 SWAP2 ADD MLOAD MLOAD PUSH1 0x5 SWAP1 SWAP2 ADD SSTORE POP POP POP PUSH1 0x0 SWAP5 DUP6 MSTORE POP POP PUSH1 0x6 PUSH1 0x20 MSTORE POP POP PUSH1 0x40 SWAP1 KECCAK256 DUP1 SLOAD PUSH1 0xFF NOT AND PUSH1 0x1 OR SWAP1 SSTORE POP JUMP JUMPDEST DUP1 CALLDATALOAD PUSH1 0x1 PUSH1 0x1 PUSH1 0xA0 SHL SUB DUP2 AND DUP2 EQ PUSH2 0xE13 JUMPI PUSH1 0x0 DUP1 REVERT JUMPDEST SWAP2 SWAP1 POP JUMP JUMPDEST PUSH1 0x0 DUP1 PUSH1 0x40 DUP4 DUP6 SUB SLT ISZERO PUSH2 0xE2B JUMPI PUSH1 0x0 DUP1 REVERT JUMPDEST PUSH2 0xE34 DUP4 PUSH2 0xDFC JUMP JUMPDEST SWAP5 PUSH1 0x20 SWAP4 SWAP1 SWAP4 ADD CALLDATALOAD SWAP4 POP POP POP JUMP JUMPDEST PUSH1 0x0 DUP1 PUSH1 0x0 PUSH1 0x60 DUP5 DUP7 SUB SLT ISZERO PUSH2 0xE57 JUMPI PUSH1 0x0 DUP1 REVERT JUMPDEST PUSH2 0xE60 DUP5 PUSH2 0xDFC JUMP JUMPDEST SWAP6 PUSH1 0x20 DUP6 ADD CALLDATALOAD SWAP6 POP PUSH1 0x40 SWAP1 SWAP5 ADD CALLDATALOAD SWAP4 SWAP3 POP POP POP JUMP JUMPDEST PUSH1 0x0 PUSH1 0x20 DUP3 DUP5 SUB SLT ISZERO PUSH2 0xE87 JUMPI PUSH1 0x0 DUP1 REVERT JUMPDEST PUSH2 0xE90 DUP3 PUSH2 0xDFC JUMP JUMPDEST SWAP4 SWAP3 POP POP POP JUMP JUMPDEST PUSH1 0x0 DUP2 MLOAD DUP1 DUP5 MSTORE PUSH1 0x20 DUP5 ADD SWAP4 POP PUSH1 0x20 DUP4 ADD PUSH1 0x0 JUMPDEST DUP3 DUP2 LT ISZERO PUSH2 0xED2 JUMPI DUP2 MLOAD PUSH1 0x1 PUSH1 0x1 PUSH1 0xA0 SHL SUB AND DUP7 MSTORE PUSH1 0x20 SWAP6 DUP7 ADD SWAP6 SWAP1 SWAP2 ADD SWAP1 PUSH1 0x1 ADD PUSH2 0xEAB JUMP JUMPDEST POP SWAP4 SWAP5 SWAP4 POP POP POP POP JUMP JUMPDEST PUSH1 0x40 DUP2 MSTORE PUSH1 0x0 PUSH2 0xEEF PUSH1 0x40 DUP4 ADD DUP6 PUSH2 0xE97 JUMP JUMPDEST DUP3 DUP2 SUB PUSH1 0x20 DUP5 ADD MSTORE DUP1 DUP5 MLOAD DUP1 DUP4 MSTORE PUSH1 0x20 DUP4 ADD SWAP2 POP PUSH1 0x20 DUP7 ADD SWAP3 POP PUSH1 0x0 JUMPDEST DUP2 DUP2 LT ISZERO PUSH2 0xF2A JUMPI DUP4 MLOAD DUP4 MSTORE PUSH1 0x20 SWAP4 DUP5 ADD SWAP4 SWAP1 SWAP3 ADD SWAP2 PUSH1 0x1 ADD PUSH2 0xF0C JUMP JUMPDEST POP SWAP1 SWAP7 SWAP6 POP POP POP POP POP POP JUMP JUMPDEST PUSH1 0x20 DUP2 MSTORE PUSH1 0x0 PUSH2 0xE90 PUSH1 0x20 DUP4 ADD DUP5 PUSH2 0xE97 JUMP JUMPDEST PUSH4 0x4E487B71 PUSH1 0xE0 SHL PUSH1 0x0 MSTORE PUSH1 0x41 PUSH1 0x4 MSTORE PUSH1 0x24 PUSH1 0x0 REVERT JUMPDEST PUSH1 0x0 DUP3 PUSH1 0x1F DUP4 ADD SLT PUSH2 0xF70 JUMPI PUSH1 0x0 DUP1 REVERT JUMPDEST DUP2 CALLDATALOAD PUSH8 0xFFFFFFFFFFFFFFFF DUP2 GT ISZERO PUSH2 0xF8A JUMPI PUSH2 0xF8A PUSH2 0xF49 JUMP JUMPDEST PUSH1 0x40 MLOAD PUSH1 0x1F DUP3 ADD PUSH1 0x1F NOT SWAP1 DUP2 AND PUSH1 0x3F ADD AND DUP2 ADD PUSH8 0xFFFFFFFFFFFFFFFF DUP2 GT DUP3 DUP3 LT OR ISZERO PUSH2 0xFB9 JUMPI PUSH2 0xFB9 PUSH2 0xF49 JUMP JUMPDEST PUSH1 0x40 MSTORE DUP2 DUP2 MSTORE DUP4 DUP3 ADD PUSH1 0x20 ADD DUP6 LT ISZERO PUSH2 0xFD1 JUMPI PUSH1 0x0 DUP1 REVERT JUMPDEST DUP2 PUSH1 0x20 DUP6 ADD PUSH1 0x20 DUP4 ADD CALLDATACOPY PUSH1 0x0 SWAP2 DUP2 ADD PUSH1 0x20 ADD SWAP2 SWAP1 SWAP2 MSTORE SWAP4 SWAP3 POP POP POP JUMP JUMPDEST PUSH1 0x0 DUP1 PUSH1 0x0 DUP1 PUSH1 0x0 DUP1 PUSH1 0xC0 DUP8 DUP10 SUB SLT ISZERO PUSH2 0x1007 JUMPI PUSH1 0x0 DUP1 REVERT JUMPDEST PUSH2 0x1010 DUP8 PUSH2 0xDFC JUMP JUMPDEST SWAP6 POP PUSH1 0x20 DUP8 ADD CALLDATALOAD SWAP5 POP PUSH1 0x40 DUP8 ADD CALLDATALOAD PUSH8 0xFFFFFFFFFFFFFFFF DUP2 GT ISZERO PUSH2 0x1033 JUMPI PUSH1 0x0 DUP1 REVERT JUMPDEST PUSH2 0x103F DUP10 DUP3 DUP11 ADD PUSH2 0xF5F JUMP JUMPDEST SWAP5 POP POP PUSH1 0x60 DUP8 ADD CALLDATALOAD PUSH8 0xFFFFFFFFFFFFFFFF DUP2 GT ISZERO PUSH2 0x105C JUMPI PUSH1 0x0 DUP1 REVERT JUMPDEST PUSH2 0x1068 DUP10 DUP3 DUP11 ADD PUSH2 0xF5F JUMP JUMPDEST SWAP7 SWAP10 SWAP6 SWAP9 POP SWAP4 SWAP7 PUSH1 0x80 DUP2 ADD CALLDATALOAD SWAP6 PUSH1 0xA0 SWAP1 SWAP2 ADD CALLDATALOAD SWAP5 POP SWAP3 POP POP POP JUMP JUMPDEST DUP2 DUP2 SUB DUP2 DUP2 GT ISZERO PUSH2 0x10A4 JUMPI PUSH4 0x4E487B71 PUSH1 0xE0 SHL PUSH1 0x0 MSTORE PUSH1 0x11 PUSH1 0x4 MSTORE PUSH1 0x24 PUSH1 0x0 REVERT JUMPDEST SWAP3 SWAP2 POP POP JUMP JUMPDEST PUSH4 0x4E487B71 PUSH1 0xE0 SHL PUSH1 0x0 MSTORE PUSH1 0x32 PUSH1 0x4 MSTORE PUSH1 0x24 PUSH1 0x0 REVERT JUMPDEST PUSH4 0x4E487B71 PUSH1 0xE0 SHL PUSH1 0x0 MSTORE PUSH1 0x31 PUSH1 0x4 MSTORE PUSH1 0x24 PUSH1 0x0 REVERT JUMPDEST PUSH1 0x1 DUP2 DUP2 SHR SWAP1 DUP3 AND DUP1 PUSH2 0x10EA JUMPI PUSH1 0x7F DUP3 AND SWAP2 POP JUMPDEST PUSH1 0x20 DUP3 LT DUP2 SUB PUSH2 0x110A JUMPI PUSH4 0x4E487B71 PUSH1 0xE0 SHL PUSH1 0x0 MSTORE PUSH1 0x22 PUSH1 0x4 MSTORE PUSH1 0x24 PUSH1 0x0 REVERT JUMPDEST POP SWAP2 SWAP1 POP JUMP JUMPDEST PUSH1 0x1F DUP3 GT ISZERO PUSH2 0x115A JUMPI DUP1 PUSH1 0x0 MSTORE PUSH1 0x20 PUSH1 0x0 KECCAK256 PUSH1 0x1F DUP5 ADD PUSH1 0x5 SHR DUP2 ADD PUSH1 0x20 DUP6 LT ISZERO PUSH2 0x1137 JUMPI POP DUP1 JUMPDEST PUSH1 0x1F DUP5 ADD PUSH1 0x5 SHR DUP3 ADD SWAP2 POP JUMPDEST DUP2 DUP2 LT ISZERO PUSH2 0x1157 JUMPI PUSH1 0x0 DUP2 SSTORE PUSH1 0x1 ADD PUSH2 0x1143 JUMP JUMPDEST POP POP JUMPDEST POP POP POP JUMP JUMPDEST DUP2 MLOAD PUSH8 0xFFFFFFFFFFFFFFFF DUP2 GT ISZERO PUSH2 0x1179 JUMPI PUSH2 0x1179 PUSH2 0xF49 JUMP JUMPDEST PUSH2 0x118D DUP2 PUSH2 0x1187 DUP5 SLOAD PUSH2 0x10D6 JUMP JUMPDEST DUP5 PUSH2 0x1110 JUMP JUMPDEST PUSH1 0x20 PUSH1 0x1F DUP3 GT PUSH1 0x1 DUP2 EQ PUSH2 0x11C1 JUMPI PUSH1 0x0 DUP4 ISZERO PUSH2 0x11A9 JUMPI POP DUP5 DUP3 ADD MLOAD JUMPDEST PUSH1 0x0 NOT PUSH1 0x3 DUP6 SWAP1 SHL SHR NOT AND PUSH1 0x1 DUP5 SWAP1 SHL OR DUP5 SSTORE PUSH2 0x1157 JUMP JUMPDEST PUSH1 0x0 DUP5 DUP2 MSTORE PUSH1 0x20 DUP2 KECCAK256 PUSH1 0x1F NOT DUP6 AND SWAP2 JUMPDEST DUP3 DUP2 LT ISZERO PUSH2 0x11F1 JUMPI DUP8 DUP6 ADD MLOAD DUP3 SSTORE PUSH1 0x20 SWAP5 DUP6 ADD SWAP5 PUSH1 0x1 SWAP1 SWAP3 ADD SWAP2 ADD PUSH2 0x11D1 JUMP JUMPDEST POP DUP5 DUP3 LT ISZERO PUSH2 0x120F JUMPI DUP7 DUP5 ADD MLOAD PUSH1 0x0 NOT PUSH1 0x3 DUP8 SWAP1 SHL PUSH1 0xF8 AND SHR NOT AND DUP2 SSTORE JUMPDEST POP POP POP POP PUSH1 0x1 SWAP1 DUP2 SHL ADD SWAP1 SSTORE POP JUMP INVALID LOG2 PUSH5 0x6970667358 0x22 SLT KECCAK256 CALLDATASIZE DUP11 LOG4 0x2A BASEFEE PREVRANDAO PUSH25 0xA5D4D1DF39BFED42008F82408C7B88C1C1EB438B81C07A8BDD PUSH5 0x736F6C6343 STOP ADDMOD SHR STOP CALLER "
        },
        "methodIdentifiers": {
          "check_if_registered(address)": "24e29479",
          "get_file_owner_dpcn_address(address)": "95e2c2a8",
          "get_file_share_result(address,uint256)": "00618acb",
          "get_pending_share_requests()": "9b358456",
          "get_users_pending_registration()": "bd6795c9",
          "request_file_share(address,uint256)": "8cb0877f",
          "request_registration(address)": "7952e501",
          "respond_with_client_encrypted_sym_key(address,uint256,uint256)": "062f8820",
          "respond_with_registration(address,uint256)": "273a88e7",
          "upload_file(address,uint256,string,string,uint256,uint256)": "c1f8ada1"
        }
      }
    }
  }
}